{
  "contractName": "AnastasisLimitedEditionAsh",
  "abi": [
    {
      "inputs": [],
      "stateMutability": "nonpayable",
      "type": "constructor"
    },
    {
      "inputs": [
        {
          "internalType": "address",
          "name": "",
          "type": "address"
        }
      ],
      "name": "_addressMintedInPublicSale",
      "outputs": [
        {
          "internalType": "bool",
          "name": "",
          "type": "bool"
        }
      ],
      "stateMutability": "view",
      "type": "function"
    },
    {
      "inputs": [],
      "name": "_anastasisAct3Address",
      "outputs": [
        {
          "internalType": "address",
          "name": "",
          "type": "address"
        }
      ],
      "stateMutability": "view",
      "type": "function"
    },
    {
      "inputs": [],
      "name": "_ashAddress",
      "outputs": [
        {
          "internalType": "address",
          "name": "",
          "type": "address"
        }
      ],
      "stateMutability": "view",
      "type": "function"
    },
    {
      "inputs": [
        {
          "internalType": "address",
          "name": "",
          "type": "address"
        }
      ],
      "name": "_isAdmin",
      "outputs": [
        {
          "internalType": "bool",
          "name": "",
          "type": "bool"
        }
      ],
      "stateMutability": "view",
      "type": "function"
    },
    {
      "inputs": [],
      "name": "_mintLimit",
      "outputs": [
        {
          "internalType": "bool",
          "name": "",
          "type": "bool"
        }
      ],
      "stateMutability": "view",
      "type": "function"
    },
    {
      "inputs": [],
      "name": "_price",
      "outputs": [
        {
          "internalType": "uint256",
          "name": "",
          "type": "uint256"
        }
      ],
      "stateMutability": "view",
      "type": "function"
    },
    {
      "inputs": [],
      "name": "_publicMintOpened",
      "outputs": [
        {
          "internalType": "bool",
          "name": "",
          "type": "bool"
        }
      ],
      "stateMutability": "view",
      "type": "function"
    },
    {
      "inputs": [
        {
          "internalType": "address",
          "name": "newAdmin",
          "type": "address"
        }
      ],
      "name": "approveAdmin",
      "outputs": [],
      "stateMutability": "nonpayable",
      "type": "function"
    },
    {
      "inputs": [
        {
          "internalType": "address",
          "name": "exAdmin",
          "type": "address"
        }
      ],
      "name": "removeAdmin",
      "outputs": [],
      "stateMutability": "nonpayable",
      "type": "function"
    },
    {
      "inputs": [
        {
          "internalType": "address",
          "name": "fundSplitAddress",
          "type": "address"
        }
      ],
      "name": "setRecipient",
      "outputs": [],
      "stateMutability": "nonpayable",
      "type": "function"
    },
    {
      "inputs": [
        {
          "internalType": "address",
          "name": "ashAddress",
          "type": "address"
        }
      ],
      "name": "setAshAddress",
      "outputs": [],
      "stateMutability": "nonpayable",
      "type": "function"
    },
    {
      "inputs": [
        {
          "internalType": "address",
          "name": "anastasisAct3Address",
          "type": "address"
        }
      ],
      "name": "setAnastasisAct3Address",
      "outputs": [],
      "stateMutability": "nonpayable",
      "type": "function"
    },
    {
      "inputs": [],
      "name": "togglePublicMintOpened",
      "outputs": [],
      "stateMutability": "nonpayable",
      "type": "function"
    },
    {
      "inputs": [],
      "name": "toggleMintLimit",
      "outputs": [],
      "stateMutability": "nonpayable",
      "type": "function"
    },
    {
      "inputs": [],
      "name": "publicAshMint",
      "outputs": [],
      "stateMutability": "payable",
      "type": "function"
    }
  ],
  "bytecode": "0x608060405268022b1c8c1227a000006000557364d91f12ece7362f91a6f8e7940cd55f05060b92600160006101000a81548173ffffffffffffffffffffffffffffffffffffffff021916908373ffffffffffffffffffffffffffffffffffffffff16021790555034801561007257600080fd5b506001600460003373ffffffffffffffffffffffffffffffffffffffff1673ffffffffffffffffffffffffffffffffffffffff16815260200190815260200160002060006101000a81548160ff021916908315150217905550610ed6806100da6000396000f3fe6080604052600436106100e85760003560e01c80639c04924e1161008a578063dfa9ea7f11610059578063dfa9ea7f146102ad578063dfb70e7e146102c4578063e9e43f1f146102db578063f1cf640914610318576100e8565b80639c04924e146101f15780639f5eca641461021a578063acb4f94114610257578063aecd2cd014610282576100e8565b806361707e3a116100c657806361707e3a1461016a5780636d73e6691461019557806374ef3962146101be57806380915bbf146101e7576100e8565b80631785f53c146100ed578063235b6ea1146101165780633bbed4a014610141575b600080fd5b3480156100f957600080fd5b50610114600480360381019061010f9190610b9c565b610343565b005b34801561012257600080fd5b5061012b6103f4565b6040516101389190610be2565b60405180910390f35b34801561014d57600080fd5b5061016860048036038101906101639190610b9c565b6103fa565b005b34801561017657600080fd5b5061017f610494565b60405161018c9190610c0c565b60405180910390f35b3480156101a157600080fd5b506101bc60048036038101906101b79190610b9c565b6104ba565b005b3480156101ca57600080fd5b506101e560048036038101906101e09190610b9c565b61056b565b005b6101ef610605565b005b3480156101fd57600080fd5b5061021860048036038101906102139190610b9c565b61090f565b005b34801561022657600080fd5b50610241600480360381019061023c9190610b9c565b6109a9565b60405161024e9190610c42565b60405180910390f35b34801561026357600080fd5b5061026c6109c9565b6040516102799190610c42565b60405180910390f35b34801561028e57600080fd5b506102976109dc565b6040516102a49190610c0c565b60405180910390f35b3480156102b957600080fd5b506102c2610a02565b005b3480156102d057600080fd5b506102d9610a84565b005b3480156102e757600080fd5b5061030260048036038101906102fd9190610b9c565b610b06565b60405161030f9190610c42565b60405180910390f35b34801561032457600080fd5b5061032d610b26565b60405161033a9190610c42565b60405180910390f35b600460003373ffffffffffffffffffffffffffffffffffffffff1673ffffffffffffffffffffffffffffffffffffffff16815260200190815260200160002060009054906101000a900460ff1661039957600080fd5b6000600460008373ffffffffffffffffffffffffffffffffffffffff1673ffffffffffffffffffffffffffffffffffffffff16815260200190815260200160002060006101000a81548160ff02191690831515021790555050565b60005481565b600460003373ffffffffffffffffffffffffffffffffffffffff1673ffffffffffffffffffffffffffffffffffffffff16815260200190815260200160002060009054906101000a900460ff1661045057600080fd5b80600360006101000a81548173ffffffffffffffffffffffffffffffffffffffff021916908373ffffffffffffffffffffffffffffffffffffffff16021790555050565b600260009054906101000a900473ffffffffffffffffffffffffffffffffffffffff1681565b600460003373ffffffffffffffffffffffffffffffffffffffff1673ffffffffffffffffffffffffffffffffffffffff16815260200190815260200160002060009054906101000a900460ff1661051057600080fd5b6001600460008373ffffffffffffffffffffffffffffffffffffffff1673ffffffffffffffffffffffffffffffffffffffff16815260200190815260200160002060006101000a81548160ff02191690831515021790555050565b600460003373ffffffffffffffffffffffffffffffffffffffff1673ffffffffffffffffffffffffffffffffffffffff16815260200190815260200160002060009054906101000a900460ff166105c157600080fd5b80600160006101000a81548173ffffffffffffffffffffffffffffffffffffffff021916908373ffffffffffffffffffffffffffffffffffffffff16021790555050565b600360149054906101000a900460ff16610654576040517f08c379a000000000000000000000000000000000000000000000000000000000815260040161064b90610cba565b60405180910390fd5b600054341015610699576040517f08c379a000000000000000000000000000000000000000000000000000000000815260040161069090610d26565b60405180910390fd5b600360159054906101000a900460ff161561073c57600560003373ffffffffffffffffffffffffffffffffffffffff1673ffffffffffffffffffffffffffffffffffffffff16815260200190815260200160002060009054906101000a900460ff161561073b576040517f08c379a000000000000000000000000000000000000000000000000000000000815260040161073290610d92565b60405180910390fd5b5b600080600360009054906101000a900473ffffffffffffffffffffffffffffffffffffffff1690508073ffffffffffffffffffffffffffffffffffffffff166326f73236336000546040518363ffffffff1660e01b81526004016107a1929190610db2565b6020604051808303816000875af11580156107c0573d6000803e3d6000fd5b505050506040513d601f19601f820116820180604052508101906107e49190610e07565b915081610826576040517f08c379a000000000000000000000000000000000000000000000000000000000815260040161081d90610e80565b60405180910390fd5b6001600560003373ffffffffffffffffffffffffffffffffffffffff1673ffffffffffffffffffffffffffffffffffffffff16815260200190815260200160002060006101000a81548160ff021916908315150217905550600260009054906101000a900473ffffffffffffffffffffffffffffffffffffffff1673ffffffffffffffffffffffffffffffffffffffff16636a627842336040518263ffffffff1660e01b81526004016108d99190610c0c565b600060405180830381600087803b1580156108f357600080fd5b505af1158015610907573d6000803e3d6000fd5b505050505050565b600460003373ffffffffffffffffffffffffffffffffffffffff1673ffffffffffffffffffffffffffffffffffffffff16815260200190815260200160002060009054906101000a900460ff1661096557600080fd5b80600260006101000a81548173ffffffffffffffffffffffffffffffffffffffff021916908373ffffffffffffffffffffffffffffffffffffffff16021790555050565b60056020528060005260406000206000915054906101000a900460ff1681565b600360149054906101000a900460ff1681565b600160009054906101000a900473ffffffffffffffffffffffffffffffffffffffff1681565b600460003373ffffffffffffffffffffffffffffffffffffffff1673ffffffffffffffffffffffffffffffffffffffff16815260200190815260200160002060009054906101000a900460ff16610a5857600080fd5b600360149054906101000a900460ff1615600360146101000a81548160ff021916908315150217905550565b600460003373ffffffffffffffffffffffffffffffffffffffff1673ffffffffffffffffffffffffffffffffffffffff16815260200190815260200160002060009054906101000a900460ff16610ada57600080fd5b600360159054906101000a900460ff1615600360156101000a81548160ff021916908315150217905550565b60046020528060005260406000206000915054906101000a900460ff1681565b600360159054906101000a900460ff1681565b600080fd5b600073ffffffffffffffffffffffffffffffffffffffff82169050919050565b6000610b6982610b3e565b9050919050565b610b7981610b5e565b8114610b8457600080fd5b50565b600081359050610b9681610b70565b92915050565b600060208284031215610bb257610bb1610b39565b5b6000610bc084828501610b87565b91505092915050565b6000819050919050565b610bdc81610bc9565b82525050565b6000602082019050610bf76000830184610bd3565b92915050565b610c0681610b5e565b82525050565b6000602082019050610c216000830184610bfd565b92915050565b60008115159050919050565b610c3c81610c27565b82525050565b6000602082019050610c576000830184610c33565b92915050565b600082825260208201905092915050565b7f4d696e7420636c6f736564000000000000000000000000000000000000000000600082015250565b6000610ca4600b83610c5d565b9150610caf82610c6e565b602082019050919050565b60006020820190508181036000830152610cd381610c97565b9050919050565b7f4e6f7420656e6f7567682066756e647300000000000000000000000000000000600082015250565b6000610d10601083610c5d565b9150610d1b82610cda565b602082019050919050565b60006020820190508181036000830152610d3f81610d03565b9050919050565b7f416c7265616479204d696e746564000000000000000000000000000000000000600082015250565b6000610d7c600e83610c5d565b9150610d8782610d46565b602082019050919050565b60006020820190508181036000830152610dab81610d6f565b9050919050565b6000604082019050610dc76000830185610bfd565b610dd46020830184610bd3565b9392505050565b610de481610c27565b8114610def57600080fd5b50565b600081519050610e0181610ddb565b92915050565b600060208284031215610e1d57610e1c610b39565b5b6000610e2b84828501610df2565b91505092915050565b7f46756e647320636f756c64206e6f74207472616e736665720000000000000000600082015250565b6000610e6a601883610c5d565b9150610e7582610e34565b602082019050919050565b60006020820190508181036000830152610e9981610e5d565b905091905056fea264697066735822122064cd70331e1101d7ee7dac4e5e8c81bb2611c4c5cd9de5027d06b3f427a0b3da64736f6c634300080d0033",
  "immutableReferences": {},
  "source": "// SPDX-License-Identifier: MIT\n\npragma solidity >= 0.8.13;\n\nimport \"./AnastasisAct3.sol\";\nimport \"./FundSplit.sol\";\nimport \"@openzeppelin/contracts/token/ERC721/IERC721.sol\";\nimport \"@openzeppelin/contracts/token/ERC20/IERC20.sol\";\n\ncontract AnastasisLimitedEditionAsh {\n\n    uint256 public _price = 40*10**18;\n\n    address public _ashAddress= 0x64D91f12Ece7362F91A6f8E7940Cd55F05060b92;\n    address public _anastasisAct3Address;\n    address private _fundSplitAddress;\n\n    bool public _publicMintOpened;\n    bool public _mintLimit;\n\n    mapping (address => bool) public _isAdmin;\n    mapping (address => bool) public _addressMintedInPublicSale;\n\n\n    constructor(){\n        _isAdmin[msg.sender] = true;\n    }\n\n    function approveAdmin(address newAdmin)external{\n        require(_isAdmin[msg.sender]);\n        _isAdmin[newAdmin] = true;\n    }\n\n    function removeAdmin(address exAdmin)external{\n        require(_isAdmin[msg.sender]);\n        _isAdmin[exAdmin] = false;\n    }\n\n    function setRecipient(address fundSplitAddress) external {\n        require(_isAdmin[msg.sender]);\n        _fundSplitAddress = fundSplitAddress;\n    }\n\n    function setAshAddress(address ashAddress) external{\n        require(_isAdmin[msg.sender]);\n        _ashAddress = ashAddress;\n    }\n\n    function setAnastasisAct3Address(address anastasisAct3Address) external{\n        require(_isAdmin[msg.sender]);\n        _anastasisAct3Address = anastasisAct3Address;\n    }\n\n    function togglePublicMintOpened()external{\n        require(_isAdmin[msg.sender]);\n        _publicMintOpened = !_publicMintOpened;\n    }\n\n    function toggleMintLimit()external{\n        require(_isAdmin[msg.sender]);\n        _mintLimit = !_mintLimit;\n    }\n\n    function publicAshMint() external payable{\n        require(_publicMintOpened, \"Mint closed\");\n        require(msg.value >= _price, \"Not enough funds\");\n        if(_mintLimit){\n            require(!_addressMintedInPublicSale[msg.sender], \"Already Minted\");\n        }\n        bool success;\n        address payable fundSplitContract = payable(address(_fundSplitAddress));\n        success = FundSplit(fundSplitContract).depositAsh(msg.sender, _price);\n        require(success, \"Funds could not transfer\");\n        _addressMintedInPublicSale[msg.sender] = true;\n        Anastasis_Act3(_anastasisAct3Address).mint(msg.sender);\n    }\n\n}",
  "sourcePath": "/Users/bct/Documents/Dev/NFT_dev/Anastasis/contracts/AnastasisAct3MintAsh.sol",
  "compiler": {
    "name": "solc",
    "version": "0.8.13+commit.abaa5c0e.Emscripten.clang"
  },
  "schemaVersion": "3.4.4",
  "updatedAt": "2022-10-08T11:29:24.100Z",
  "devdoc": {
    "kind": "dev",
    "methods": {},
    "version": 1
  },
  "userdoc": {
    "kind": "user",
    "methods": {},
    "version": 1
  }
}