{
  "contractName": "AnastasisOpenEdition",
  "abi": [
    {
      "inputs": [],
      "stateMutability": "nonpayable",
      "type": "constructor"
    },
    {
      "inputs": [],
      "name": "_anastasisAct2Address",
      "outputs": [
        {
          "internalType": "address",
          "name": "",
          "type": "address"
        }
      ],
      "stateMutability": "view",
      "type": "function"
    },
    {
      "inputs": [],
      "name": "_ashAddress",
      "outputs": [
        {
          "internalType": "address",
          "name": "",
          "type": "address"
        }
      ],
      "stateMutability": "view",
      "type": "function"
    },
    {
      "inputs": [],
      "name": "_ashPrice",
      "outputs": [
        {
          "internalType": "uint256",
          "name": "",
          "type": "uint256"
        }
      ],
      "stateMutability": "view",
      "type": "function"
    },
    {
      "inputs": [
        {
          "internalType": "address",
          "name": "",
          "type": "address"
        }
      ],
      "name": "_biddersHasMinted",
      "outputs": [
        {
          "internalType": "bool",
          "name": "",
          "type": "bool"
        }
      ],
      "stateMutability": "view",
      "type": "function"
    },
    {
      "inputs": [],
      "name": "_fomoverseAddress",
      "outputs": [
        {
          "internalType": "address",
          "name": "",
          "type": "address"
        }
      ],
      "stateMutability": "view",
      "type": "function"
    },
    {
      "inputs": [],
      "name": "_holderPrice",
      "outputs": [
        {
          "internalType": "uint256",
          "name": "",
          "type": "uint256"
        }
      ],
      "stateMutability": "view",
      "type": "function"
    },
    {
      "inputs": [],
      "name": "_mintOpened",
      "outputs": [
        {
          "internalType": "bool",
          "name": "",
          "type": "bool"
        }
      ],
      "stateMutability": "view",
      "type": "function"
    },
    {
      "inputs": [],
      "name": "_publicPrice",
      "outputs": [
        {
          "internalType": "uint256",
          "name": "",
          "type": "uint256"
        }
      ],
      "stateMutability": "view",
      "type": "function"
    },
    {
      "inputs": [
        {
          "internalType": "address",
          "name": "fundSplitAddress",
          "type": "address"
        }
      ],
      "name": "setFundSplitAddress",
      "outputs": [],
      "stateMutability": "nonpayable",
      "type": "function"
    },
    {
      "inputs": [
        {
          "internalType": "address",
          "name": "ashAddress",
          "type": "address"
        }
      ],
      "name": "setAshAddress",
      "outputs": [],
      "stateMutability": "nonpayable",
      "type": "function"
    },
    {
      "inputs": [
        {
          "internalType": "address",
          "name": "FOMOAddress",
          "type": "address"
        }
      ],
      "name": "setFOMOAddress",
      "outputs": [],
      "stateMutability": "nonpayable",
      "type": "function"
    },
    {
      "inputs": [
        {
          "internalType": "address",
          "name": "anastasisAct2Address",
          "type": "address"
        }
      ],
      "name": "setAnastasisAct2Address",
      "outputs": [],
      "stateMutability": "nonpayable",
      "type": "function"
    },
    {
      "inputs": [
        {
          "internalType": "address",
          "name": "newAdmin",
          "type": "address"
        }
      ],
      "name": "toggleAdmin",
      "outputs": [],
      "stateMutability": "nonpayable",
      "type": "function"
    },
    {
      "inputs": [],
      "name": "toggleMintOpened",
      "outputs": [],
      "stateMutability": "nonpayable",
      "type": "function"
    },
    {
      "inputs": [
        {
          "internalType": "address",
          "name": "signer",
          "type": "address"
        }
      ],
      "name": "setSigner",
      "outputs": [],
      "stateMutability": "nonpayable",
      "type": "function"
    },
    {
      "inputs": [
        {
          "internalType": "bool",
          "name": "payInEth",
          "type": "bool"
        },
        {
          "internalType": "uint256",
          "name": "quantity",
          "type": "uint256"
        }
      ],
      "name": "mint",
      "outputs": [],
      "stateMutability": "payable",
      "type": "function"
    },
    {
      "inputs": [
        {
          "internalType": "uint8",
          "name": "v",
          "type": "uint8"
        },
        {
          "internalType": "bytes32",
          "name": "r",
          "type": "bytes32"
        },
        {
          "internalType": "bytes32",
          "name": "s",
          "type": "bytes32"
        }
      ],
      "name": "getFreeMint",
      "outputs": [],
      "stateMutability": "nonpayable",
      "type": "function"
    }
  ],
  "bytecode": "0x608060405266354a6ba7a1800060005566470de4df8200006001556801158e460913d000006002557364d91f12ece7362f91a6f8e7940cd55f05060b92600360006101000a81548173ffffffffffffffffffffffffffffffffffffffff021916908373ffffffffffffffffffffffffffffffffffffffff1602179055507374bb71a4210e33256885def483fd4227b7f9d88f600460006101000a81548173ffffffffffffffffffffffffffffffffffffffff021916908373ffffffffffffffffffffffffffffffffffffffff1602179055507364d91f12ece7362f91a6f8e7940cd55f05060b92600560006101000a81548173ffffffffffffffffffffffffffffffffffffffff021916908373ffffffffffffffffffffffffffffffffffffffff16021790555034801561013257600080fd5b506001600860003373ffffffffffffffffffffffffffffffffffffffff1673ffffffffffffffffffffffffffffffffffffffff16815260200190815260200160002060006101000a81548160ff021916908315150217905550611c9d8061019a6000396000f3fe6080604052600436106100fe5760003560e01c80639888905811610095578063d3b8614111610064578063d3b86141146102fd578063dccee69b14610326578063dfefc7761461033d578063ed1e80c614610359578063f4e3a7e314610382576100fe565b80639888905814610253578063a4b7f7051461027e578063abffaf4a146102a9578063aecd2cd0146102d2576100fe565b8063724bfed6116100d1578063724bfed6146101ab57806374ef3962146101d657806382e02c30146101ff578063932796ce1461022a576100fe565b806319981dd1146101035780635c3716721461012e578063678ea70a146101595780636c19e78314610182575b600080fd5b34801561010f57600080fd5b506101186103bf565b6040516101259190611294565b60405180910390f35b34801561013a57600080fd5b506101436103d2565b60405161015091906112c8565b60405180910390f35b34801561016557600080fd5b50610180600480360381019061017b9190611357565b6103d8565b005b34801561018e57600080fd5b506101a960048036038101906101a49190611408565b610637565b005b3480156101b757600080fd5b506101c0610707565b6040516101cd9190611444565b60405180910390f35b3480156101e257600080fd5b506101fd60048036038101906101f89190611408565b61072d565b005b34801561020b57600080fd5b506102146107c7565b6040516102219190611444565b60405180910390f35b34801561023657600080fd5b50610251600480360381019061024c9190611408565b6107ed565b005b34801561025f57600080fd5b50610268610887565b60405161027591906112c8565b60405180910390f35b34801561028a57600080fd5b5061029361088d565b6040516102a091906112c8565b60405180910390f35b3480156102b557600080fd5b506102d060048036038101906102cb9190611408565b610893565b005b3480156102de57600080fd5b506102e761092d565b6040516102f49190611444565b60405180910390f35b34801561030957600080fd5b50610324600480360381019061031f9190611408565b610953565b005b34801561033257600080fd5b5061033b610a50565b005b610357600480360381019061035291906114b7565b610ad2565b005b34801561036557600080fd5b50610380600480360381019061037b9190611408565b611046565b005b34801561038e57600080fd5b506103a960048036038101906103a49190611408565b6110e0565b6040516103b69190611294565b60405180910390f35b600760149054906101000a900460ff1681565b60025481565b600760149054906101000a900460ff16610427576040517f08c379a000000000000000000000000000000000000000000000000000000000815260040161041e90611554565b60405180910390fd5b610432838383611100565b610471576040517f08c379a0000000000000000000000000000000000000000000000000000000008152600401610468906115c0565b60405180910390fd5b601e600960003373ffffffffffffffffffffffffffffffffffffffff1673ffffffffffffffffffffffffffffffffffffffff16815260200190815260200160002054106104f3576040517f08c379a00000000000000000000000000000000000000000000000000000000081526004016104ea9061162c565b60405180910390fd5b600560009054906101000a900473ffffffffffffffffffffffffffffffffffffffff1673ffffffffffffffffffffffffffffffffffffffff166340c10f193360016040518363ffffffff1660e01b8152600401610551929190611691565b600060405180830381600087803b15801561056b57600080fd5b505af115801561057f573d6000803e3d6000fd5b505050506001600a60003373ffffffffffffffffffffffffffffffffffffffff1673ffffffffffffffffffffffffffffffffffffffff16815260200190815260200160002060006101000a81548160ff0219169083151502179055506001600960003373ffffffffffffffffffffffffffffffffffffffff1673ffffffffffffffffffffffffffffffffffffffff168152602001908152602001600020600082825461062b91906116e9565b92505081905550505050565b600860003373ffffffffffffffffffffffffffffffffffffffff1673ffffffffffffffffffffffffffffffffffffffff16815260200190815260200160002060009054906101000a900460ff166106c3576040517f08c379a00000000000000000000000000000000000000000000000000000000081526004016106ba9061178b565b60405180910390fd5b80600760006101000a81548173ffffffffffffffffffffffffffffffffffffffff021916908373ffffffffffffffffffffffffffffffffffffffff16021790555050565b600560009054906101000a900473ffffffffffffffffffffffffffffffffffffffff1681565b600860003373ffffffffffffffffffffffffffffffffffffffff1673ffffffffffffffffffffffffffffffffffffffff16815260200190815260200160002060009054906101000a900460ff1661078357600080fd5b80600360006101000a81548173ffffffffffffffffffffffffffffffffffffffff021916908373ffffffffffffffffffffffffffffffffffffffff16021790555050565b600460009054906101000a900473ffffffffffffffffffffffffffffffffffffffff1681565b600860003373ffffffffffffffffffffffffffffffffffffffff1673ffffffffffffffffffffffffffffffffffffffff16815260200190815260200160002060009054906101000a900460ff1661084357600080fd5b80600560006101000a81548173ffffffffffffffffffffffffffffffffffffffff021916908373ffffffffffffffffffffffffffffffffffffffff16021790555050565b60015481565b60005481565b600860003373ffffffffffffffffffffffffffffffffffffffff1673ffffffffffffffffffffffffffffffffffffffff16815260200190815260200160002060009054906101000a900460ff166108e957600080fd5b80600460006101000a81548173ffffffffffffffffffffffffffffffffffffffff021916908373ffffffffffffffffffffffffffffffffffffffff16021790555050565b600360009054906101000a900473ffffffffffffffffffffffffffffffffffffffff1681565b600860003373ffffffffffffffffffffffffffffffffffffffff1673ffffffffffffffffffffffffffffffffffffffff16815260200190815260200160002060009054906101000a900460ff166109a957600080fd5b600860008273ffffffffffffffffffffffffffffffffffffffff1673ffffffffffffffffffffffffffffffffffffffff16815260200190815260200160002060009054906101000a900460ff1615600860008373ffffffffffffffffffffffffffffffffffffffff1673ffffffffffffffffffffffffffffffffffffffff16815260200190815260200160002060006101000a81548160ff02191690831515021790555050565b600860003373ffffffffffffffffffffffffffffffffffffffff1673ffffffffffffffffffffffffffffffffffffffff16815260200190815260200160002060009054906101000a900460ff16610aa657600080fd5b600760149054906101000a900460ff1615600760146101000a81548160ff021916908315150217905550565b600760149054906101000a900460ff16610b21576040517f08c379a0000000000000000000000000000000000000000000000000000000008152600401610b1890611554565b60405180910390fd5b60008111610b64576040517f08c379a0000000000000000000000000000000000000000000000000000000008152600401610b5b906117f7565b60405180910390fd5b601e81600960003373ffffffffffffffffffffffffffffffffffffffff1673ffffffffffffffffffffffffffffffffffffffff16815260200190815260200160002054610bb191906116e9565b1115610bf2576040517f08c379a0000000000000000000000000000000000000000000000000000000008152600401610be99061162c565b60405180910390fd5b600a811115610c36576040517f08c379a0000000000000000000000000000000000000000000000000000000008152600401610c2d90611889565b60405180910390fd5b60008068015af1d78b58c40000600360009054906101000a900473ffffffffffffffffffffffffffffffffffffffff1673ffffffffffffffffffffffffffffffffffffffff166370a08231336040518263ffffffff1660e01b8152600401610c9e9190611444565b602060405180830381865afa158015610cbb573d6000803e3d6000fd5b505050506040513d601f19601f82011682018060405250810190610cdf91906118be565b101580610d8857506001600460009054906101000a900473ffffffffffffffffffffffffffffffffffffffff1673ffffffffffffffffffffffffffffffffffffffff166370a08231336040518263ffffffff1660e01b8152600401610d449190611444565b602060405180830381865afa158015610d61573d6000803e3d6000fd5b505050506040513d601f19601f82011682018060405250810190610d8591906118be565b10155b15610d9257600191505b8315610e6557600082610da757600154610dab565b6000545b90508381610db991906118eb565b341015610dfb576040517f08c379a0000000000000000000000000000000000000000000000000000000008152600401610df290611991565b60405180910390fd5b600660009054906101000a900473ffffffffffffffffffffffffffffffffffffffff1673ffffffffffffffffffffffffffffffffffffffff166108fc8583610e4391906118eb565b9081150290604051600060405180830381858888f19350505050915050610f1b565b6000600660009054906101000a900473ffffffffffffffffffffffffffffffffffffffff1690508073ffffffffffffffffffffffffffffffffffffffff166326f732363386600254610eb791906118eb565b6040518363ffffffff1660e01b8152600401610ed49291906119b1565b6020604051808303816000875af1158015610ef3573d6000803e3d6000fd5b505050506040513d601f19601f82011682018060405250810190610f1791906119ef565b9150505b80610f5b576040517f08c379a0000000000000000000000000000000000000000000000000000000008152600401610f5290611a68565b60405180910390fd5b600560009054906101000a900473ffffffffffffffffffffffffffffffffffffffff1673ffffffffffffffffffffffffffffffffffffffff166340c10f1933856040518363ffffffff1660e01b8152600401610fb89291906119b1565b600060405180830381600087803b158015610fd257600080fd5b505af1158015610fe6573d6000803e3d6000fd5b5050505082600960003373ffffffffffffffffffffffffffffffffffffffff1673ffffffffffffffffffffffffffffffffffffffff168152602001908152602001600020600082825461103991906116e9565b9250508190555050505050565b600860003373ffffffffffffffffffffffffffffffffffffffff1673ffffffffffffffffffffffffffffffffffffffff16815260200190815260200160002060009054906101000a900460ff1661109c57600080fd5b80600660006101000a81548173ffffffffffffffffffffffffffffffffffffffff021916908373ffffffffffffffffffffffffffffffffffffffff16021790555050565b600a6020528060005260406000206000915054906101000a900460ff1681565b6000600133600560009054906101000a900473ffffffffffffffffffffffffffffffffffffffff16600760149054906101000a900460ff16600a60003373ffffffffffffffffffffffffffffffffffffffff1673ffffffffffffffffffffffffffffffffffffffff16815260200190815260200160002060009054906101000a900460ff166040516020016111989493929190611b18565b604051602081830303815290604052805190602001206040516020016111be9190611bde565b60405160208183030381529060405280519060200120858585604051600081526020016040526040516111f49493929190611c22565b6020604051602081039080840390855afa158015611216573d6000803e3d6000fd5b5050506020604051035173ffffffffffffffffffffffffffffffffffffffff16600760009054906101000a900473ffffffffffffffffffffffffffffffffffffffff1673ffffffffffffffffffffffffffffffffffffffff161490509392505050565b60008115159050919050565b61128e81611279565b82525050565b60006020820190506112a96000830184611285565b92915050565b6000819050919050565b6112c2816112af565b82525050565b60006020820190506112dd60008301846112b9565b92915050565b600080fd5b600060ff82169050919050565b6112fe816112e8565b811461130957600080fd5b50565b60008135905061131b816112f5565b92915050565b6000819050919050565b61133481611321565b811461133f57600080fd5b50565b6000813590506113518161132b565b92915050565b6000806000606084860312156113705761136f6112e3565b5b600061137e8682870161130c565b935050602061138f86828701611342565b92505060406113a086828701611342565b9150509250925092565b600073ffffffffffffffffffffffffffffffffffffffff82169050919050565b60006113d5826113aa565b9050919050565b6113e5816113ca565b81146113f057600080fd5b50565b600081359050611402816113dc565b92915050565b60006020828403121561141e5761141d6112e3565b5b600061142c848285016113f3565b91505092915050565b61143e816113ca565b82525050565b60006020820190506114596000830184611435565b92915050565b61146881611279565b811461147357600080fd5b50565b6000813590506114858161145f565b92915050565b611494816112af565b811461149f57600080fd5b50565b6000813590506114b18161148b565b92915050565b600080604083850312156114ce576114cd6112e3565b5b60006114dc85828601611476565b92505060206114ed858286016114a2565b9150509250929050565b600082825260208201905092915050565b7f4d696e7420636c6f736564000000000000000000000000000000000000000000600082015250565b600061153e600b836114f7565b915061154982611508565b602082019050919050565b6000602082019050818103600083015261156d81611531565b9050919050565b7f4d696e74206e6f7420616c6c6f77656400000000000000000000000000000000600082015250565b60006115aa6010836114f7565b91506115b582611574565b602082019050919050565b600060208201905081810360008301526115d98161159d565b9050919050565b7f43616e6e6f74206d696e74206d6f7265207468616e20333020746f6b656e7300600082015250565b6000611616601f836114f7565b9150611621826115e0565b602082019050919050565b6000602082019050818103600083015261164581611609565b9050919050565b6000819050919050565b6000819050919050565b600061167b6116766116718461164c565b611656565b6112af565b9050919050565b61168b81611660565b82525050565b60006040820190506116a66000830185611435565b6116b36020830184611682565b9392505050565b7f4e487b7100000000000000000000000000000000000000000000000000000000600052601160045260246000fd5b60006116f4826112af565b91506116ff836112af565b9250827fffffffffffffffffffffffffffffffffffffffffffffffffffffffffffffffff03821115611734576117336116ba565b5b828201905092915050565b7f4f6e6c792041646d696e732063616e20736574207369676e6572000000000000600082015250565b6000611775601a836114f7565b91506117808261173f565b602082019050919050565b600060208201905081810360008301526117a481611768565b9050919050565b7f57726f6e67207175616e74697479000000000000000000000000000000000000600082015250565b60006117e1600e836114f7565b91506117ec826117ab565b602082019050919050565b60006020820190508181036000830152611810816117d4565b9050919050565b7f43616e6e6f74206d696e74206d6f7265207468616e20313020746f6b656e732060008201527f696e206f6e65207472616e73616374696f6e0000000000000000000000000000602082015250565b60006118736032836114f7565b915061187e82611817565b604082019050919050565b600060208201905081810360008301526118a281611866565b9050919050565b6000815190506118b88161148b565b92915050565b6000602082840312156118d4576118d36112e3565b5b60006118e2848285016118a9565b91505092915050565b60006118f6826112af565b9150611901836112af565b9250817fffffffffffffffffffffffffffffffffffffffffffffffffffffffffffffffff048311821515161561193a576119396116ba565b5b828202905092915050565b7f4e6f7420656e6f7567682066756e647300000000000000000000000000000000600082015250565b600061197b6010836114f7565b915061198682611945565b602082019050919050565b600060208201905081810360008301526119aa8161196e565b9050919050565b60006040820190506119c66000830185611435565b6119d360208301846112b9565b9392505050565b6000815190506119e98161145f565b92915050565b600060208284031215611a0557611a046112e3565b5b6000611a13848285016119da565b91505092915050565b7f46756e647320636f756c64206e6f74207472616e736665720000000000000000600082015250565b6000611a526018836114f7565b9150611a5d82611a1c565b602082019050919050565b60006020820190508181036000830152611a8181611a45565b9050919050565b60008160601b9050919050565b6000611aa082611a88565b9050919050565b6000611ab282611a95565b9050919050565b611aca611ac5826113ca565b611aa7565b82525050565b60008160f81b9050919050565b6000611ae882611ad0565b9050919050565b6000611afa82611add565b9050919050565b611b12611b0d82611279565b611aef565b82525050565b6000611b248287611ab9565b601482019150611b348286611ab9565b601482019150611b448285611b01565b600182019150611b548284611b01565b60018201915081905095945050505050565b600081905092915050565b7f19457468657265756d205369676e6564204d6573736167653a0a333200000000600082015250565b6000611ba7601c83611b66565b9150611bb282611b71565b601c82019050919050565b6000819050919050565b611bd8611bd382611321565b611bbd565b82525050565b6000611be982611b9a565b9150611bf58284611bc7565b60208201915081905092915050565b611c0d81611321565b82525050565b611c1c816112e8565b82525050565b6000608082019050611c376000830187611c04565b611c446020830186611c13565b611c516040830185611c04565b611c5e6060830184611c04565b9594505050505056fea2646970667358221220b6b9b0d97d620af18043fb2a77f9ec79279277fcf12703797c40cb2c6e39739164736f6c634300080d0033",
  "immutableReferences": {},
  "source": "// SPDX-License-Identifier: MIT\n\npragma solidity >= 0.8.13;\n\nimport \"./AnastasisAct2.sol\";\nimport \"./FundSplit.sol\";\nimport \"@openzeppelin/contracts/token/ERC721/IERC721.sol\";\nimport \"@openzeppelin/contracts/token/ERC20/IERC20.sol\";\n\ncontract AnastasisOpenEdition {\n\n    uint256 public _holderPrice = 0.015 ether;\n    uint256 public _publicPrice = 0.02 ether;\n    uint256 public _ashPrice = 20*10**18;\n\n    address public _ashAddress= 0x64D91f12Ece7362F91A6f8E7940Cd55F05060b92;\n    address public _fomoverseAddress = 0x74BB71a4210E33256885DEF483fD4227b7f9D88F;\n    address public _anastasisAct2Address= 0x64D91f12Ece7362F91A6f8E7940Cd55F05060b92;\n    address private _fundSplitAddress;\n    address private _signer;\n\n    bool public _mintOpened;\n\n    mapping (address => bool) _isAdmin;\n    mapping (address => uint256) _mintedQuantity;\n    mapping (address => bool) public _biddersHasMinted;\n\n    constructor(){\n        _isAdmin[msg.sender] = true;\n    }\n\n    function setFundSplitAddress(address fundSplitAddress) external {\n        require(_isAdmin[msg.sender]);\n        _fundSplitAddress = fundSplitAddress;\n    }\n\n    function setAshAddress(address ashAddress) external{\n        require(_isAdmin[msg.sender]);\n        _ashAddress = ashAddress;\n    }\n\n    function setFOMOAddress(address FOMOAddress) external{\n        require(_isAdmin[msg.sender]);\n        _fomoverseAddress = FOMOAddress;\n    }\n\n    function setAnastasisAct2Address(address anastasisAct2Address) external{\n        require(_isAdmin[msg.sender]);\n        _anastasisAct2Address = anastasisAct2Address;\n    }\n\n    function toggleAdmin(address newAdmin)external{\n        require(_isAdmin[msg.sender]);\n        _isAdmin[newAdmin] = !_isAdmin[newAdmin];\n    }\n    \n    function toggleMintOpened()external{\n        require(_isAdmin[msg.sender]);\n        _mintOpened = !_mintOpened;\n    }\n\n    function setSigner (address signer) external{\n        require(_isAdmin[msg.sender], \"Only Admins can set signer\");\n        _signer = signer;\n    }\n\n    function mintAllowed( uint8 v, bytes32 r, bytes32 s)internal view returns(bool){\n        return(\n            _signer ==\n                ecrecover(\n                    keccak256(\n                        abi.encodePacked(\n                            \"\\x19Ethereum Signed Message:\\n32\",\n                            keccak256(\n                                abi.encodePacked(\n                                    msg.sender,\n                                    _anastasisAct2Address,\n                                    _mintOpened,\n                                    _biddersHasMinted[msg.sender] // should be false\n                                )\n                            )\n                        )\n                    )\n                , v, r, s)\n        );\n    }\n\n    function mint(bool payInEth, uint256 quantity) external payable{\n        require(_mintOpened, \"Mint closed\");\n        require(quantity > 0, \"Wrong quantity\");\n        require(_mintedQuantity[msg.sender] + quantity <= 30, \"Cannot mint more than 30 tokens\");\n        require(quantity <= 10, \"Cannot mint more than 10 tokens in one transaction\");\n        \n        bool hasDiscount = false;\n        bool success;\n        if(\n            IERC20(_ashAddress).balanceOf(msg.sender) >= 25*10**18 || \n            IERC721(_fomoverseAddress).balanceOf(msg.sender) >= 1\n        ){hasDiscount = true;}\n        if(payInEth){\n            uint256 price = hasDiscount ? _holderPrice : _publicPrice;\n            require(msg.value >= price * quantity, \"Not enough funds\");\n            success = payable(_fundSplitAddress).send(price * quantity);\n        }else{\n            address payable fundSplitContract = payable(address(_fundSplitAddress));\n            success = FundSplit(fundSplitContract).depositAsh(msg.sender, _ashPrice * quantity);\n        }\n        require(success, \"Funds could not transfer\");\n        Anastasis_Act2(_anastasisAct2Address).mint(msg.sender, quantity);\n        _mintedQuantity[msg.sender] += quantity;\n    }\n\n    function getFreeMint(\n        uint8 v,\n        bytes32 r, \n        bytes32 s\n    )external{\n        require(_mintOpened, \"Mint closed\");\n        require(mintAllowed(v, r, s), \"Mint not allowed\");\n        require(_mintedQuantity[msg.sender] < 30,\"Cannot mint more than 30 tokens\");\n        Anastasis_Act2(_anastasisAct2Address).mint(msg.sender, 1);\n        _biddersHasMinted[msg.sender] = true;\n        _mintedQuantity[msg.sender] += 1;\n    }\n\n}",
  "sourcePath": "/Users/bct/Documents/Dev/NFT_dev/Anastasis/contracts/AnastasisAct2Mint.sol",
  "compiler": {
    "name": "solc",
    "version": "0.8.13+commit.abaa5c0e.Emscripten.clang"
  },
  "schemaVersion": "3.4.4",
  "updatedAt": "2022-10-06T13:44:43.108Z",
  "devdoc": {
    "kind": "dev",
    "methods": {},
    "version": 1
  },
  "userdoc": {
    "kind": "user",
    "methods": {},
    "version": 1
  }
}