{
  "contractName": "Anastasis_Act1",
  "abi": [
    {
      "inputs": [],
      "stateMutability": "nonpayable",
      "type": "constructor"
    },
    {
      "anonymous": false,
      "inputs": [
        {
          "indexed": true,
          "internalType": "address",
          "name": "account",
          "type": "address"
        },
        {
          "indexed": true,
          "internalType": "address",
          "name": "sender",
          "type": "address"
        }
      ],
      "name": "AdminApproved",
      "type": "event"
    },
    {
      "anonymous": false,
      "inputs": [
        {
          "indexed": true,
          "internalType": "address",
          "name": "account",
          "type": "address"
        },
        {
          "indexed": true,
          "internalType": "address",
          "name": "sender",
          "type": "address"
        }
      ],
      "name": "AdminRevoked",
      "type": "event"
    },
    {
      "anonymous": false,
      "inputs": [
        {
          "indexed": true,
          "internalType": "address",
          "name": "owner",
          "type": "address"
        },
        {
          "indexed": true,
          "internalType": "address",
          "name": "approved",
          "type": "address"
        },
        {
          "indexed": true,
          "internalType": "uint256",
          "name": "tokenId",
          "type": "uint256"
        }
      ],
      "name": "Approval",
      "type": "event"
    },
    {
      "anonymous": false,
      "inputs": [
        {
          "indexed": true,
          "internalType": "address",
          "name": "owner",
          "type": "address"
        },
        {
          "indexed": true,
          "internalType": "address",
          "name": "operator",
          "type": "address"
        },
        {
          "indexed": false,
          "internalType": "bool",
          "name": "approved",
          "type": "bool"
        }
      ],
      "name": "ApprovalForAll",
      "type": "event"
    },
    {
      "anonymous": false,
      "inputs": [
        {
          "indexed": true,
          "internalType": "address",
          "name": "previousOwner",
          "type": "address"
        },
        {
          "indexed": true,
          "internalType": "address",
          "name": "newOwner",
          "type": "address"
        }
      ],
      "name": "OwnershipTransferred",
      "type": "event"
    },
    {
      "anonymous": false,
      "inputs": [
        {
          "indexed": true,
          "internalType": "address",
          "name": "from",
          "type": "address"
        },
        {
          "indexed": true,
          "internalType": "address",
          "name": "to",
          "type": "address"
        },
        {
          "indexed": true,
          "internalType": "uint256",
          "name": "tokenId",
          "type": "uint256"
        }
      ],
      "name": "Transfer",
      "type": "event"
    },
    {
      "inputs": [
        {
          "internalType": "address",
          "name": "to",
          "type": "address"
        },
        {
          "internalType": "uint256",
          "name": "tokenId",
          "type": "uint256"
        }
      ],
      "name": "approve",
      "outputs": [],
      "stateMutability": "nonpayable",
      "type": "function"
    },
    {
      "inputs": [
        {
          "internalType": "address",
          "name": "admin",
          "type": "address"
        }
      ],
      "name": "approveAdmin",
      "outputs": [],
      "stateMutability": "nonpayable",
      "type": "function"
    },
    {
      "inputs": [
        {
          "internalType": "address",
          "name": "owner",
          "type": "address"
        }
      ],
      "name": "balanceOf",
      "outputs": [
        {
          "internalType": "uint256",
          "name": "",
          "type": "uint256"
        }
      ],
      "stateMutability": "view",
      "type": "function"
    },
    {
      "inputs": [],
      "name": "getAdmins",
      "outputs": [
        {
          "internalType": "address[]",
          "name": "admins",
          "type": "address[]"
        }
      ],
      "stateMutability": "view",
      "type": "function"
    },
    {
      "inputs": [
        {
          "internalType": "uint256",
          "name": "tokenId",
          "type": "uint256"
        }
      ],
      "name": "getApproved",
      "outputs": [
        {
          "internalType": "address",
          "name": "",
          "type": "address"
        }
      ],
      "stateMutability": "view",
      "type": "function"
    },
    {
      "inputs": [
        {
          "internalType": "address",
          "name": "admin",
          "type": "address"
        }
      ],
      "name": "isAdmin",
      "outputs": [
        {
          "internalType": "bool",
          "name": "",
          "type": "bool"
        }
      ],
      "stateMutability": "view",
      "type": "function"
    },
    {
      "inputs": [
        {
          "internalType": "address",
          "name": "owner",
          "type": "address"
        },
        {
          "internalType": "address",
          "name": "operator",
          "type": "address"
        }
      ],
      "name": "isApprovedForAll",
      "outputs": [
        {
          "internalType": "bool",
          "name": "",
          "type": "bool"
        }
      ],
      "stateMutability": "view",
      "type": "function"
    },
    {
      "inputs": [],
      "name": "name",
      "outputs": [
        {
          "internalType": "string",
          "name": "",
          "type": "string"
        }
      ],
      "stateMutability": "view",
      "type": "function"
    },
    {
      "inputs": [],
      "name": "owner",
      "outputs": [
        {
          "internalType": "address",
          "name": "",
          "type": "address"
        }
      ],
      "stateMutability": "view",
      "type": "function"
    },
    {
      "inputs": [
        {
          "internalType": "uint256",
          "name": "tokenId",
          "type": "uint256"
        }
      ],
      "name": "ownerOf",
      "outputs": [
        {
          "internalType": "address",
          "name": "",
          "type": "address"
        }
      ],
      "stateMutability": "view",
      "type": "function"
    },
    {
      "inputs": [],
      "name": "renounceOwnership",
      "outputs": [],
      "stateMutability": "nonpayable",
      "type": "function"
    },
    {
      "inputs": [
        {
          "internalType": "address",
          "name": "admin",
          "type": "address"
        }
      ],
      "name": "revokeAdmin",
      "outputs": [],
      "stateMutability": "nonpayable",
      "type": "function"
    },
    {
      "inputs": [
        {
          "internalType": "address",
          "name": "from",
          "type": "address"
        },
        {
          "internalType": "address",
          "name": "to",
          "type": "address"
        },
        {
          "internalType": "uint256",
          "name": "tokenId",
          "type": "uint256"
        }
      ],
      "name": "safeTransferFrom",
      "outputs": [],
      "stateMutability": "nonpayable",
      "type": "function"
    },
    {
      "inputs": [
        {
          "internalType": "address",
          "name": "from",
          "type": "address"
        },
        {
          "internalType": "address",
          "name": "to",
          "type": "address"
        },
        {
          "internalType": "uint256",
          "name": "tokenId",
          "type": "uint256"
        },
        {
          "internalType": "bytes",
          "name": "data",
          "type": "bytes"
        }
      ],
      "name": "safeTransferFrom",
      "outputs": [],
      "stateMutability": "nonpayable",
      "type": "function"
    },
    {
      "inputs": [
        {
          "internalType": "address",
          "name": "operator",
          "type": "address"
        },
        {
          "internalType": "bool",
          "name": "approved",
          "type": "bool"
        }
      ],
      "name": "setApprovalForAll",
      "outputs": [],
      "stateMutability": "nonpayable",
      "type": "function"
    },
    {
      "inputs": [],
      "name": "symbol",
      "outputs": [
        {
          "internalType": "string",
          "name": "",
          "type": "string"
        }
      ],
      "stateMutability": "view",
      "type": "function"
    },
    {
      "inputs": [
        {
          "internalType": "address",
          "name": "from",
          "type": "address"
        },
        {
          "internalType": "address",
          "name": "to",
          "type": "address"
        },
        {
          "internalType": "uint256",
          "name": "tokenId",
          "type": "uint256"
        }
      ],
      "name": "transferFrom",
      "outputs": [],
      "stateMutability": "nonpayable",
      "type": "function"
    },
    {
      "inputs": [
        {
          "internalType": "address",
          "name": "newOwner",
          "type": "address"
        }
      ],
      "name": "transferOwnership",
      "outputs": [],
      "stateMutability": "nonpayable",
      "type": "function"
    },
    {
      "inputs": [
        {
          "internalType": "bytes4",
          "name": "interfaceId",
          "type": "bytes4"
        }
      ],
      "name": "supportsInterface",
      "outputs": [
        {
          "internalType": "bool",
          "name": "",
          "type": "bool"
        }
      ],
      "stateMutability": "view",
      "type": "function"
    },
    {
      "inputs": [
        {
          "internalType": "address",
          "name": "to",
          "type": "address"
        }
      ],
      "name": "mint",
      "outputs": [],
      "stateMutability": "nonpayable",
      "type": "function"
    },
    {
      "inputs": [
        {
          "internalType": "uint256",
          "name": "tokenId",
          "type": "uint256"
        }
      ],
      "name": "burn",
      "outputs": [],
      "stateMutability": "nonpayable",
      "type": "function"
    },
    {
      "inputs": [
        {
          "internalType": "uint256",
          "name": "urisNumber",
          "type": "uint256"
        },
        {
          "internalType": "string",
          "name": "updatedURI",
          "type": "string"
        }
      ],
      "name": "setURI",
      "outputs": [],
      "stateMutability": "nonpayable",
      "type": "function"
    },
    {
      "inputs": [
        {
          "internalType": "uint256",
          "name": "tokenId",
          "type": "uint256"
        }
      ],
      "name": "tokenURI",
      "outputs": [
        {
          "internalType": "string",
          "name": "",
          "type": "string"
        }
      ],
      "stateMutability": "view",
      "type": "function"
    },
    {
      "inputs": [
        {
          "internalType": "address payable",
          "name": "_recipient",
          "type": "address"
        },
        {
          "internalType": "uint256",
          "name": "_royaltyPerCent",
          "type": "uint256"
        }
      ],
      "name": "setRoyalties",
      "outputs": [],
      "stateMutability": "nonpayable",
      "type": "function"
    },
    {
      "inputs": [
        {
          "internalType": "uint256",
          "name": "salePrice",
          "type": "uint256"
        }
      ],
      "name": "royaltyInfo",
      "outputs": [
        {
          "internalType": "address",
          "name": "",
          "type": "address"
        },
        {
          "internalType": "uint256",
          "name": "",
          "type": "uint256"
        }
      ],
      "stateMutability": "view",
      "type": "function"
    },
    {
      "inputs": [
        {
          "internalType": "address",
          "name": "recipient",
          "type": "address"
        }
      ],
      "name": "withdraw",
      "outputs": [],
      "stateMutability": "nonpayable",
      "type": "function"
    }
  ],
  "bytecode": "0x60806040523480156200001157600080fd5b506040518060400160405280601481526020017f662d3120416e61737461736973202d20416374310000000000000000000000008152506040518060400160405280600781526020017f662d3120414131000000000000000000000000000000000000000000000000008152506200009e620000926200012060201b60201c565b6200012860201b60201c565b8160019080519060200190620000b6929190620001ec565b508060029080519060200190620000cf929190620001ec565b50505033600960006101000a81548173ffffffffffffffffffffffffffffffffffffffff021916908373ffffffffffffffffffffffffffffffffffffffff160217905550600a808190555062000300565b600033905090565b60008060009054906101000a900473ffffffffffffffffffffffffffffffffffffffff169050816000806101000a81548173ffffffffffffffffffffffffffffffffffffffff021916908373ffffffffffffffffffffffffffffffffffffffff1602179055508173ffffffffffffffffffffffffffffffffffffffff168173ffffffffffffffffffffffffffffffffffffffff167f8be0079c531659141344cd1fd0a4f28419497f9722a3daafe3b4186f6b6457e060405160405180910390a35050565b828054620001fa90620002cb565b90600052602060002090601f0160209004810192826200021e57600085556200026a565b82601f106200023957805160ff19168380011785556200026a565b828001600101855582156200026a579182015b82811115620002695782518255916020019190600101906200024c565b5b5090506200027991906200027d565b5090565b5b80821115620002985760008160009055506001016200027e565b5090565b7f4e487b7100000000000000000000000000000000000000000000000000000000600052602260045260246000fd5b60006002820490506001821680620002e457607f821691505b602082108103620002fa57620002f96200029c565b5b50919050565b613bc880620003106000396000f3fe608060405234801561001057600080fd5b506004361061018e5760003560e01c80636d73e669116100de57806395d89b4111610097578063c87b56dd11610071578063c87b56dd14610455578063cef6d36814610485578063e985e9c5146104b6578063f2fde38b146104e65761018e565b806395d89b41146103ff578063a22cb4651461041d578063b88d4fde146104395761018e565b80636d73e6691461035357806370a082311461036f578063715018a61461039f578063862440e2146103a95780638c7ea24b146103c55780638da5cb5b146103e15761018e565b80632d3456701161014b57806342966c681161012557806342966c68146102cf57806351cff8d9146102eb5780636352211e146103075780636a627842146103375761018e565b80632d3456701461027957806331ae450b1461029557806342842e0e146102b35761018e565b806301ffc9a71461019357806306fdde03146101c3578063081812fc146101e1578063095ea7b31461021157806323b872dd1461022d57806324d7806c14610249575b600080fd5b6101ad60048036038101906101a8919061264e565b610502565b6040516101ba9190612696565b60405180910390f35b6101cb61059c565b6040516101d8919061274a565b60405180910390f35b6101fb60048036038101906101f691906127a2565b61062e565b6040516102089190612810565b60405180910390f35b61022b60048036038101906102269190612857565b610674565b005b61024760048036038101906102429190612897565b61078b565b005b610263600480360381019061025e91906128ea565b6107eb565b6040516102709190612696565b60405180910390f35b610293600480360381019061028e91906128ea565b610845565b005b61029d6108d9565b6040516102aa91906129d5565b60405180910390f35b6102cd60048036038101906102c89190612897565b6109bb565b005b6102e960048036038101906102e491906127a2565b6109db565b005b610305600480360381019061030091906128ea565b610a63565b005b610321600480360381019061031c91906127a2565b610b3d565b60405161032e9190612810565b60405180910390f35b610351600480360381019061034c91906128ea565b610bee565b005b61036d600480360381019061036891906128ea565b610cd6565b005b610389600480360381019061038491906128ea565b610d69565b6040516103969190612a06565b60405180910390f35b6103a7610e20565b005b6103c360048036038101906103be9190612a86565b610e34565b005b6103df60048036038101906103da9190612b24565b610ee2565b005b6103e9610fbe565b6040516103f69190612810565b60405180910390f35b610407610fe7565b604051610414919061274a565b60405180910390f35b61043760048036038101906104329190612b90565b611079565b005b610453600480360381019061044e9190612d00565b61108f565b005b61046f600480360381019061046a91906127a2565b6110f1565b60405161047c919061274a565b60405180910390f35b61049f600480360381019061049a91906127a2565b61118d565b6040516104ad929190612d83565b60405180910390f35b6104d060048036038101906104cb9190612dac565b611239565b6040516104dd9190612696565b60405180910390f35b61050060048036038101906104fb91906128ea565b6112cd565b005b600061050d82611350565b8061051d575061051c826113ca565b5b8061058557507f2a55205a000000000000000000000000000000000000000000000000000000007bffffffffffffffffffffffffffffffffffffffffffffffffffffffff1916827bffffffffffffffffffffffffffffffffffffffffffffffffffffffff1916145b80610595575061059482611350565b5b9050919050565b6060600180546105ab90612e1b565b80601f01602080910402602001604051908101604052809291908181526020018280546105d790612e1b565b80156106245780601f106105f957610100808354040283529160200191610624565b820191906000526020600020905b81548152906001019060200180831161060757829003601f168201915b5050505050905090565b6000610639826114ac565b6005600083815260200190815260200160002060009054906101000a900473ffffffffffffffffffffffffffffffffffffffff169050919050565b600061067f82610b3d565b90508073ffffffffffffffffffffffffffffffffffffffff168373ffffffffffffffffffffffffffffffffffffffff16036106ef576040517f08c379a00000000000000000000000000000000000000000000000000000000081526004016106e690612ebe565b60405180910390fd5b8073ffffffffffffffffffffffffffffffffffffffff1661070e6114f7565b73ffffffffffffffffffffffffffffffffffffffff16148061073d575061073c816107376114f7565b611239565b5b61077c576040517f08c379a000000000000000000000000000000000000000000000000000000000815260040161077390612f50565b60405180910390fd5b61078683836114ff565b505050565b61079c6107966114f7565b826115b8565b6107db576040517f08c379a00000000000000000000000000000000000000000000000000000000081526004016107d290612fe2565b60405180910390fd5b6107e683838361164d565b505050565b60008173ffffffffffffffffffffffffffffffffffffffff1661080c610fbe565b73ffffffffffffffffffffffffffffffffffffffff16148061083e575061083d8260076118b390919063ffffffff16565b5b9050919050565b61084d6118e3565b6108618160076118b390919063ffffffff16565b156108d6573373ffffffffffffffffffffffffffffffffffffffff168173ffffffffffffffffffffffffffffffffffffffff167f7c0c3c84c67c85fcac635147348bfe374c24a1a93d0366d1cfe9d8853cbf89d560405160405180910390a36108d481600761196190919063ffffffff16565b505b50565b60606108e56007611991565b67ffffffffffffffff8111156108fe576108fd612bd5565b5b60405190808252806020026020018201604052801561092c5781602001602082028036833780820191505090505b50905060005b61093c6007611991565b8110156109b7576109578160076119a690919063ffffffff16565b82828151811061096a57610969613002565b5b602002602001019073ffffffffffffffffffffffffffffffffffffffff16908173ffffffffffffffffffffffffffffffffffffffff168152505080806109af90613060565b915050610932565b5090565b6109d68383836040518060200160405280600081525061108f565b505050565b60006109e682610b3d565b90508073ffffffffffffffffffffffffffffffffffffffff163373ffffffffffffffffffffffffffffffffffffffff1614610a56576040517f08c379a0000000000000000000000000000000000000000000000000000000008152600401610a4d906130f4565b60405180910390fd5b610a5f826119c0565b5050565b3373ffffffffffffffffffffffffffffffffffffffff16610a82610fbe565b73ffffffffffffffffffffffffffffffffffffffff161480610ab45750610ab33360076118b390919063ffffffff16565b5b610af3576040517f08c379a0000000000000000000000000000000000000000000000000000000008152600401610aea90613186565b60405180910390fd5b8073ffffffffffffffffffffffffffffffffffffffff166108fc479081150290604051600060405180830381858888f19350505050158015610b39573d6000803e3d6000fd5b5050565b6000806003600084815260200190815260200160002060009054906101000a900473ffffffffffffffffffffffffffffffffffffffff169050600073ffffffffffffffffffffffffffffffffffffffff168173ffffffffffffffffffffffffffffffffffffffff1603610be5576040517f08c379a0000000000000000000000000000000000000000000000000000000008152600401610bdc906131f2565b60405180910390fd5b80915050919050565b3373ffffffffffffffffffffffffffffffffffffffff16610c0d610fbe565b73ffffffffffffffffffffffffffffffffffffffff161480610c3f5750610c3e3360076118b390919063ffffffff16565b5b610c7e576040517f08c379a0000000000000000000000000000000000000000000000000000000008152600401610c7590613186565b60405180910390fd5b610c886001611add565b15610cc8576040517f08c379a0000000000000000000000000000000000000000000000000000000008152600401610cbf90613284565b60405180910390fd5b610cd3816001611b49565b50565b610cde6118e3565b610cf28160076118b390919063ffffffff16565b610d66573373ffffffffffffffffffffffffffffffffffffffff168173ffffffffffffffffffffffffffffffffffffffff167f7e1a1a08d52e4ba0e21554733d66165fd5151f99460116223d9e3a608eec5cb160405160405180910390a3610d64816007611d2290919063ffffffff16565b505b50565b60008073ffffffffffffffffffffffffffffffffffffffff168273ffffffffffffffffffffffffffffffffffffffff1603610dd9576040517f08c379a0000000000000000000000000000000000000000000000000000000008152600401610dd090613316565b60405180910390fd5b600460008373ffffffffffffffffffffffffffffffffffffffff1673ffffffffffffffffffffffffffffffffffffffff168152602001908152602001600020549050919050565b610e286118e3565b610e326000611d52565b565b3373ffffffffffffffffffffffffffffffffffffffff16610e53610fbe565b73ffffffffffffffffffffffffffffffffffffffff161480610e855750610e843360076118b390919063ffffffff16565b5b610ec4576040517f08c379a0000000000000000000000000000000000000000000000000000000008152600401610ebb90613186565b60405180910390fd5b82600b819055508181600c9190610edc92919061253f565b50505050565b3373ffffffffffffffffffffffffffffffffffffffff16610f01610fbe565b73ffffffffffffffffffffffffffffffffffffffff161480610f335750610f323360076118b390919063ffffffff16565b5b610f72576040517f08c379a0000000000000000000000000000000000000000000000000000000008152600401610f6990613186565b60405180910390fd5b81600960006101000a81548173ffffffffffffffffffffffffffffffffffffffff021916908373ffffffffffffffffffffffffffffffffffffffff16021790555080600a819055505050565b60008060009054906101000a900473ffffffffffffffffffffffffffffffffffffffff16905090565b606060028054610ff690612e1b565b80601f016020809104026020016040519081016040528092919081815260200182805461102290612e1b565b801561106f5780601f106110445761010080835404028352916020019161106f565b820191906000526020600020905b81548152906001019060200180831161105257829003601f168201915b5050505050905090565b61108b6110846114f7565b8383611e16565b5050565b6110a061109a6114f7565b836115b8565b6110df576040517f08c379a00000000000000000000000000000000000000000000000000000000081526004016110d690612fe2565b60405180910390fd5b6110eb84848484611f82565b50505050565b60606110fc82611add565b61113b576040517f08c379a0000000000000000000000000000000000000000000000000000000008152600401611132906133a8565b60405180910390fd5b6000600b546109604361114e91906133f7565b6111589190613428565b9050600c61116582611fde565b604051602001611176929190613575565b604051602081830303815290604052915050919050565b600080600073ffffffffffffffffffffffffffffffffffffffff16600960009054906101000a900473ffffffffffffffffffffffffffffffffffffffff1673ffffffffffffffffffffffffffffffffffffffff161461122c57600960009054906101000a900473ffffffffffffffffffffffffffffffffffffffff166064600a548561121991906135a4565b61122391906133f7565b91509150611234565b600080915091505b915091565b6000600660008473ffffffffffffffffffffffffffffffffffffffff1673ffffffffffffffffffffffffffffffffffffffff16815260200190815260200160002060008373ffffffffffffffffffffffffffffffffffffffff1673ffffffffffffffffffffffffffffffffffffffff16815260200190815260200160002060009054906101000a900460ff16905092915050565b6112d56118e3565b600073ffffffffffffffffffffffffffffffffffffffff168173ffffffffffffffffffffffffffffffffffffffff1603611344576040517f08c379a000000000000000000000000000000000000000000000000000000000815260040161133b90613670565b60405180910390fd5b61134d81611d52565b50565b60007f553e757e000000000000000000000000000000000000000000000000000000007bffffffffffffffffffffffffffffffffffffffffffffffffffffffff1916827bffffffffffffffffffffffffffffffffffffffffffffffffffffffff191614806113c357506113c2826113ca565b5b9050919050565b60007f80ac58cd000000000000000000000000000000000000000000000000000000007bffffffffffffffffffffffffffffffffffffffffffffffffffffffff1916827bffffffffffffffffffffffffffffffffffffffffffffffffffffffff1916148061149557507f5b5e139f000000000000000000000000000000000000000000000000000000007bffffffffffffffffffffffffffffffffffffffffffffffffffffffff1916827bffffffffffffffffffffffffffffffffffffffffffffffffffffffff1916145b806114a557506114a48261213e565b5b9050919050565b6114b581611add565b6114f4576040517f08c379a00000000000000000000000000000000000000000000000000000000081526004016114eb906131f2565b60405180910390fd5b50565b600033905090565b816005600083815260200190815260200160002060006101000a81548173ffffffffffffffffffffffffffffffffffffffff021916908373ffffffffffffffffffffffffffffffffffffffff160217905550808273ffffffffffffffffffffffffffffffffffffffff1661157283610b3d565b73ffffffffffffffffffffffffffffffffffffffff167f8c5be1e5ebec7d5bd14f71427d1e84f3dd0314c0f7b2291e5b200ac8c7c3b92560405160405180910390a45050565b6000806115c483610b3d565b90508073ffffffffffffffffffffffffffffffffffffffff168473ffffffffffffffffffffffffffffffffffffffff16148061160657506116058185611239565b5b8061164457508373ffffffffffffffffffffffffffffffffffffffff1661162c8461062e565b73ffffffffffffffffffffffffffffffffffffffff16145b91505092915050565b8273ffffffffffffffffffffffffffffffffffffffff1661166d82610b3d565b73ffffffffffffffffffffffffffffffffffffffff16146116c3576040517f08c379a00000000000000000000000000000000000000000000000000000000081526004016116ba90613702565b60405180910390fd5b600073ffffffffffffffffffffffffffffffffffffffff168273ffffffffffffffffffffffffffffffffffffffff1603611732576040517f08c379a000000000000000000000000000000000000000000000000000000000815260040161172990613794565b60405180910390fd5b61173d8383836121a8565b6117486000826114ff565b6001600460008573ffffffffffffffffffffffffffffffffffffffff1673ffffffffffffffffffffffffffffffffffffffff168152602001908152602001600020600082825461179891906137b4565b925050819055506001600460008473ffffffffffffffffffffffffffffffffffffffff1673ffffffffffffffffffffffffffffffffffffffff16815260200190815260200160002060008282546117ef91906137e8565b92505081905550816003600083815260200190815260200160002060006101000a81548173ffffffffffffffffffffffffffffffffffffffff021916908373ffffffffffffffffffffffffffffffffffffffff160217905550808273ffffffffffffffffffffffffffffffffffffffff168473ffffffffffffffffffffffffffffffffffffffff167fddf252ad1be2c89b69c2b068fc378daa952ba7f163c4a11628f55a4df523b3ef60405160405180910390a46118ae8383836121ad565b505050565b60006118db836000018373ffffffffffffffffffffffffffffffffffffffff1660001b6121b2565b905092915050565b6118eb6114f7565b73ffffffffffffffffffffffffffffffffffffffff16611909610fbe565b73ffffffffffffffffffffffffffffffffffffffff161461195f576040517f08c379a00000000000000000000000000000000000000000000000000000000081526004016119569061388a565b60405180910390fd5b565b6000611989836000018373ffffffffffffffffffffffffffffffffffffffff1660001b6121d5565b905092915050565b600061199f826000016122e9565b9050919050565b60006119b583600001836122fa565b60001c905092915050565b60006119cb82610b3d565b90506119d9816000846121a8565b6119e46000836114ff565b6001600460008373ffffffffffffffffffffffffffffffffffffffff1673ffffffffffffffffffffffffffffffffffffffff1681526020019081526020016000206000828254611a3491906137b4565b925050819055506003600083815260200190815260200160002060006101000a81549073ffffffffffffffffffffffffffffffffffffffff021916905581600073ffffffffffffffffffffffffffffffffffffffff168273ffffffffffffffffffffffffffffffffffffffff167fddf252ad1be2c89b69c2b068fc378daa952ba7f163c4a11628f55a4df523b3ef60405160405180910390a4611ad9816000846121ad565b5050565b60008073ffffffffffffffffffffffffffffffffffffffff166003600084815260200190815260200160002060009054906101000a900473ffffffffffffffffffffffffffffffffffffffff1673ffffffffffffffffffffffffffffffffffffffff1614159050919050565b600073ffffffffffffffffffffffffffffffffffffffff168273ffffffffffffffffffffffffffffffffffffffff1603611bb8576040517f08c379a0000000000000000000000000000000000000000000000000000000008152600401611baf906138f6565b60405180910390fd5b611bc181611add565b15611c01576040517f08c379a0000000000000000000000000000000000000000000000000000000008152600401611bf890613962565b60405180910390fd5b611c0d600083836121a8565b6001600460008473ffffffffffffffffffffffffffffffffffffffff1673ffffffffffffffffffffffffffffffffffffffff1681526020019081526020016000206000828254611c5d91906137e8565b92505081905550816003600083815260200190815260200160002060006101000a81548173ffffffffffffffffffffffffffffffffffffffff021916908373ffffffffffffffffffffffffffffffffffffffff160217905550808273ffffffffffffffffffffffffffffffffffffffff16600073ffffffffffffffffffffffffffffffffffffffff167fddf252ad1be2c89b69c2b068fc378daa952ba7f163c4a11628f55a4df523b3ef60405160405180910390a4611d1e600083836121ad565b5050565b6000611d4a836000018373ffffffffffffffffffffffffffffffffffffffff1660001b612325565b905092915050565b60008060009054906101000a900473ffffffffffffffffffffffffffffffffffffffff169050816000806101000a81548173ffffffffffffffffffffffffffffffffffffffff021916908373ffffffffffffffffffffffffffffffffffffffff1602179055508173ffffffffffffffffffffffffffffffffffffffff168173ffffffffffffffffffffffffffffffffffffffff167f8be0079c531659141344cd1fd0a4f28419497f9722a3daafe3b4186f6b6457e060405160405180910390a35050565b8173ffffffffffffffffffffffffffffffffffffffff168373ffffffffffffffffffffffffffffffffffffffff1603611e84576040517f08c379a0000000000000000000000000000000000000000000000000000000008152600401611e7b906139ce565b60405180910390fd5b80600660008573ffffffffffffffffffffffffffffffffffffffff1673ffffffffffffffffffffffffffffffffffffffff16815260200190815260200160002060008473ffffffffffffffffffffffffffffffffffffffff1673ffffffffffffffffffffffffffffffffffffffff16815260200190815260200160002060006101000a81548160ff0219169083151502179055508173ffffffffffffffffffffffffffffffffffffffff168373ffffffffffffffffffffffffffffffffffffffff167f17307eab39ab6107e8899845ad3d59bd9653f200f220920489ca2b5937696c3183604051611f759190612696565b60405180910390a3505050565b611f8d84848461164d565b611f9984848484612395565b611fd8576040517f08c379a0000000000000000000000000000000000000000000000000000000008152600401611fcf90613a60565b60405180910390fd5b50505050565b606060008203612025576040518060400160405280600181526020017f30000000000000000000000000000000000000000000000000000000000000008152509050612139565b600082905060005b6000821461205757808061204090613060565b915050600a8261205091906133f7565b915061202d565b60008167ffffffffffffffff81111561207357612072612bd5565b5b6040519080825280601f01601f1916602001820160405280156120a55781602001600182028036833780820191505090505b5090505b60008514612132576001826120be91906137b4565b9150600a856120cd9190613428565b60306120d991906137e8565b60f81b8183815181106120ef576120ee613002565b5b60200101907effffffffffffffffffffffffffffffffffffffffffffffffffffffffffffff1916908160001a905350600a8561212b91906133f7565b94506120a9565b8093505050505b919050565b60007f01ffc9a7000000000000000000000000000000000000000000000000000000007bffffffffffffffffffffffffffffffffffffffffffffffffffffffff1916827bffffffffffffffffffffffffffffffffffffffffffffffffffffffff1916149050919050565b505050565b505050565b600080836001016000848152602001908152602001600020541415905092915050565b600080836001016000848152602001908152602001600020549050600081146122dd57600060018261220791906137b4565b905060006001866000018054905061221f91906137b4565b905081811461228e5760008660000182815481106122405761223f613002565b5b906000526020600020015490508087600001848154811061226457612263613002565b5b90600052602060002001819055508387600101600083815260200190815260200160002081905550505b856000018054806122a2576122a1613a80565b5b6001900381819060005260206000200160009055905585600101600086815260200190815260200160002060009055600193505050506122e3565b60009150505b92915050565b600081600001805490509050919050565b600082600001828154811061231257612311613002565b5b9060005260206000200154905092915050565b600061233183836121b2565b61238a57826000018290806001815401808255809150506001900390600052602060002001600090919091909150558260000180549050836001016000848152602001908152602001600020819055506001905061238f565b600090505b92915050565b60006123b68473ffffffffffffffffffffffffffffffffffffffff1661251c565b1561250f578373ffffffffffffffffffffffffffffffffffffffff1663150b7a026123df6114f7565b8786866040518563ffffffff1660e01b81526004016124019493929190613b04565b6020604051808303816000875af192505050801561243d57506040513d601f19601f8201168201806040525081019061243a9190613b65565b60015b6124bf573d806000811461246d576040519150601f19603f3d011682016040523d82523d6000602084013e612472565b606091505b5060008151036124b7576040517f08c379a00000000000000000000000000000000000000000000000000000000081526004016124ae90613a60565b60405180910390fd5b805181602001fd5b63150b7a0260e01b7bffffffffffffffffffffffffffffffffffffffffffffffffffffffff1916817bffffffffffffffffffffffffffffffffffffffffffffffffffffffff191614915050612514565b600190505b949350505050565b6000808273ffffffffffffffffffffffffffffffffffffffff163b119050919050565b82805461254b90612e1b565b90600052602060002090601f01602090048101928261256d57600085556125b4565b82601f1061258657803560ff19168380011785556125b4565b828001600101855582156125b4579182015b828111156125b3578235825591602001919060010190612598565b5b5090506125c191906125c5565b5090565b5b808211156125de5760008160009055506001016125c6565b5090565b6000604051905090565b600080fd5b600080fd5b60007fffffffff0000000000000000000000000000000000000000000000000000000082169050919050565b61262b816125f6565b811461263657600080fd5b50565b60008135905061264881612622565b92915050565b600060208284031215612664576126636125ec565b5b600061267284828501612639565b91505092915050565b60008115159050919050565b6126908161267b565b82525050565b60006020820190506126ab6000830184612687565b92915050565b600081519050919050565b600082825260208201905092915050565b60005b838110156126eb5780820151818401526020810190506126d0565b838111156126fa576000848401525b50505050565b6000601f19601f8301169050919050565b600061271c826126b1565b61272681856126bc565b93506127368185602086016126cd565b61273f81612700565b840191505092915050565b600060208201905081810360008301526127648184612711565b905092915050565b6000819050919050565b61277f8161276c565b811461278a57600080fd5b50565b60008135905061279c81612776565b92915050565b6000602082840312156127b8576127b76125ec565b5b60006127c68482850161278d565b91505092915050565b600073ffffffffffffffffffffffffffffffffffffffff82169050919050565b60006127fa826127cf565b9050919050565b61280a816127ef565b82525050565b60006020820190506128256000830184612801565b92915050565b612834816127ef565b811461283f57600080fd5b50565b6000813590506128518161282b565b92915050565b6000806040838503121561286e5761286d6125ec565b5b600061287c85828601612842565b925050602061288d8582860161278d565b9150509250929050565b6000806000606084860312156128b0576128af6125ec565b5b60006128be86828701612842565b93505060206128cf86828701612842565b92505060406128e08682870161278d565b9150509250925092565b600060208284031215612900576128ff6125ec565b5b600061290e84828501612842565b91505092915050565b600081519050919050565b600082825260208201905092915050565b6000819050602082019050919050565b61294c816127ef565b82525050565b600061295e8383612943565b60208301905092915050565b6000602082019050919050565b600061298282612917565b61298c8185612922565b935061299783612933565b8060005b838110156129c85781516129af8882612952565b97506129ba8361296a565b92505060018101905061299b565b5085935050505092915050565b600060208201905081810360008301526129ef8184612977565b905092915050565b612a008161276c565b82525050565b6000602082019050612a1b60008301846129f7565b92915050565b600080fd5b600080fd5b600080fd5b60008083601f840112612a4657612a45612a21565b5b8235905067ffffffffffffffff811115612a6357612a62612a26565b5b602083019150836001820283011115612a7f57612a7e612a2b565b5b9250929050565b600080600060408486031215612a9f57612a9e6125ec565b5b6000612aad8682870161278d565b935050602084013567ffffffffffffffff811115612ace57612acd6125f1565b5b612ada86828701612a30565b92509250509250925092565b6000612af1826127cf565b9050919050565b612b0181612ae6565b8114612b0c57600080fd5b50565b600081359050612b1e81612af8565b92915050565b60008060408385031215612b3b57612b3a6125ec565b5b6000612b4985828601612b0f565b9250506020612b5a8582860161278d565b9150509250929050565b612b6d8161267b565b8114612b7857600080fd5b50565b600081359050612b8a81612b64565b92915050565b60008060408385031215612ba757612ba66125ec565b5b6000612bb585828601612842565b9250506020612bc685828601612b7b565b9150509250929050565b600080fd5b7f4e487b7100000000000000000000000000000000000000000000000000000000600052604160045260246000fd5b612c0d82612700565b810181811067ffffffffffffffff82111715612c2c57612c2b612bd5565b5b80604052505050565b6000612c3f6125e2565b9050612c4b8282612c04565b919050565b600067ffffffffffffffff821115612c6b57612c6a612bd5565b5b612c7482612700565b9050602081019050919050565b82818337600083830152505050565b6000612ca3612c9e84612c50565b612c35565b905082815260208101848484011115612cbf57612cbe612bd0565b5b612cca848285612c81565b509392505050565b600082601f830112612ce757612ce6612a21565b5b8135612cf7848260208601612c90565b91505092915050565b60008060008060808587031215612d1a57612d196125ec565b5b6000612d2887828801612842565b9450506020612d3987828801612842565b9350506040612d4a8782880161278d565b925050606085013567ffffffffffffffff811115612d6b57612d6a6125f1565b5b612d7787828801612cd2565b91505092959194509250565b6000604082019050612d986000830185612801565b612da560208301846129f7565b9392505050565b60008060408385031215612dc357612dc26125ec565b5b6000612dd185828601612842565b9250506020612de285828601612842565b9150509250929050565b7f4e487b7100000000000000000000000000000000000000000000000000000000600052602260045260246000fd5b60006002820490506001821680612e3357607f821691505b602082108103612e4657612e45612dec565b5b50919050565b7f4552433732313a20617070726f76616c20746f2063757272656e74206f776e6560008201527f7200000000000000000000000000000000000000000000000000000000000000602082015250565b6000612ea86021836126bc565b9150612eb382612e4c565b604082019050919050565b60006020820190508181036000830152612ed781612e9b565b9050919050565b7f4552433732313a20617070726f76652063616c6c6572206973206e6f7420746f60008201527f6b656e206f776e6572206e6f7220617070726f76656420666f7220616c6c0000602082015250565b6000612f3a603e836126bc565b9150612f4582612ede565b604082019050919050565b60006020820190508181036000830152612f6981612f2d565b9050919050565b7f4552433732313a2063616c6c6572206973206e6f7420746f6b656e206f776e6560008201527f72206e6f7220617070726f766564000000000000000000000000000000000000602082015250565b6000612fcc602e836126bc565b9150612fd782612f70565b604082019050919050565b60006020820190508181036000830152612ffb81612fbf565b9050919050565b7f4e487b7100000000000000000000000000000000000000000000000000000000600052603260045260246000fd5b7f4e487b7100000000000000000000000000000000000000000000000000000000600052601160045260246000fd5b600061306b8261276c565b91507fffffffffffffffffffffffffffffffffffffffffffffffffffffffffffffffff820361309d5761309c613031565b5b600182019050919050565b7f4f776e6572206f6e6c7900000000000000000000000000000000000000000000600082015250565b60006130de600a836126bc565b91506130e9826130a8565b602082019050919050565b6000602082019050818103600083015261310d816130d1565b9050919050565b7f41646d696e436f6e74726f6c3a204d757374206265206f776e6572206f72206160008201527f646d696e00000000000000000000000000000000000000000000000000000000602082015250565b60006131706024836126bc565b915061317b82613114565b604082019050919050565b6000602082019050818103600083015261319f81613163565b9050919050565b7f4552433732313a20696e76616c696420746f6b656e2049440000000000000000600082015250565b60006131dc6018836126bc565b91506131e7826131a6565b602082019050919050565b6000602082019050818103600083015261320b816131cf565b9050919050565b7f4f6e6c79203120746f6b656e2063616e2062652063726561746564207769746860008201527f207468697320636f6e7472616374000000000000000000000000000000000000602082015250565b600061326e602e836126bc565b915061327982613212565b604082019050919050565b6000602082019050818103600083015261329d81613261565b9050919050565b7f4552433732313a2061646472657373207a65726f206973206e6f74206120766160008201527f6c6964206f776e65720000000000000000000000000000000000000000000000602082015250565b60006133006029836126bc565b915061330b826132a4565b604082019050919050565b6000602082019050818103600083015261332f816132f3565b9050919050565b7f4552433732314d657461646174613a2055524920717565727920666f72206e6f60008201527f6e6578697374656e7420746f6b656e0000000000000000000000000000000000602082015250565b6000613392602f836126bc565b915061339d82613336565b604082019050919050565b600060208201905081810360008301526133c181613385565b9050919050565b7f4e487b7100000000000000000000000000000000000000000000000000000000600052601260045260246000fd5b60006134028261276c565b915061340d8361276c565b92508261341d5761341c6133c8565b5b828204905092915050565b60006134338261276c565b915061343e8361276c565b92508261344e5761344d6133c8565b5b828206905092915050565b600081905092915050565b60008190508160005260206000209050919050565b6000815461348681612e1b565b6134908186613459565b945060018216600081146134ab57600181146134bc576134ef565b60ff198316865281860193506134ef565b6134c585613464565b60005b838110156134e7578154818901526001820191506020810190506134c8565b838801955050505b50505092915050565b6000613503826126b1565b61350d8185613459565b935061351d8185602086016126cd565b80840191505092915050565b7f2e6a736f6e000000000000000000000000000000000000000000000000000000600082015250565b600061355f600583613459565b915061356a82613529565b600582019050919050565b60006135818285613479565b915061358d82846134f8565b915061359882613552565b91508190509392505050565b60006135af8261276c565b91506135ba8361276c565b9250817fffffffffffffffffffffffffffffffffffffffffffffffffffffffffffffffff04831182151516156135f3576135f2613031565b5b828202905092915050565b7f4f776e61626c653a206e6577206f776e657220697320746865207a65726f206160008201527f6464726573730000000000000000000000000000000000000000000000000000602082015250565b600061365a6026836126bc565b9150613665826135fe565b604082019050919050565b600060208201905081810360008301526136898161364d565b9050919050565b7f4552433732313a207472616e736665722066726f6d20696e636f72726563742060008201527f6f776e6572000000000000000000000000000000000000000000000000000000602082015250565b60006136ec6025836126bc565b91506136f782613690565b604082019050919050565b6000602082019050818103600083015261371b816136df565b9050919050565b7f4552433732313a207472616e7366657220746f20746865207a65726f2061646460008201527f7265737300000000000000000000000000000000000000000000000000000000602082015250565b600061377e6024836126bc565b915061378982613722565b604082019050919050565b600060208201905081810360008301526137ad81613771565b9050919050565b60006137bf8261276c565b91506137ca8361276c565b9250828210156137dd576137dc613031565b5b828203905092915050565b60006137f38261276c565b91506137fe8361276c565b9250827fffffffffffffffffffffffffffffffffffffffffffffffffffffffffffffffff0382111561383357613832613031565b5b828201905092915050565b7f4f776e61626c653a2063616c6c6572206973206e6f7420746865206f776e6572600082015250565b60006138746020836126bc565b915061387f8261383e565b602082019050919050565b600060208201905081810360008301526138a381613867565b9050919050565b7f4552433732313a206d696e7420746f20746865207a65726f2061646472657373600082015250565b60006138e06020836126bc565b91506138eb826138aa565b602082019050919050565b6000602082019050818103600083015261390f816138d3565b9050919050565b7f4552433732313a20746f6b656e20616c7265616479206d696e74656400000000600082015250565b600061394c601c836126bc565b915061395782613916565b602082019050919050565b6000602082019050818103600083015261397b8161393f565b9050919050565b7f4552433732313a20617070726f766520746f2063616c6c657200000000000000600082015250565b60006139b86019836126bc565b91506139c382613982565b602082019050919050565b600060208201905081810360008301526139e7816139ab565b9050919050565b7f4552433732313a207472616e7366657220746f206e6f6e20455243373231526560008201527f63656976657220696d706c656d656e7465720000000000000000000000000000602082015250565b6000613a4a6032836126bc565b9150613a55826139ee565b604082019050919050565b60006020820190508181036000830152613a7981613a3d565b9050919050565b7f4e487b7100000000000000000000000000000000000000000000000000000000600052603160045260246000fd5b600081519050919050565b600082825260208201905092915050565b6000613ad682613aaf565b613ae08185613aba565b9350613af08185602086016126cd565b613af981612700565b840191505092915050565b6000608082019050613b196000830187612801565b613b266020830186612801565b613b3360408301856129f7565b8181036060830152613b458184613acb565b905095945050505050565b600081519050613b5f81612622565b92915050565b600060208284031215613b7b57613b7a6125ec565b5b6000613b8984828501613b50565b9150509291505056fea2646970667358221220b2dfb1b02312e614caff9fedda1c116295107dedc43673cf0869defbfea6963564736f6c634300080d0033",
  "immutableReferences": {},
  "source": "// SPDX-License-Identifier: MIT\n\npragma solidity >= 0.8.13;\n\nimport \"@openzeppelin/contracts/token/ERC721/ERC721.sol\";\nimport \"@manifoldxyz/royalty-registry-solidity/contracts/specs/IEIP2981.sol\";\nimport \"@manifoldxyz/libraries-solidity/contracts/access/AdminControl.sol\";\nimport \"@openzeppelin/contracts/utils/Strings.sol\";\n\ncontract Anastasis_Act1 is ERC721, AdminControl {\n    \n    address payable  private _royalties_recipient;\n    uint256 private _royaltyAmount; //in % \n    uint256 _urisNumber;\n    string _uri;\n\n    \n    constructor () ERC721(\"f-1 Anastasis - Act1\", \"f-1 AA1\") {\n        _royalties_recipient = payable(msg.sender);\n        _royaltyAmount = 10;\n    } \n\n    function supportsInterface(bytes4 interfaceId)\n        public\n        view\n        virtual\n        override(ERC721, AdminControl)\n        returns (bool)\n    {\n        return\n        AdminControl.supportsInterface(interfaceId) ||\n        ERC721.supportsInterface(interfaceId) ||\n        interfaceId == type(IEIP2981).interfaceId ||\n        super.supportsInterface(interfaceId);\n    }\n\n    function mint( \n        address to\n    ) external adminRequired{\n        require(!_exists(1), \"Only 1 token can be created with this contract\");\n        _mint(to, 1);\n    }\n\n    function burn(uint256 tokenId) public {\n        address owner = ERC721.ownerOf(tokenId);\n        require(msg.sender == owner, \"Owner only\");\n        _burn(tokenId);\n    }\n\n    function setURI(\n        uint256 urisNumber,\n        string calldata updatedURI\n    ) external adminRequired{\n        _urisNumber = urisNumber;\n        _uri = updatedURI;\n    }\n\n    function tokenURI(uint256 tokenId) public view virtual override returns (string memory) {\n        require(_exists(tokenId), \"ERC721Metadata: URI query for nonexistent token\");\n        uint256 uri = (block.number/2400) % _urisNumber;\n        return string(abi.encodePacked(_uri, Strings.toString(uri), \".json\"));\n    }\n\n    function setRoyalties(address payable _recipient, uint256 _royaltyPerCent) external adminRequired {\n        _royalties_recipient = _recipient;\n        _royaltyAmount = _royaltyPerCent;\n    }\n\n    function royaltyInfo(uint256 salePrice) external view returns (address, uint256) {\n        if(_royalties_recipient != address(0)){\n            return (_royalties_recipient, (salePrice * _royaltyAmount) / 100 );\n        }\n        return (address(0), 0);\n    }\n\n    function withdraw(address recipient) external adminRequired {\n        payable(recipient).transfer(address(this).balance);\n    }\n\n}",
  "sourcePath": "/Users/bct/Documents/Dev/NFT_dev/Anastasis/contracts/AnastasisAct1.sol",
  "compiler": {
    "name": "solc",
    "version": "0.8.13+commit.abaa5c0e.Emscripten.clang"
  },
  "schemaVersion": "3.4.4",
  "updatedAt": "2022-10-06T13:44:43.068Z",
  "devdoc": {
    "kind": "dev",
    "methods": {
      "approve(address,uint256)": {
        "details": "See {IERC721-approve}."
      },
      "approveAdmin(address)": {
        "details": "See {IAdminControl-approveAdmin}."
      },
      "balanceOf(address)": {
        "details": "See {IERC721-balanceOf}."
      },
      "getAdmins()": {
        "details": "See {IAdminControl-getAdmins}."
      },
      "getApproved(uint256)": {
        "details": "See {IERC721-getApproved}."
      },
      "isAdmin(address)": {
        "details": "See {IAdminControl-isAdmin}."
      },
      "isApprovedForAll(address,address)": {
        "details": "See {IERC721-isApprovedForAll}."
      },
      "name()": {
        "details": "See {IERC721Metadata-name}."
      },
      "owner()": {
        "details": "Returns the address of the current owner."
      },
      "ownerOf(uint256)": {
        "details": "See {IERC721-ownerOf}."
      },
      "renounceOwnership()": {
        "details": "Leaves the contract without owner. It will not be possible to call `onlyOwner` functions anymore. Can only be called by the current owner. NOTE: Renouncing ownership will leave the contract without an owner, thereby removing any functionality that is only available to the owner."
      },
      "revokeAdmin(address)": {
        "details": "See {IAdminControl-revokeAdmin}."
      },
      "safeTransferFrom(address,address,uint256)": {
        "details": "See {IERC721-safeTransferFrom}."
      },
      "safeTransferFrom(address,address,uint256,bytes)": {
        "details": "See {IERC721-safeTransferFrom}."
      },
      "setApprovalForAll(address,bool)": {
        "details": "See {IERC721-setApprovalForAll}."
      },
      "symbol()": {
        "details": "See {IERC721Metadata-symbol}."
      },
      "tokenURI(uint256)": {
        "details": "See {IERC721Metadata-tokenURI}."
      },
      "transferFrom(address,address,uint256)": {
        "details": "See {IERC721-transferFrom}."
      },
      "transferOwnership(address)": {
        "details": "Transfers ownership of the contract to a new account (`newOwner`). Can only be called by the current owner."
      }
    },
    "version": 1
  },
  "userdoc": {
    "kind": "user",
    "methods": {},
    "version": 1
  }
}