{
  "contractName": "Anastasis_Act2",
  "abi": [
    {
      "inputs": [],
      "stateMutability": "nonpayable",
      "type": "constructor"
    },
    {
      "inputs": [],
      "name": "ApprovalCallerNotOwnerNorApproved",
      "type": "error"
    },
    {
      "inputs": [],
      "name": "ApprovalQueryForNonexistentToken",
      "type": "error"
    },
    {
      "inputs": [],
      "name": "BalanceQueryForZeroAddress",
      "type": "error"
    },
    {
      "inputs": [],
      "name": "MintERC2309QuantityExceedsLimit",
      "type": "error"
    },
    {
      "inputs": [],
      "name": "MintToZeroAddress",
      "type": "error"
    },
    {
      "inputs": [],
      "name": "MintZeroQuantity",
      "type": "error"
    },
    {
      "inputs": [],
      "name": "OwnerQueryForNonexistentToken",
      "type": "error"
    },
    {
      "inputs": [],
      "name": "OwnershipNotInitializedForExtraData",
      "type": "error"
    },
    {
      "inputs": [],
      "name": "TransferCallerNotOwnerNorApproved",
      "type": "error"
    },
    {
      "inputs": [],
      "name": "TransferFromIncorrectOwner",
      "type": "error"
    },
    {
      "inputs": [],
      "name": "TransferToNonERC721ReceiverImplementer",
      "type": "error"
    },
    {
      "inputs": [],
      "name": "TransferToZeroAddress",
      "type": "error"
    },
    {
      "inputs": [],
      "name": "URIQueryForNonexistentToken",
      "type": "error"
    },
    {
      "anonymous": false,
      "inputs": [
        {
          "indexed": true,
          "internalType": "address",
          "name": "account",
          "type": "address"
        },
        {
          "indexed": true,
          "internalType": "address",
          "name": "sender",
          "type": "address"
        }
      ],
      "name": "AdminApproved",
      "type": "event"
    },
    {
      "anonymous": false,
      "inputs": [
        {
          "indexed": true,
          "internalType": "address",
          "name": "account",
          "type": "address"
        },
        {
          "indexed": true,
          "internalType": "address",
          "name": "sender",
          "type": "address"
        }
      ],
      "name": "AdminRevoked",
      "type": "event"
    },
    {
      "anonymous": false,
      "inputs": [
        {
          "indexed": true,
          "internalType": "address",
          "name": "owner",
          "type": "address"
        },
        {
          "indexed": true,
          "internalType": "address",
          "name": "approved",
          "type": "address"
        },
        {
          "indexed": true,
          "internalType": "uint256",
          "name": "tokenId",
          "type": "uint256"
        }
      ],
      "name": "Approval",
      "type": "event"
    },
    {
      "anonymous": false,
      "inputs": [
        {
          "indexed": true,
          "internalType": "address",
          "name": "owner",
          "type": "address"
        },
        {
          "indexed": true,
          "internalType": "address",
          "name": "operator",
          "type": "address"
        },
        {
          "indexed": false,
          "internalType": "bool",
          "name": "approved",
          "type": "bool"
        }
      ],
      "name": "ApprovalForAll",
      "type": "event"
    },
    {
      "anonymous": false,
      "inputs": [
        {
          "indexed": true,
          "internalType": "uint256",
          "name": "fromTokenId",
          "type": "uint256"
        },
        {
          "indexed": false,
          "internalType": "uint256",
          "name": "toTokenId",
          "type": "uint256"
        },
        {
          "indexed": true,
          "internalType": "address",
          "name": "from",
          "type": "address"
        },
        {
          "indexed": true,
          "internalType": "address",
          "name": "to",
          "type": "address"
        }
      ],
      "name": "ConsecutiveTransfer",
      "type": "event"
    },
    {
      "anonymous": false,
      "inputs": [
        {
          "indexed": true,
          "internalType": "address",
          "name": "previousOwner",
          "type": "address"
        },
        {
          "indexed": true,
          "internalType": "address",
          "name": "newOwner",
          "type": "address"
        }
      ],
      "name": "OwnershipTransferred",
      "type": "event"
    },
    {
      "anonymous": false,
      "inputs": [
        {
          "indexed": true,
          "internalType": "address",
          "name": "from",
          "type": "address"
        },
        {
          "indexed": true,
          "internalType": "address",
          "name": "to",
          "type": "address"
        },
        {
          "indexed": true,
          "internalType": "uint256",
          "name": "tokenId",
          "type": "uint256"
        }
      ],
      "name": "Transfer",
      "type": "event"
    },
    {
      "inputs": [],
      "name": "_tokenId",
      "outputs": [
        {
          "internalType": "uint256",
          "name": "",
          "type": "uint256"
        }
      ],
      "stateMutability": "view",
      "type": "function"
    },
    {
      "inputs": [
        {
          "internalType": "uint256",
          "name": "",
          "type": "uint256"
        }
      ],
      "name": "_tokenURIs",
      "outputs": [
        {
          "internalType": "uint256",
          "name": "",
          "type": "uint256"
        }
      ],
      "stateMutability": "view",
      "type": "function"
    },
    {
      "inputs": [],
      "name": "_uri",
      "outputs": [
        {
          "internalType": "string",
          "name": "",
          "type": "string"
        }
      ],
      "stateMutability": "view",
      "type": "function"
    },
    {
      "inputs": [
        {
          "internalType": "address",
          "name": "to",
          "type": "address"
        },
        {
          "internalType": "uint256",
          "name": "tokenId",
          "type": "uint256"
        }
      ],
      "name": "approve",
      "outputs": [],
      "stateMutability": "payable",
      "type": "function"
    },
    {
      "inputs": [
        {
          "internalType": "address",
          "name": "admin",
          "type": "address"
        }
      ],
      "name": "approveAdmin",
      "outputs": [],
      "stateMutability": "nonpayable",
      "type": "function"
    },
    {
      "inputs": [
        {
          "internalType": "address",
          "name": "owner",
          "type": "address"
        }
      ],
      "name": "balanceOf",
      "outputs": [
        {
          "internalType": "uint256",
          "name": "",
          "type": "uint256"
        }
      ],
      "stateMutability": "view",
      "type": "function"
    },
    {
      "inputs": [],
      "name": "getAdmins",
      "outputs": [
        {
          "internalType": "address[]",
          "name": "admins",
          "type": "address[]"
        }
      ],
      "stateMutability": "view",
      "type": "function"
    },
    {
      "inputs": [
        {
          "internalType": "uint256",
          "name": "tokenId",
          "type": "uint256"
        }
      ],
      "name": "getApproved",
      "outputs": [
        {
          "internalType": "address",
          "name": "",
          "type": "address"
        }
      ],
      "stateMutability": "view",
      "type": "function"
    },
    {
      "inputs": [
        {
          "internalType": "address",
          "name": "admin",
          "type": "address"
        }
      ],
      "name": "isAdmin",
      "outputs": [
        {
          "internalType": "bool",
          "name": "",
          "type": "bool"
        }
      ],
      "stateMutability": "view",
      "type": "function"
    },
    {
      "inputs": [
        {
          "internalType": "address",
          "name": "owner",
          "type": "address"
        },
        {
          "internalType": "address",
          "name": "operator",
          "type": "address"
        }
      ],
      "name": "isApprovedForAll",
      "outputs": [
        {
          "internalType": "bool",
          "name": "",
          "type": "bool"
        }
      ],
      "stateMutability": "view",
      "type": "function"
    },
    {
      "inputs": [],
      "name": "name",
      "outputs": [
        {
          "internalType": "string",
          "name": "",
          "type": "string"
        }
      ],
      "stateMutability": "view",
      "type": "function"
    },
    {
      "inputs": [],
      "name": "owner",
      "outputs": [
        {
          "internalType": "address",
          "name": "",
          "type": "address"
        }
      ],
      "stateMutability": "view",
      "type": "function"
    },
    {
      "inputs": [
        {
          "internalType": "uint256",
          "name": "tokenId",
          "type": "uint256"
        }
      ],
      "name": "ownerOf",
      "outputs": [
        {
          "internalType": "address",
          "name": "",
          "type": "address"
        }
      ],
      "stateMutability": "view",
      "type": "function"
    },
    {
      "inputs": [],
      "name": "renounceOwnership",
      "outputs": [],
      "stateMutability": "nonpayable",
      "type": "function"
    },
    {
      "inputs": [
        {
          "internalType": "address",
          "name": "admin",
          "type": "address"
        }
      ],
      "name": "revokeAdmin",
      "outputs": [],
      "stateMutability": "nonpayable",
      "type": "function"
    },
    {
      "inputs": [
        {
          "internalType": "address",
          "name": "from",
          "type": "address"
        },
        {
          "internalType": "address",
          "name": "to",
          "type": "address"
        },
        {
          "internalType": "uint256",
          "name": "tokenId",
          "type": "uint256"
        }
      ],
      "name": "safeTransferFrom",
      "outputs": [],
      "stateMutability": "payable",
      "type": "function"
    },
    {
      "inputs": [
        {
          "internalType": "address",
          "name": "from",
          "type": "address"
        },
        {
          "internalType": "address",
          "name": "to",
          "type": "address"
        },
        {
          "internalType": "uint256",
          "name": "tokenId",
          "type": "uint256"
        },
        {
          "internalType": "bytes",
          "name": "_data",
          "type": "bytes"
        }
      ],
      "name": "safeTransferFrom",
      "outputs": [],
      "stateMutability": "payable",
      "type": "function"
    },
    {
      "inputs": [
        {
          "internalType": "address",
          "name": "operator",
          "type": "address"
        },
        {
          "internalType": "bool",
          "name": "approved",
          "type": "bool"
        }
      ],
      "name": "setApprovalForAll",
      "outputs": [],
      "stateMutability": "nonpayable",
      "type": "function"
    },
    {
      "inputs": [],
      "name": "symbol",
      "outputs": [
        {
          "internalType": "string",
          "name": "",
          "type": "string"
        }
      ],
      "stateMutability": "view",
      "type": "function"
    },
    {
      "inputs": [],
      "name": "totalSupply",
      "outputs": [
        {
          "internalType": "uint256",
          "name": "",
          "type": "uint256"
        }
      ],
      "stateMutability": "view",
      "type": "function"
    },
    {
      "inputs": [
        {
          "internalType": "address",
          "name": "from",
          "type": "address"
        },
        {
          "internalType": "address",
          "name": "to",
          "type": "address"
        },
        {
          "internalType": "uint256",
          "name": "tokenId",
          "type": "uint256"
        }
      ],
      "name": "transferFrom",
      "outputs": [],
      "stateMutability": "payable",
      "type": "function"
    },
    {
      "inputs": [
        {
          "internalType": "address",
          "name": "newOwner",
          "type": "address"
        }
      ],
      "name": "transferOwnership",
      "outputs": [],
      "stateMutability": "nonpayable",
      "type": "function"
    },
    {
      "inputs": [
        {
          "internalType": "bytes4",
          "name": "interfaceId",
          "type": "bytes4"
        }
      ],
      "name": "supportsInterface",
      "outputs": [
        {
          "internalType": "bool",
          "name": "",
          "type": "bool"
        }
      ],
      "stateMutability": "view",
      "type": "function"
    },
    {
      "inputs": [
        {
          "internalType": "address",
          "name": "to",
          "type": "address"
        },
        {
          "internalType": "uint256",
          "name": "quantity",
          "type": "uint256"
        }
      ],
      "name": "mint",
      "outputs": [],
      "stateMutability": "nonpayable",
      "type": "function"
    },
    {
      "inputs": [
        {
          "internalType": "uint256",
          "name": "length",
          "type": "uint256"
        }
      ],
      "name": "getPseudoRandomNumber",
      "outputs": [
        {
          "internalType": "uint256",
          "name": "",
          "type": "uint256"
        }
      ],
      "stateMutability": "view",
      "type": "function"
    },
    {
      "inputs": [
        {
          "internalType": "uint256",
          "name": "tokenId",
          "type": "uint256"
        }
      ],
      "name": "burn",
      "outputs": [],
      "stateMutability": "nonpayable",
      "type": "function"
    },
    {
      "inputs": [
        {
          "internalType": "string",
          "name": "updatedURI",
          "type": "string"
        }
      ],
      "name": "setURI",
      "outputs": [],
      "stateMutability": "nonpayable",
      "type": "function"
    },
    {
      "inputs": [
        {
          "internalType": "uint256",
          "name": "tokenId",
          "type": "uint256"
        }
      ],
      "name": "tokenURI",
      "outputs": [
        {
          "internalType": "string",
          "name": "",
          "type": "string"
        }
      ],
      "stateMutability": "view",
      "type": "function"
    },
    {
      "inputs": [
        {
          "internalType": "address payable",
          "name": "_recipient",
          "type": "address"
        },
        {
          "internalType": "uint256",
          "name": "_royaltyPerCent",
          "type": "uint256"
        }
      ],
      "name": "setRoyalties",
      "outputs": [],
      "stateMutability": "nonpayable",
      "type": "function"
    },
    {
      "inputs": [
        {
          "internalType": "uint256",
          "name": "salePrice",
          "type": "uint256"
        }
      ],
      "name": "royaltyInfo",
      "outputs": [
        {
          "internalType": "address",
          "name": "",
          "type": "address"
        },
        {
          "internalType": "uint256",
          "name": "",
          "type": "uint256"
        }
      ],
      "stateMutability": "view",
      "type": "function"
    },
    {
      "inputs": [
        {
          "internalType": "address",
          "name": "recipient",
          "type": "address"
        }
      ],
      "name": "withdraw",
      "outputs": [],
      "stateMutability": "nonpayable",
      "type": "function"
    }
  ],
  "bytecode": "0x60806040526000600d553480156200001657600080fd5b506040518060400160405280601481526020017f662d3120416e61737461736973202d20416374320000000000000000000000008152506040518060400160405280600781526020017f662d31204141320000000000000000000000000000000000000000000000000081525081600290805190602001906200009b9291906200020f565b508060039080519060200190620000b49291906200020f565b50620000c56200013c60201b60201c565b6000819055505050620000ed620000e16200014160201b60201c565b6200014960201b60201c565b33600b60006101000a81548173ffffffffffffffffffffffffffffffffffffffff021916908373ffffffffffffffffffffffffffffffffffffffff160217905550600a600c8190555062000323565b600090565b600033905090565b6000600860009054906101000a900473ffffffffffffffffffffffffffffffffffffffff16905081600860006101000a81548173ffffffffffffffffffffffffffffffffffffffff021916908373ffffffffffffffffffffffffffffffffffffffff1602179055508173ffffffffffffffffffffffffffffffffffffffff168173ffffffffffffffffffffffffffffffffffffffff167f8be0079c531659141344cd1fd0a4f28419497f9722a3daafe3b4186f6b6457e060405160405180910390a35050565b8280546200021d90620002ee565b90600052602060002090601f0160209004810192826200024157600085556200028d565b82601f106200025c57805160ff19168380011785556200028d565b828001600101855582156200028d579182015b828111156200028c5782518255916020019190600101906200026f565b5b5090506200029c9190620002a0565b5090565b5b80821115620002bb576000816000905550600101620002a1565b5090565b7f4e487b7100000000000000000000000000000000000000000000000000000000600052602260045260246000fd5b600060028204905060018216806200030757607f821691505b6020821081036200031d576200031c620002bf565b5b50919050565b61398780620003336000396000f3fe6080604052600436106101d85760003560e01c806342842e0e116101025780638da5cb5b11610095578063c87b56dd11610064578063c87b56dd14610684578063cef6d368146106c1578063e985e9c5146106ff578063f2fde38b1461073c576101d8565b80638da5cb5b146105e957806395d89b4114610614578063a22cb4651461063f578063b88d4fde14610668576101d8565b80636d73e669116100d15780636d73e6691461054357806370a082311461056c578063715018a6146105a95780638c7ea24b146105c0576101d8565b806342842e0e1461049857806342966c68146104b457806351cff8d9146104dd5780636352211e14610506576101d8565b80630dccc9ad1161017a57806324d7806c1161014957806324d7806c146103de5780632d3456701461041b57806331ae450b1461044457806340c10f191461046f576101d8565b80630dccc9ad1461034157806318160ddd1461036c57806323b872dd1461039757806324822514146103b3576101d8565b806306fdde03116101b657806306fdde0314610280578063081812fc146102ab578063095ea7b3146102e85780630bb78ec114610304576101d8565b806301ffc9a7146101dd5780630283fbac1461021a57806302fe530514610257575b600080fd5b3480156101e957600080fd5b5061020460048036038101906101ff9190612a13565b610765565b6040516102119190612a5b565b60405180910390f35b34801561022657600080fd5b50610241600480360381019061023c9190612aac565b6107ff565b60405161024e9190612ae8565b60405180910390f35b34801561026357600080fd5b5061027e60048036038101906102799190612b68565b610846565b005b34801561028c57600080fd5b506102956108ec565b6040516102a29190612c4e565b60405180910390f35b3480156102b757600080fd5b506102d260048036038101906102cd9190612aac565b61097e565b6040516102df9190612cb1565b60405180910390f35b61030260048036038101906102fd9190612cf8565b6109fd565b005b34801561031057600080fd5b5061032b60048036038101906103269190612aac565b610b41565b6040516103389190612ae8565b60405180910390f35b34801561034d57600080fd5b50610356610b59565b6040516103639190612c4e565b60405180910390f35b34801561037857600080fd5b50610381610be7565b60405161038e9190612ae8565b60405180910390f35b6103b160048036038101906103ac9190612d38565b610bfe565b005b3480156103bf57600080fd5b506103c8610f20565b6040516103d59190612ae8565b60405180910390f35b3480156103ea57600080fd5b5061040560048036038101906104009190612d8b565b610f26565b6040516104129190612a5b565b60405180910390f35b34801561042757600080fd5b50610442600480360381019061043d9190612d8b565b610f80565b005b34801561045057600080fd5b50610459611014565b6040516104669190612e76565b60405180910390f35b34801561047b57600080fd5b5061049660048036038101906104919190612cf8565b6110f6565b005b6104b260048036038101906104ad9190612d38565b61125f565b005b3480156104c057600080fd5b506104db60048036038101906104d69190612aac565b61127f565b005b3480156104e957600080fd5b5061050460048036038101906104ff9190612d8b565b611307565b005b34801561051257600080fd5b5061052d60048036038101906105289190612aac565b6113e1565b60405161053a9190612cb1565b60405180910390f35b34801561054f57600080fd5b5061056a60048036038101906105659190612d8b565b6113f3565b005b34801561057857600080fd5b50610593600480360381019061058e9190612d8b565b611486565b6040516105a09190612ae8565b60405180910390f35b3480156105b557600080fd5b506105be61153e565b005b3480156105cc57600080fd5b506105e760048036038101906105e29190612ed6565b611552565b005b3480156105f557600080fd5b506105fe61162e565b60405161060b9190612cb1565b60405180910390f35b34801561062057600080fd5b50610629611658565b6040516106369190612c4e565b60405180910390f35b34801561064b57600080fd5b5061066660048036038101906106619190612f42565b6116ea565b005b610682600480360381019061067d91906130b2565b6117f5565b005b34801561069057600080fd5b506106ab60048036038101906106a69190612aac565b611868565b6040516106b89190612c4e565b60405180910390f35b3480156106cd57600080fd5b506106e860048036038101906106e39190612aac565b6118f7565b6040516106f6929190613135565b60405180910390f35b34801561070b57600080fd5b506107266004803603810190610721919061315e565b6119a3565b6040516107339190612a5b565b60405180910390f35b34801561074857600080fd5b50610763600480360381019061075e9190612d8b565b611a37565b005b600061077082611aba565b80610780575061077f82611b34565b5b806107e857507f2a55205a000000000000000000000000000000000000000000000000000000007bffffffffffffffffffffffffffffffffffffffffffffffffffffffff1916827bffffffffffffffffffffffffffffffffffffffffffffffffffffffff1916145b806107f857506107f782611aba565b5b9050919050565b60008042600d546040516020016108179291906131bf565b6040516020818303038152906040528051906020012060001c9050828161083e919061321a565b915050919050565b3373ffffffffffffffffffffffffffffffffffffffff1661086561162e565b73ffffffffffffffffffffffffffffffffffffffff1614806108975750610896336009611bc690919063ffffffff16565b5b6108d6576040517f08c379a00000000000000000000000000000000000000000000000000000000081526004016108cd906132bd565b60405180910390fd5b8181600e91906108e7929190612904565b505050565b6060600280546108fb9061330c565b80601f01602080910402602001604051908101604052809291908181526020018280546109279061330c565b80156109745780601f1061094957610100808354040283529160200191610974565b820191906000526020600020905b81548152906001019060200180831161095757829003601f168201915b5050505050905090565b600061098982611bf6565b6109bf576040517fcf4700e400000000000000000000000000000000000000000000000000000000815260040160405180910390fd5b6006600083815260200190815260200160002060000160009054906101000a900473ffffffffffffffffffffffffffffffffffffffff169050919050565b6000610a08826113e1565b90508073ffffffffffffffffffffffffffffffffffffffff16610a29611c55565b73ffffffffffffffffffffffffffffffffffffffff1614610a8c57610a5581610a50611c55565b6119a3565b610a8b576040517fcfb3b94200000000000000000000000000000000000000000000000000000000815260040160405180910390fd5b5b826006600084815260200190815260200160002060000160006101000a81548173ffffffffffffffffffffffffffffffffffffffff021916908373ffffffffffffffffffffffffffffffffffffffff160217905550818373ffffffffffffffffffffffffffffffffffffffff168273ffffffffffffffffffffffffffffffffffffffff167f8c5be1e5ebec7d5bd14f71427d1e84f3dd0314c0f7b2291e5b200ac8c7c3b92560405160405180910390a4505050565b600f6020528060005260406000206000915090505481565b600e8054610b669061330c565b80601f0160208091040260200160405190810160405280929190818152602001828054610b929061330c565b8015610bdf5780601f10610bb457610100808354040283529160200191610bdf565b820191906000526020600020905b815481529060010190602001808311610bc257829003601f168201915b505050505081565b6000610bf1611c5d565b6001546000540303905090565b6000610c0982611c62565b90508373ffffffffffffffffffffffffffffffffffffffff168173ffffffffffffffffffffffffffffffffffffffff1614610c70576040517fa114810000000000000000000000000000000000000000000000000000000000815260040160405180910390fd5b600080610c7c84611d2e565b91509150610c928187610c8d611c55565b611d55565b610cde57610ca786610ca2611c55565b6119a3565b610cdd576040517f59c896be00000000000000000000000000000000000000000000000000000000815260040160405180910390fd5b5b600073ffffffffffffffffffffffffffffffffffffffff168573ffffffffffffffffffffffffffffffffffffffff1603610d44576040517fea553b3400000000000000000000000000000000000000000000000000000000815260040160405180910390fd5b610d518686866001611d99565b8015610d5c57600082555b600560008773ffffffffffffffffffffffffffffffffffffffff1673ffffffffffffffffffffffffffffffffffffffff168152602001908152602001600020600081546001900391905081905550600560008673ffffffffffffffffffffffffffffffffffffffff1673ffffffffffffffffffffffffffffffffffffffff1681526020019081526020016000206000815460010191905081905550610e2a85610e06888887611d9f565b7c020000000000000000000000000000000000000000000000000000000017611dc7565b600460008681526020019081526020016000208190555060007c0200000000000000000000000000000000000000000000000000000000841603610eb05760006001850190506000600460008381526020019081526020016000205403610eae576000548114610ead578360046000838152602001908152602001600020819055505b5b505b838573ffffffffffffffffffffffffffffffffffffffff168773ffffffffffffffffffffffffffffffffffffffff167fddf252ad1be2c89b69c2b068fc378daa952ba7f163c4a11628f55a4df523b3ef60405160405180910390a4610f188686866001611df2565b505050505050565b600d5481565b60008173ffffffffffffffffffffffffffffffffffffffff16610f4761162e565b73ffffffffffffffffffffffffffffffffffffffff161480610f795750610f78826009611bc690919063ffffffff16565b5b9050919050565b610f88611df8565b610f9c816009611bc690919063ffffffff16565b15611011573373ffffffffffffffffffffffffffffffffffffffff168173ffffffffffffffffffffffffffffffffffffffff167f7c0c3c84c67c85fcac635147348bfe374c24a1a93d0366d1cfe9d8853cbf89d560405160405180910390a361100f816009611e7690919063ffffffff16565b505b50565b60606110206009611ea6565b67ffffffffffffffff81111561103957611038612f87565b5b6040519080825280602002602001820160405280156110675781602001602082028036833780820191505090505b50905060005b6110776009611ea6565b8110156110f257611092816009611ebb90919063ffffffff16565b8282815181106110a5576110a461333d565b5b602002602001019073ffffffffffffffffffffffffffffffffffffffff16908173ffffffffffffffffffffffffffffffffffffffff168152505080806110ea9061339b565b91505061106d565b5090565b3373ffffffffffffffffffffffffffffffffffffffff1661111561162e565b73ffffffffffffffffffffffffffffffffffffffff1614806111475750611146336009611bc690919063ffffffff16565b5b611186576040517f08c379a000000000000000000000000000000000000000000000000000000000815260040161117d906132bd565b60405180910390fd5b60005b8181101561125057600061119d60646107ff565b9050600060058210156111c75760016111b660026107ff565b6111c091906133e3565b9050611207565b60168210156111ed5760036111dc60056107ff565b6111e691906133e3565b9050611206565b60086111f960076107ff565b61120391906133e3565b90505b5b80600f6000600d548152602001908152602001600020819055506001600d600082825461123491906133e3565b92505081905550505080806112489061339b565b915050611189565b5061125b8282611ed5565b5050565b61127a838383604051806020016040528060008152506117f5565b505050565b600061128a826113e1565b90508073ffffffffffffffffffffffffffffffffffffffff163373ffffffffffffffffffffffffffffffffffffffff16146112fa576040517f08c379a00000000000000000000000000000000000000000000000000000000081526004016112f190613485565b60405180910390fd5b61130382612090565b5050565b3373ffffffffffffffffffffffffffffffffffffffff1661132661162e565b73ffffffffffffffffffffffffffffffffffffffff1614806113585750611357336009611bc690919063ffffffff16565b5b611397576040517f08c379a000000000000000000000000000000000000000000000000000000000815260040161138e906132bd565b60405180910390fd5b8073ffffffffffffffffffffffffffffffffffffffff166108fc479081150290604051600060405180830381858888f193505050501580156113dd573d6000803e3d6000fd5b5050565b60006113ec82611c62565b9050919050565b6113fb611df8565b61140f816009611bc690919063ffffffff16565b611483573373ffffffffffffffffffffffffffffffffffffffff168173ffffffffffffffffffffffffffffffffffffffff167f7e1a1a08d52e4ba0e21554733d66165fd5151f99460116223d9e3a608eec5cb160405160405180910390a361148181600961209e90919063ffffffff16565b505b50565b60008073ffffffffffffffffffffffffffffffffffffffff168273ffffffffffffffffffffffffffffffffffffffff16036114ed576040517f8f4eb60400000000000000000000000000000000000000000000000000000000815260040160405180910390fd5b67ffffffffffffffff600560008473ffffffffffffffffffffffffffffffffffffffff1673ffffffffffffffffffffffffffffffffffffffff16815260200190815260200160002054169050919050565b611546611df8565b61155060006120ce565b565b3373ffffffffffffffffffffffffffffffffffffffff1661157161162e565b73ffffffffffffffffffffffffffffffffffffffff1614806115a357506115a2336009611bc690919063ffffffff16565b5b6115e2576040517f08c379a00000000000000000000000000000000000000000000000000000000081526004016115d9906132bd565b60405180910390fd5b81600b60006101000a81548173ffffffffffffffffffffffffffffffffffffffff021916908373ffffffffffffffffffffffffffffffffffffffff16021790555080600c819055505050565b6000600860009054906101000a900473ffffffffffffffffffffffffffffffffffffffff16905090565b6060600380546116679061330c565b80601f01602080910402602001604051908101604052809291908181526020018280546116939061330c565b80156116e05780601f106116b5576101008083540402835291602001916116e0565b820191906000526020600020905b8154815290600101906020018083116116c357829003601f168201915b5050505050905090565b80600760006116f7611c55565b73ffffffffffffffffffffffffffffffffffffffff1673ffffffffffffffffffffffffffffffffffffffff16815260200190815260200160002060008473ffffffffffffffffffffffffffffffffffffffff1673ffffffffffffffffffffffffffffffffffffffff16815260200190815260200160002060006101000a81548160ff0219169083151502179055508173ffffffffffffffffffffffffffffffffffffffff166117a4611c55565b73ffffffffffffffffffffffffffffffffffffffff167f17307eab39ab6107e8899845ad3d59bd9653f200f220920489ca2b5937696c31836040516117e99190612a5b565b60405180910390a35050565b611800848484610bfe565b60008373ffffffffffffffffffffffffffffffffffffffff163b146118625761182b84848484612194565b611861576040517fd1a57ed600000000000000000000000000000000000000000000000000000000815260040160405180910390fd5b5b50505050565b606061187382611bf6565b6118b2576040517f08c379a00000000000000000000000000000000000000000000000000000000081526004016118a990613517565b60405180910390fd5b600e6118d0600f6000858152602001908152602001600020546122e4565b6040516020016118e1929190613653565b6040516020818303038152906040529050919050565b600080600073ffffffffffffffffffffffffffffffffffffffff16600b60009054906101000a900473ffffffffffffffffffffffffffffffffffffffff1673ffffffffffffffffffffffffffffffffffffffff161461199657600b60009054906101000a900473ffffffffffffffffffffffffffffffffffffffff166064600c54856119839190613682565b61198d91906136dc565b9150915061199e565b600080915091505b915091565b6000600760008473ffffffffffffffffffffffffffffffffffffffff1673ffffffffffffffffffffffffffffffffffffffff16815260200190815260200160002060008373ffffffffffffffffffffffffffffffffffffffff1673ffffffffffffffffffffffffffffffffffffffff16815260200190815260200160002060009054906101000a900460ff16905092915050565b611a3f611df8565b600073ffffffffffffffffffffffffffffffffffffffff168173ffffffffffffffffffffffffffffffffffffffff1603611aae576040517f08c379a0000000000000000000000000000000000000000000000000000000008152600401611aa59061377f565b60405180910390fd5b611ab7816120ce565b50565b60007f553e757e000000000000000000000000000000000000000000000000000000007bffffffffffffffffffffffffffffffffffffffffffffffffffffffff1916827bffffffffffffffffffffffffffffffffffffffffffffffffffffffff19161480611b2d5750611b2c82612444565b5b9050919050565b60006301ffc9a760e01b827bffffffffffffffffffffffffffffffffffffffffffffffffffffffff19161480611b8f57506380ac58cd60e01b827bffffffffffffffffffffffffffffffffffffffffffffffffffffffff1916145b80611bbf5750635b5e139f60e01b827bffffffffffffffffffffffffffffffffffffffffffffffffffffffff1916145b9050919050565b6000611bee836000018373ffffffffffffffffffffffffffffffffffffffff1660001b6124ae565b905092915050565b600081611c01611c5d565b11158015611c10575060005482105b8015611c4e575060007c0100000000000000000000000000000000000000000000000000000000600460008581526020019081526020016000205416145b9050919050565b600033905090565b600090565b60008082905080611c71611c5d565b11611cf757600054811015611cf65760006004600083815260200190815260200160002054905060007c0100000000000000000000000000000000000000000000000000000000821603611cf4575b60008103611cea576004600083600190039350838152602001908152602001600020549050611cc0565b8092505050611d29565b505b5b6040517fdf2d9b4200000000000000000000000000000000000000000000000000000000815260040160405180910390fd5b919050565b60008060006006600085815260200190815260200160002090508092508254915050915091565b600073ffffffffffffffffffffffffffffffffffffffff8316925073ffffffffffffffffffffffffffffffffffffffff821691508382148383141790509392505050565b50505050565b60008060e883901c905060e8611db68686846124d1565b62ffffff16901b9150509392505050565b600073ffffffffffffffffffffffffffffffffffffffff83169250814260a01b178317905092915050565b50505050565b611e006124da565b73ffffffffffffffffffffffffffffffffffffffff16611e1e61162e565b73ffffffffffffffffffffffffffffffffffffffff1614611e74576040517f08c379a0000000000000000000000000000000000000000000000000000000008152600401611e6b906137eb565b60405180910390fd5b565b6000611e9e836000018373ffffffffffffffffffffffffffffffffffffffff1660001b6124e2565b905092915050565b6000611eb4826000016125f6565b9050919050565b6000611eca8360000183612607565b60001c905092915050565b60008054905060008203611f15576040517fb562e8dd00000000000000000000000000000000000000000000000000000000815260040160405180910390fd5b611f226000848385611d99565b600160406001901b178202600560008573ffffffffffffffffffffffffffffffffffffffff1673ffffffffffffffffffffffffffffffffffffffff16815260200190815260200160002060008282540192505081905550611f9983611f8a6000866000611d9f565b611f9385612632565b17611dc7565b6004600083815260200190815260200160002081905550600080838301905073ffffffffffffffffffffffffffffffffffffffff85169150828260007fddf252ad1be2c89b69c2b068fc378daa952ba7f163c4a11628f55a4df523b3ef600080a4600183015b81811461203a57808360007fddf252ad1be2c89b69c2b068fc378daa952ba7f163c4a11628f55a4df523b3ef600080a4600181019050611fff565b5060008203612075576040517f2e07630000000000000000000000000000000000000000000000000000000000815260040160405180910390fd5b80600081905550505061208b6000848385611df2565b505050565b61209b816000612642565b50565b60006120c6836000018373ffffffffffffffffffffffffffffffffffffffff1660001b612894565b905092915050565b6000600860009054906101000a900473ffffffffffffffffffffffffffffffffffffffff16905081600860006101000a81548173ffffffffffffffffffffffffffffffffffffffff021916908373ffffffffffffffffffffffffffffffffffffffff1602179055508173ffffffffffffffffffffffffffffffffffffffff168173ffffffffffffffffffffffffffffffffffffffff167f8be0079c531659141344cd1fd0a4f28419497f9722a3daafe3b4186f6b6457e060405160405180910390a35050565b60008373ffffffffffffffffffffffffffffffffffffffff1663150b7a026121ba611c55565b8786866040518563ffffffff1660e01b81526004016121dc9493929190613860565b6020604051808303816000875af192505050801561221857506040513d601f19601f8201168201806040525081019061221591906138c1565b60015b612291573d8060008114612248576040519150601f19603f3d011682016040523d82523d6000602084013e61224d565b606091505b506000815103612289576040517fd1a57ed600000000000000000000000000000000000000000000000000000000815260040160405180910390fd5b805181602001fd5b63150b7a0260e01b7bffffffffffffffffffffffffffffffffffffffffffffffffffffffff1916817bffffffffffffffffffffffffffffffffffffffffffffffffffffffff191614915050949350505050565b60606000820361232b576040518060400160405280600181526020017f3000000000000000000000000000000000000000000000000000000000000000815250905061243f565b600082905060005b6000821461235d5780806123469061339b565b915050600a8261235691906136dc565b9150612333565b60008167ffffffffffffffff81111561237957612378612f87565b5b6040519080825280601f01601f1916602001820160405280156123ab5781602001600182028036833780820191505090505b5090505b60008514612438576001826123c491906138ee565b9150600a856123d3919061321a565b60306123df91906133e3565b60f81b8183815181106123f5576123f461333d565b5b60200101907effffffffffffffffffffffffffffffffffffffffffffffffffffffffffffff1916908160001a905350600a8561243191906136dc565b94506123af565b8093505050505b919050565b60007f01ffc9a7000000000000000000000000000000000000000000000000000000007bffffffffffffffffffffffffffffffffffffffffffffffffffffffff1916827bffffffffffffffffffffffffffffffffffffffffffffffffffffffff1916149050919050565b600080836001016000848152602001908152602001600020541415905092915050565b60009392505050565b600033905090565b600080836001016000848152602001908152602001600020549050600081146125ea57600060018261251491906138ee565b905060006001866000018054905061252c91906138ee565b905081811461259b57600086600001828154811061254d5761254c61333d565b5b90600052602060002001549050808760000184815481106125715761257061333d565b5b90600052602060002001819055508387600101600083815260200190815260200160002081905550505b856000018054806125af576125ae613922565b5b6001900381819060005260206000200160009055905585600101600086815260200190815260200160002060009055600193505050506125f0565b60009150505b92915050565b600081600001805490509050919050565b600082600001828154811061261f5761261e61333d565b5b9060005260206000200154905092915050565b60006001821460e11b9050919050565b600061264d83611c62565b9050600081905060008061266086611d2e565b9150915084156126c95761267c8184612677611c55565b611d55565b6126c8576126918361268c611c55565b6119a3565b6126c7576040517f59c896be00000000000000000000000000000000000000000000000000000000815260040160405180910390fd5b5b5b6126d7836000886001611d99565b80156126e257600082555b600160806001901b03600560008573ffffffffffffffffffffffffffffffffffffffff1673ffffffffffffffffffffffffffffffffffffffff1681526020019081526020016000206000828254019250508190555061278a8361274785600088611d9f565b7c02000000000000000000000000000000000000000000000000000000007c01000000000000000000000000000000000000000000000000000000001717611dc7565b600460008881526020019081526020016000208190555060007c0200000000000000000000000000000000000000000000000000000000851603612810576000600187019050600060046000838152602001908152602001600020540361280e57600054811461280d578460046000838152602001908152602001600020819055505b5b505b85600073ffffffffffffffffffffffffffffffffffffffff168473ffffffffffffffffffffffffffffffffffffffff167fddf252ad1be2c89b69c2b068fc378daa952ba7f163c4a11628f55a4df523b3ef60405160405180910390a461287a836000886001611df2565b600160008154809291906001019190505550505050505050565b60006128a083836124ae565b6128f95782600001829080600181540180825580915050600190039060005260206000200160009091909190915055826000018054905083600101600084815260200190815260200160002081905550600190506128fe565b600090505b92915050565b8280546129109061330c565b90600052602060002090601f0160209004810192826129325760008555612979565b82601f1061294b57803560ff1916838001178555612979565b82800160010185558215612979579182015b8281111561297857823582559160200191906001019061295d565b5b509050612986919061298a565b5090565b5b808211156129a357600081600090555060010161298b565b5090565b6000604051905090565b600080fd5b600080fd5b60007fffffffff0000000000000000000000000000000000000000000000000000000082169050919050565b6129f0816129bb565b81146129fb57600080fd5b50565b600081359050612a0d816129e7565b92915050565b600060208284031215612a2957612a286129b1565b5b6000612a37848285016129fe565b91505092915050565b60008115159050919050565b612a5581612a40565b82525050565b6000602082019050612a706000830184612a4c565b92915050565b6000819050919050565b612a8981612a76565b8114612a9457600080fd5b50565b600081359050612aa681612a80565b92915050565b600060208284031215612ac257612ac16129b1565b5b6000612ad084828501612a97565b91505092915050565b612ae281612a76565b82525050565b6000602082019050612afd6000830184612ad9565b92915050565b600080fd5b600080fd5b600080fd5b60008083601f840112612b2857612b27612b03565b5b8235905067ffffffffffffffff811115612b4557612b44612b08565b5b602083019150836001820283011115612b6157612b60612b0d565b5b9250929050565b60008060208385031215612b7f57612b7e6129b1565b5b600083013567ffffffffffffffff811115612b9d57612b9c6129b6565b5b612ba985828601612b12565b92509250509250929050565b600081519050919050565b600082825260208201905092915050565b60005b83811015612bef578082015181840152602081019050612bd4565b83811115612bfe576000848401525b50505050565b6000601f19601f8301169050919050565b6000612c2082612bb5565b612c2a8185612bc0565b9350612c3a818560208601612bd1565b612c4381612c04565b840191505092915050565b60006020820190508181036000830152612c688184612c15565b905092915050565b600073ffffffffffffffffffffffffffffffffffffffff82169050919050565b6000612c9b82612c70565b9050919050565b612cab81612c90565b82525050565b6000602082019050612cc66000830184612ca2565b92915050565b612cd581612c90565b8114612ce057600080fd5b50565b600081359050612cf281612ccc565b92915050565b60008060408385031215612d0f57612d0e6129b1565b5b6000612d1d85828601612ce3565b9250506020612d2e85828601612a97565b9150509250929050565b600080600060608486031215612d5157612d506129b1565b5b6000612d5f86828701612ce3565b9350506020612d7086828701612ce3565b9250506040612d8186828701612a97565b9150509250925092565b600060208284031215612da157612da06129b1565b5b6000612daf84828501612ce3565b91505092915050565b600081519050919050565b600082825260208201905092915050565b6000819050602082019050919050565b612ded81612c90565b82525050565b6000612dff8383612de4565b60208301905092915050565b6000602082019050919050565b6000612e2382612db8565b612e2d8185612dc3565b9350612e3883612dd4565b8060005b83811015612e69578151612e508882612df3565b9750612e5b83612e0b565b925050600181019050612e3c565b5085935050505092915050565b60006020820190508181036000830152612e908184612e18565b905092915050565b6000612ea382612c70565b9050919050565b612eb381612e98565b8114612ebe57600080fd5b50565b600081359050612ed081612eaa565b92915050565b60008060408385031215612eed57612eec6129b1565b5b6000612efb85828601612ec1565b9250506020612f0c85828601612a97565b9150509250929050565b612f1f81612a40565b8114612f2a57600080fd5b50565b600081359050612f3c81612f16565b92915050565b60008060408385031215612f5957612f586129b1565b5b6000612f6785828601612ce3565b9250506020612f7885828601612f2d565b9150509250929050565b600080fd5b7f4e487b7100000000000000000000000000000000000000000000000000000000600052604160045260246000fd5b612fbf82612c04565b810181811067ffffffffffffffff82111715612fde57612fdd612f87565b5b80604052505050565b6000612ff16129a7565b9050612ffd8282612fb6565b919050565b600067ffffffffffffffff82111561301d5761301c612f87565b5b61302682612c04565b9050602081019050919050565b82818337600083830152505050565b600061305561305084613002565b612fe7565b90508281526020810184848401111561307157613070612f82565b5b61307c848285613033565b509392505050565b600082601f83011261309957613098612b03565b5b81356130a9848260208601613042565b91505092915050565b600080600080608085870312156130cc576130cb6129b1565b5b60006130da87828801612ce3565b94505060206130eb87828801612ce3565b93505060406130fc87828801612a97565b925050606085013567ffffffffffffffff81111561311d5761311c6129b6565b5b61312987828801613084565b91505092959194509250565b600060408201905061314a6000830185612ca2565b6131576020830184612ad9565b9392505050565b60008060408385031215613175576131746129b1565b5b600061318385828601612ce3565b925050602061319485828601612ce3565b9150509250929050565b6000819050919050565b6131b96131b482612a76565b61319e565b82525050565b60006131cb82856131a8565b6020820191506131db82846131a8565b6020820191508190509392505050565b7f4e487b7100000000000000000000000000000000000000000000000000000000600052601260045260246000fd5b600061322582612a76565b915061323083612a76565b9250826132405761323f6131eb565b5b828206905092915050565b7f41646d696e436f6e74726f6c3a204d757374206265206f776e6572206f72206160008201527f646d696e00000000000000000000000000000000000000000000000000000000602082015250565b60006132a7602483612bc0565b91506132b28261324b565b604082019050919050565b600060208201905081810360008301526132d68161329a565b9050919050565b7f4e487b7100000000000000000000000000000000000000000000000000000000600052602260045260246000fd5b6000600282049050600182168061332457607f821691505b602082108103613337576133366132dd565b5b50919050565b7f4e487b7100000000000000000000000000000000000000000000000000000000600052603260045260246000fd5b7f4e487b7100000000000000000000000000000000000000000000000000000000600052601160045260246000fd5b60006133a682612a76565b91507fffffffffffffffffffffffffffffffffffffffffffffffffffffffffffffffff82036133d8576133d761336c565b5b600182019050919050565b60006133ee82612a76565b91506133f983612a76565b9250827fffffffffffffffffffffffffffffffffffffffffffffffffffffffffffffffff0382111561342e5761342d61336c565b5b828201905092915050565b7f4f776e6572206f6e6c7900000000000000000000000000000000000000000000600082015250565b600061346f600a83612bc0565b915061347a82613439565b602082019050919050565b6000602082019050818103600083015261349e81613462565b9050919050565b7f4552433732314d657461646174613a2055524920717565727920666f72206e6f60008201527f6e6578697374656e7420746f6b656e0000000000000000000000000000000000602082015250565b6000613501602f83612bc0565b915061350c826134a5565b604082019050919050565b60006020820190508181036000830152613530816134f4565b9050919050565b600081905092915050565b60008190508160005260206000209050919050565b600081546135648161330c565b61356e8186613537565b94506001821660008114613589576001811461359a576135cd565b60ff198316865281860193506135cd565b6135a385613542565b60005b838110156135c5578154818901526001820191506020810190506135a6565b838801955050505b50505092915050565b60006135e182612bb5565b6135eb8185613537565b93506135fb818560208601612bd1565b80840191505092915050565b7f2e6a736f6e000000000000000000000000000000000000000000000000000000600082015250565b600061363d600583613537565b915061364882613607565b600582019050919050565b600061365f8285613557565b915061366b82846135d6565b915061367682613630565b91508190509392505050565b600061368d82612a76565b915061369883612a76565b9250817fffffffffffffffffffffffffffffffffffffffffffffffffffffffffffffffff04831182151516156136d1576136d061336c565b5b828202905092915050565b60006136e782612a76565b91506136f283612a76565b925082613702576137016131eb565b5b828204905092915050565b7f4f776e61626c653a206e6577206f776e657220697320746865207a65726f206160008201527f6464726573730000000000000000000000000000000000000000000000000000602082015250565b6000613769602683612bc0565b91506137748261370d565b604082019050919050565b600060208201905081810360008301526137988161375c565b9050919050565b7f4f776e61626c653a2063616c6c6572206973206e6f7420746865206f776e6572600082015250565b60006137d5602083612bc0565b91506137e08261379f565b602082019050919050565b60006020820190508181036000830152613804816137c8565b9050919050565b600081519050919050565b600082825260208201905092915050565b60006138328261380b565b61383c8185613816565b935061384c818560208601612bd1565b61385581612c04565b840191505092915050565b60006080820190506138756000830187612ca2565b6138826020830186612ca2565b61388f6040830185612ad9565b81810360608301526138a18184613827565b905095945050505050565b6000815190506138bb816129e7565b92915050565b6000602082840312156138d7576138d66129b1565b5b60006138e5848285016138ac565b91505092915050565b60006138f982612a76565b915061390483612a76565b9250828210156139175761391661336c565b5b828203905092915050565b7f4e487b7100000000000000000000000000000000000000000000000000000000600052603160045260246000fdfea264697066735822122033d9355d7831faa264d55ced4113030912076a74c23e895f188236d6a74d571c64736f6c634300080d0033",
  "immutableReferences": {},
  "source": "// SPDX-License-Identifier: MIT\n\npragma solidity >= 0.8.13;\n\nimport \"erc721a/contracts/ERC721A.sol\";\nimport \"@manifoldxyz/royalty-registry-solidity/contracts/specs/IEIP2981.sol\";\nimport \"@manifoldxyz/libraries-solidity/contracts/access/AdminControl.sol\";\nimport \"@openzeppelin/contracts/utils/Strings.sol\";\n\ncontract Anastasis_Act2 is ERC721A, AdminControl {\n    \n    address payable  private _royalties_recipient;\n    uint256 private _royaltyAmount; //in % \n    uint256 public _tokenId = 0;\n    string public _uri;\n    \n    mapping(uint256 => uint256) public _tokenURIs;\n\n    \n    constructor () ERC721A(\"f-1 Anastasis - Act2\", \"f-1 AA2\") {\n        _royalties_recipient = payable(msg.sender);\n        _royaltyAmount = 10;\n    } \n\n    function supportsInterface(bytes4 interfaceId)\n        public\n        view\n        virtual\n        override(ERC721A, AdminControl)\n        returns (bool)\n    {\n        return\n        AdminControl.supportsInterface(interfaceId) ||\n        ERC721A.supportsInterface(interfaceId) ||\n        interfaceId == type(IEIP2981).interfaceId ||\n        super.supportsInterface(interfaceId);\n    }\n\n    function mint( \n        address to,\n        uint256 quantity\n    ) external adminRequired{\n        for(uint256 i=0; i < quantity; i++){\n            uint256 rarity = getPseudoRandomNumber(100);\n            uint256 uri;\n            if(rarity < 5){\n                uri = getPseudoRandomNumber(2) + 1;\n            }else if(rarity < 22){\n                uri = getPseudoRandomNumber(5) + 3;\n            }else{\n                uri = getPseudoRandomNumber(7) + 8;\n            }\n            _tokenURIs[_tokenId] = uri;\n            _tokenId += 1;\n        }\n        _mint(to, quantity);\n    }\n\n    function getPseudoRandomNumber(uint256 length) public view returns (uint256){    \n        uint256 rnd = uint256(keccak256(abi.encodePacked(block.timestamp, _tokenId)));\n        return rnd % length;\n    }\n\n    function burn(uint256 tokenId) public {\n        address owner = ERC721A.ownerOf(tokenId);\n        require(msg.sender == owner, \"Owner only\");\n        _burn(tokenId);\n    }\n\n    function setURI(\n        string calldata updatedURI\n    ) external adminRequired{\n        _uri = updatedURI;\n    }\n\n    function tokenURI(uint256 tokenId) public view virtual override returns (string memory) {\n        require(_exists(tokenId), \"ERC721Metadata: URI query for nonexistent token\");\n        return string(abi.encodePacked(_uri, Strings.toString(_tokenURIs[tokenId]), \".json\"));\n    }\n\n    function setRoyalties(address payable _recipient, uint256 _royaltyPerCent) external adminRequired {\n        _royalties_recipient = _recipient;\n        _royaltyAmount = _royaltyPerCent;\n    }\n\n    function royaltyInfo(uint256 salePrice) external view returns (address, uint256) {\n        if(_royalties_recipient != address(0)){\n            return (_royalties_recipient, (salePrice * _royaltyAmount) / 100 );\n        }\n        return (address(0), 0);\n    }\n\n    function withdraw(address recipient) external adminRequired {\n        payable(recipient).transfer(address(this).balance);\n    }\n\n}",
  "sourcePath": "/Users/bct/Documents/Dev/NFT_dev/Anastasis/contracts/AnastasisAct2.sol",
  "compiler": {
    "name": "solc",
    "version": "0.8.13+commit.abaa5c0e.Emscripten.clang"
  },
  "schemaVersion": "3.4.4",
  "updatedAt": "2022-10-06T13:44:43.096Z",
  "devdoc": {
    "kind": "dev",
    "methods": {
      "approve(address,uint256)": {
        "details": "Gives permission to `to` to transfer `tokenId` token to another account. The approval is cleared when the token is transferred. Only a single account can be approved at a time, so approving the zero address clears previous approvals. Requirements: - The caller must own the token or be an approved operator. - `tokenId` must exist. Emits an {Approval} event."
      },
      "approveAdmin(address)": {
        "details": "See {IAdminControl-approveAdmin}."
      },
      "balanceOf(address)": {
        "details": "Returns the number of tokens in `owner`'s account."
      },
      "getAdmins()": {
        "details": "See {IAdminControl-getAdmins}."
      },
      "getApproved(uint256)": {
        "details": "Returns the account approved for `tokenId` token. Requirements: - `tokenId` must exist."
      },
      "isAdmin(address)": {
        "details": "See {IAdminControl-isAdmin}."
      },
      "isApprovedForAll(address,address)": {
        "details": "Returns if the `operator` is allowed to manage all of the assets of `owner`. See {setApprovalForAll}."
      },
      "name()": {
        "details": "Returns the token collection name."
      },
      "owner()": {
        "details": "Returns the address of the current owner."
      },
      "ownerOf(uint256)": {
        "details": "Returns the owner of the `tokenId` token. Requirements: - `tokenId` must exist."
      },
      "renounceOwnership()": {
        "details": "Leaves the contract without owner. It will not be possible to call `onlyOwner` functions anymore. Can only be called by the current owner. NOTE: Renouncing ownership will leave the contract without an owner, thereby removing any functionality that is only available to the owner."
      },
      "revokeAdmin(address)": {
        "details": "See {IAdminControl-revokeAdmin}."
      },
      "safeTransferFrom(address,address,uint256)": {
        "details": "Equivalent to `safeTransferFrom(from, to, tokenId, '')`."
      },
      "safeTransferFrom(address,address,uint256,bytes)": {
        "details": "Safely transfers `tokenId` token from `from` to `to`. Requirements: - `from` cannot be the zero address. - `to` cannot be the zero address. - `tokenId` token must exist and be owned by `from`. - If the caller is not `from`, it must be approved to move this token by either {approve} or {setApprovalForAll}. - If `to` refers to a smart contract, it must implement {IERC721Receiver-onERC721Received}, which is called upon a safe transfer. Emits a {Transfer} event."
      },
      "setApprovalForAll(address,bool)": {
        "details": "Approve or remove `operator` as an operator for the caller. Operators can call {transferFrom} or {safeTransferFrom} for any token owned by the caller. Requirements: - The `operator` cannot be the caller. Emits an {ApprovalForAll} event."
      },
      "symbol()": {
        "details": "Returns the token collection symbol."
      },
      "tokenURI(uint256)": {
        "details": "Returns the Uniform Resource Identifier (URI) for `tokenId` token."
      },
      "totalSupply()": {
        "details": "Returns the total number of tokens in existence. Burned tokens will reduce the count. To get the total number of tokens minted, please see {_totalMinted}."
      },
      "transferFrom(address,address,uint256)": {
        "details": "Transfers `tokenId` from `from` to `to`. Requirements: - `from` cannot be the zero address. - `to` cannot be the zero address. - `tokenId` token must be owned by `from`. - If the caller is not `from`, it must be approved to move this token by either {approve} or {setApprovalForAll}. Emits a {Transfer} event."
      },
      "transferOwnership(address)": {
        "details": "Transfers ownership of the contract to a new account (`newOwner`). Can only be called by the current owner."
      }
    },
    "version": 1
  },
  "userdoc": {
    "errors": {
      "ApprovalCallerNotOwnerNorApproved()": [
        {
          "notice": "The caller must own the token or be an approved operator."
        }
      ],
      "ApprovalQueryForNonexistentToken()": [
        {
          "notice": "The token does not exist."
        }
      ],
      "BalanceQueryForZeroAddress()": [
        {
          "notice": "Cannot query the balance for the zero address."
        }
      ],
      "MintERC2309QuantityExceedsLimit()": [
        {
          "notice": "The `quantity` minted with ERC2309 exceeds the safety limit."
        }
      ],
      "MintToZeroAddress()": [
        {
          "notice": "Cannot mint to the zero address."
        }
      ],
      "MintZeroQuantity()": [
        {
          "notice": "The quantity of tokens minted must be more than zero."
        }
      ],
      "OwnerQueryForNonexistentToken()": [
        {
          "notice": "The token does not exist."
        }
      ],
      "OwnershipNotInitializedForExtraData()": [
        {
          "notice": "The `extraData` cannot be set on an unintialized ownership slot."
        }
      ],
      "TransferCallerNotOwnerNorApproved()": [
        {
          "notice": "The caller must own the token or be an approved operator."
        }
      ],
      "TransferFromIncorrectOwner()": [
        {
          "notice": "The token must be owned by `from`."
        }
      ],
      "TransferToNonERC721ReceiverImplementer()": [
        {
          "notice": "Cannot safely transfer to a contract that does not implement the ERC721Receiver interface."
        }
      ],
      "TransferToZeroAddress()": [
        {
          "notice": "Cannot transfer to the zero address."
        }
      ],
      "URIQueryForNonexistentToken()": [
        {
          "notice": "The token does not exist."
        }
      ]
    },
    "kind": "user",
    "methods": {},
    "version": 1
  }
}