{
  "contractName": "AnastasisCreatorMint",
  "abi": [
    {
      "inputs": [],
      "stateMutability": "nonpayable",
      "type": "constructor"
    },
    {
      "inputs": [],
      "name": "_anastasisAct3Address",
      "outputs": [
        {
          "internalType": "address",
          "name": "",
          "type": "address"
        }
      ],
      "stateMutability": "view",
      "type": "function"
    },
    {
      "inputs": [
        {
          "internalType": "address",
          "name": "",
          "type": "address"
        }
      ],
      "name": "_hasMinted",
      "outputs": [
        {
          "internalType": "bool",
          "name": "",
          "type": "bool"
        }
      ],
      "stateMutability": "view",
      "type": "function"
    },
    {
      "inputs": [],
      "name": "_mintOpened",
      "outputs": [
        {
          "internalType": "bool",
          "name": "",
          "type": "bool"
        }
      ],
      "stateMutability": "view",
      "type": "function"
    },
    {
      "inputs": [
        {
          "internalType": "address",
          "name": "anastasisAct3Address",
          "type": "address"
        }
      ],
      "name": "setAnastasisAct3Address",
      "outputs": [],
      "stateMutability": "nonpayable",
      "type": "function"
    },
    {
      "inputs": [
        {
          "internalType": "address",
          "name": "newAdmin",
          "type": "address"
        }
      ],
      "name": "toggleAdmin",
      "outputs": [],
      "stateMutability": "nonpayable",
      "type": "function"
    },
    {
      "inputs": [],
      "name": "toggleMintOpened",
      "outputs": [],
      "stateMutability": "nonpayable",
      "type": "function"
    },
    {
      "inputs": [
        {
          "internalType": "address",
          "name": "signer",
          "type": "address"
        }
      ],
      "name": "setSigner",
      "outputs": [],
      "stateMutability": "nonpayable",
      "type": "function"
    },
    {
      "inputs": [
        {
          "internalType": "uint8",
          "name": "v",
          "type": "uint8"
        },
        {
          "internalType": "bytes32",
          "name": "r",
          "type": "bytes32"
        },
        {
          "internalType": "bytes32",
          "name": "s",
          "type": "bytes32"
        }
      ],
      "name": "getFreeMint",
      "outputs": [],
      "stateMutability": "nonpayable",
      "type": "function"
    }
  ],
  "bytecode": "0x608060405273d6d0c1a49e83df2f4cb6b711ba915a8f05bc04f96000806101000a81548173ffffffffffffffffffffffffffffffffffffffff021916908373ffffffffffffffffffffffffffffffffffffffff16021790555034801561006457600080fd5b506001600260003373ffffffffffffffffffffffffffffffffffffffff1673ffffffffffffffffffffffffffffffffffffffff16815260200190815260200160002060006101000a81548160ff021916908315150217905550610c0b806100cc6000396000f3fe608060405234801561001057600080fd5b50600436106100885760003560e01c80639c04924e1161005b5780639c04924e14610101578063d3b861411461011d578063d92d1bd614610139578063dccee69b1461016957610088565b806319981dd11461008d57806361707e3a146100ab578063678ea70a146100c95780636c19e783146100e5575b600080fd5b610095610173565b6040516100a29190610776565b60405180910390f35b6100b3610186565b6040516100c091906107d2565b60405180910390f35b6100e360048036038101906100de9190610861565b6101aa565b005b6100ff60048036038101906100fa91906108e0565b6102dc565b005b61011b600480360381019061011691906108e0565b6103ac565b005b610137600480360381019061013291906108e0565b610445565b005b610153600480360381019061014e91906108e0565b610542565b6040516101609190610776565b60405180910390f35b610171610562565b005b600160149054906101000a900460ff1681565b60008054906101000a900473ffffffffffffffffffffffffffffffffffffffff1681565b6101b58383836105e4565b6101f4576040517f08c379a00000000000000000000000000000000000000000000000000000000081526004016101eb9061096a565b60405180910390fd5b60008054906101000a900473ffffffffffffffffffffffffffffffffffffffff1673ffffffffffffffffffffffffffffffffffffffff16636a627842336040518263ffffffff1660e01b815260040161024d91906107d2565b600060405180830381600087803b15801561026757600080fd5b505af115801561027b573d6000803e3d6000fd5b505050506001600360003373ffffffffffffffffffffffffffffffffffffffff1673ffffffffffffffffffffffffffffffffffffffff16815260200190815260200160002060006101000a81548160ff021916908315150217905550505050565b600260003373ffffffffffffffffffffffffffffffffffffffff1673ffffffffffffffffffffffffffffffffffffffff16815260200190815260200160002060009054906101000a900460ff16610368576040517f08c379a000000000000000000000000000000000000000000000000000000000815260040161035f906109d6565b60405180910390fd5b80600160006101000a81548173ffffffffffffffffffffffffffffffffffffffff021916908373ffffffffffffffffffffffffffffffffffffffff16021790555050565b600260003373ffffffffffffffffffffffffffffffffffffffff1673ffffffffffffffffffffffffffffffffffffffff16815260200190815260200160002060009054906101000a900460ff1661040257600080fd5b806000806101000a81548173ffffffffffffffffffffffffffffffffffffffff021916908373ffffffffffffffffffffffffffffffffffffffff16021790555050565b600260003373ffffffffffffffffffffffffffffffffffffffff1673ffffffffffffffffffffffffffffffffffffffff16815260200190815260200160002060009054906101000a900460ff1661049b57600080fd5b600260008273ffffffffffffffffffffffffffffffffffffffff1673ffffffffffffffffffffffffffffffffffffffff16815260200190815260200160002060009054906101000a900460ff1615600260008373ffffffffffffffffffffffffffffffffffffffff1673ffffffffffffffffffffffffffffffffffffffff16815260200190815260200160002060006101000a81548160ff02191690831515021790555050565b60036020528060005260406000206000915054906101000a900460ff1681565b600260003373ffffffffffffffffffffffffffffffffffffffff1673ffffffffffffffffffffffffffffffffffffffff16815260200190815260200160002060009054906101000a900460ff166105b857600080fd5b600160149054906101000a900460ff1615600160146101000a81548160ff021916908315150217905550565b600060013360008054906101000a900473ffffffffffffffffffffffffffffffffffffffff16600160149054906101000a900460ff16600360003373ffffffffffffffffffffffffffffffffffffffff1673ffffffffffffffffffffffffffffffffffffffff16815260200190815260200160002060009054906101000a900460ff1660405160200161067a9493929190610a86565b604051602081830303815290604052805190602001206040516020016106a09190610b4c565b60405160208183030381529060405280519060200120858585604051600081526020016040526040516106d69493929190610b90565b6020604051602081039080840390855afa1580156106f8573d6000803e3d6000fd5b5050506020604051035173ffffffffffffffffffffffffffffffffffffffff16600160009054906101000a900473ffffffffffffffffffffffffffffffffffffffff1673ffffffffffffffffffffffffffffffffffffffff161490509392505050565b60008115159050919050565b6107708161075b565b82525050565b600060208201905061078b6000830184610767565b92915050565b600073ffffffffffffffffffffffffffffffffffffffff82169050919050565b60006107bc82610791565b9050919050565b6107cc816107b1565b82525050565b60006020820190506107e760008301846107c3565b92915050565b600080fd5b600060ff82169050919050565b610808816107f2565b811461081357600080fd5b50565b600081359050610825816107ff565b92915050565b6000819050919050565b61083e8161082b565b811461084957600080fd5b50565b60008135905061085b81610835565b92915050565b60008060006060848603121561087a576108796107ed565b5b600061088886828701610816565b93505060206108998682870161084c565b92505060406108aa8682870161084c565b9150509250925092565b6108bd816107b1565b81146108c857600080fd5b50565b6000813590506108da816108b4565b92915050565b6000602082840312156108f6576108f56107ed565b5b6000610904848285016108cb565b91505092915050565b600082825260208201905092915050565b7f4d696e74206e6f7420616c6c6f77656400000000000000000000000000000000600082015250565b600061095460108361090d565b915061095f8261091e565b602082019050919050565b6000602082019050818103600083015261098381610947565b9050919050565b7f4f6e6c792041646d696e732063616e20736574207369676e6572000000000000600082015250565b60006109c0601a8361090d565b91506109cb8261098a565b602082019050919050565b600060208201905081810360008301526109ef816109b3565b9050919050565b60008160601b9050919050565b6000610a0e826109f6565b9050919050565b6000610a2082610a03565b9050919050565b610a38610a33826107b1565b610a15565b82525050565b60008160f81b9050919050565b6000610a5682610a3e565b9050919050565b6000610a6882610a4b565b9050919050565b610a80610a7b8261075b565b610a5d565b82525050565b6000610a928287610a27565b601482019150610aa28286610a27565b601482019150610ab28285610a6f565b600182019150610ac28284610a6f565b60018201915081905095945050505050565b600081905092915050565b7f19457468657265756d205369676e6564204d6573736167653a0a333200000000600082015250565b6000610b15601c83610ad4565b9150610b2082610adf565b601c82019050919050565b6000819050919050565b610b46610b418261082b565b610b2b565b82525050565b6000610b5782610b08565b9150610b638284610b35565b60208201915081905092915050565b610b7b8161082b565b82525050565b610b8a816107f2565b82525050565b6000608082019050610ba56000830187610b72565b610bb26020830186610b81565b610bbf6040830185610b72565b610bcc6060830184610b72565b9594505050505056fea26469706673582212202bdd1b8cd5dfb04bed5fbf9eba1cc33d363ec61fb90c1ba0a84342d4ccc1d2f764736f6c634300080d0033",
  "immutableReferences": {},
  "source": "// SPDX-License-Identifier: MIT\n\npragma solidity >= 0.8.13;\n\nimport \"./AnastasisAct3.sol\";\nimport \"./FundSplit.sol\";\nimport \"@openzeppelin/contracts/token/ERC721/IERC721.sol\";\nimport \"@openzeppelin/contracts/token/ERC20/IERC20.sol\";\n\ncontract AnastasisCreatorMint {\n\n    address public _anastasisAct3Address= 0xD6D0C1A49E83DF2F4Cb6b711ba915A8f05bC04f9;\n    address private _signer;\n\n    bool public _mintOpened;\n\n    mapping (address => bool) _isAdmin;\n    mapping (address => bool) public _hasMinted;\n\n    constructor(){\n        _isAdmin[msg.sender] = true;\n    }\n\n    function setAnastasisAct3Address(address anastasisAct3Address) external{\n        require(_isAdmin[msg.sender]);\n        _anastasisAct3Address = anastasisAct3Address;\n    }\n\n    function toggleAdmin(address newAdmin)external{\n        require(_isAdmin[msg.sender]);\n        _isAdmin[newAdmin] = !_isAdmin[newAdmin];\n    }\n    \n    function toggleMintOpened()external{\n        require(_isAdmin[msg.sender]);\n        _mintOpened = !_mintOpened;\n    }\n\n    function setSigner (address signer) external{\n        require(_isAdmin[msg.sender], \"Only Admins can set signer\");\n        _signer = signer;\n    }\n\n    function mintAllowed( uint8 v, bytes32 r, bytes32 s)internal view returns(bool){\n        return(\n            _signer ==\n                ecrecover(\n                    keccak256(\n                        abi.encodePacked(\n                            \"\\x19Ethereum Signed Message:\\n32\",\n                            keccak256(\n                                abi.encodePacked(\n                                    msg.sender,\n                                    _anastasisAct3Address,\n                                    _mintOpened,\n                                    _hasMinted[msg.sender] // should be false\n                                )\n                            )\n                        )\n                    )\n                , v, r, s)\n        );\n    }\n\n\n    function getFreeMint(\n        uint8 v,\n        bytes32 r, \n        bytes32 s\n    )external{\n        require(mintAllowed(v, r, s), \"Mint not allowed\");\n        Anastasis_Act3(_anastasisAct3Address).mint(msg.sender);\n        _hasMinted[msg.sender] = true;\n    }\n\n}",
  "sourcePath": "/Users/bct/Documents/Dev/NFT_dev/Anastasis/contracts/Act3CreatorMint.sol",
  "compiler": {
    "name": "solc",
    "version": "0.8.13+commit.abaa5c0e.Emscripten.clang"
  },
  "schemaVersion": "3.4.4",
  "updatedAt": "2022-10-06T13:44:43.007Z",
  "devdoc": {
    "kind": "dev",
    "methods": {},
    "version": 1
  },
  "userdoc": {
    "kind": "user",
    "methods": {},
    "version": 1
  }
}