{
  "contractName": "AnastasisLimitedEdition",
  "abi": [
    {
      "inputs": [],
      "stateMutability": "nonpayable",
      "type": "constructor"
    },
    {
      "inputs": [],
      "name": "_ALMintOpened",
      "outputs": [
        {
          "internalType": "bool",
          "name": "",
          "type": "bool"
        }
      ],
      "stateMutability": "view",
      "type": "function"
    },
    {
      "inputs": [
        {
          "internalType": "address",
          "name": "",
          "type": "address"
        }
      ],
      "name": "_addressMintedInPrivateSale",
      "outputs": [
        {
          "internalType": "bool",
          "name": "",
          "type": "bool"
        }
      ],
      "stateMutability": "view",
      "type": "function"
    },
    {
      "inputs": [
        {
          "internalType": "address",
          "name": "",
          "type": "address"
        }
      ],
      "name": "_addressMintedInPublicSale",
      "outputs": [
        {
          "internalType": "bool",
          "name": "",
          "type": "bool"
        }
      ],
      "stateMutability": "view",
      "type": "function"
    },
    {
      "inputs": [],
      "name": "_anastasisAct2Address",
      "outputs": [
        {
          "internalType": "address",
          "name": "",
          "type": "address"
        }
      ],
      "stateMutability": "view",
      "type": "function"
    },
    {
      "inputs": [],
      "name": "_anastasisAct3Address",
      "outputs": [
        {
          "internalType": "address",
          "name": "",
          "type": "address"
        }
      ],
      "stateMutability": "view",
      "type": "function"
    },
    {
      "inputs": [],
      "name": "_ashAddress",
      "outputs": [
        {
          "internalType": "address",
          "name": "",
          "type": "address"
        }
      ],
      "stateMutability": "view",
      "type": "function"
    },
    {
      "inputs": [],
      "name": "_ashMintOpened",
      "outputs": [
        {
          "internalType": "bool",
          "name": "",
          "type": "bool"
        }
      ],
      "stateMutability": "view",
      "type": "function"
    },
    {
      "inputs": [],
      "name": "_fomoMintOpened",
      "outputs": [
        {
          "internalType": "bool",
          "name": "",
          "type": "bool"
        }
      ],
      "stateMutability": "view",
      "type": "function"
    },
    {
      "inputs": [],
      "name": "_fomoverseAddress",
      "outputs": [
        {
          "internalType": "address",
          "name": "",
          "type": "address"
        }
      ],
      "stateMutability": "view",
      "type": "function"
    },
    {
      "inputs": [
        {
          "internalType": "address",
          "name": "",
          "type": "address"
        }
      ],
      "name": "_isAdmin",
      "outputs": [
        {
          "internalType": "bool",
          "name": "",
          "type": "bool"
        }
      ],
      "stateMutability": "view",
      "type": "function"
    },
    {
      "inputs": [],
      "name": "_price",
      "outputs": [
        {
          "internalType": "uint256",
          "name": "",
          "type": "uint256"
        }
      ],
      "stateMutability": "view",
      "type": "function"
    },
    {
      "inputs": [],
      "name": "_publicMintOpened",
      "outputs": [
        {
          "internalType": "bool",
          "name": "",
          "type": "bool"
        }
      ],
      "stateMutability": "view",
      "type": "function"
    },
    {
      "inputs": [
        {
          "internalType": "address",
          "name": "newAdmin",
          "type": "address"
        }
      ],
      "name": "approveAdmin",
      "outputs": [],
      "stateMutability": "nonpayable",
      "type": "function"
    },
    {
      "inputs": [
        {
          "internalType": "address",
          "name": "exAdmin",
          "type": "address"
        }
      ],
      "name": "removeAdmin",
      "outputs": [],
      "stateMutability": "nonpayable",
      "type": "function"
    },
    {
      "inputs": [
        {
          "internalType": "address",
          "name": "recipient",
          "type": "address"
        }
      ],
      "name": "setRecipient",
      "outputs": [],
      "stateMutability": "nonpayable",
      "type": "function"
    },
    {
      "inputs": [
        {
          "internalType": "address",
          "name": "signer",
          "type": "address"
        }
      ],
      "name": "setSigner",
      "outputs": [],
      "stateMutability": "nonpayable",
      "type": "function"
    },
    {
      "inputs": [
        {
          "internalType": "address",
          "name": "ashAddress",
          "type": "address"
        }
      ],
      "name": "setAshAddress",
      "outputs": [],
      "stateMutability": "nonpayable",
      "type": "function"
    },
    {
      "inputs": [
        {
          "internalType": "address",
          "name": "anastasisAct2Address",
          "type": "address"
        }
      ],
      "name": "setAnastasisAct2Address",
      "outputs": [],
      "stateMutability": "nonpayable",
      "type": "function"
    },
    {
      "inputs": [
        {
          "internalType": "address",
          "name": "anastasisAct3Address",
          "type": "address"
        }
      ],
      "name": "setAnastasisAct3Address",
      "outputs": [],
      "stateMutability": "nonpayable",
      "type": "function"
    },
    {
      "inputs": [
        {
          "internalType": "address",
          "name": "FOMOAddress",
          "type": "address"
        }
      ],
      "name": "setFOMOAddress",
      "outputs": [],
      "stateMutability": "nonpayable",
      "type": "function"
    },
    {
      "inputs": [],
      "name": "toggleFomoMintOpened",
      "outputs": [],
      "stateMutability": "nonpayable",
      "type": "function"
    },
    {
      "inputs": [],
      "name": "toggleAshMintOpened",
      "outputs": [],
      "stateMutability": "nonpayable",
      "type": "function"
    },
    {
      "inputs": [],
      "name": "toggleALMintOpened",
      "outputs": [],
      "stateMutability": "nonpayable",
      "type": "function"
    },
    {
      "inputs": [],
      "name": "togglePublicMintOpened",
      "outputs": [],
      "stateMutability": "nonpayable",
      "type": "function"
    },
    {
      "inputs": [],
      "name": "fomoHoldersMint",
      "outputs": [],
      "stateMutability": "payable",
      "type": "function"
    },
    {
      "inputs": [],
      "name": "ashHoldersMint",
      "outputs": [],
      "stateMutability": "payable",
      "type": "function"
    },
    {
      "inputs": [
        {
          "internalType": "uint8",
          "name": "v",
          "type": "uint8"
        },
        {
          "internalType": "bytes32",
          "name": "r",
          "type": "bytes32"
        },
        {
          "internalType": "bytes32",
          "name": "s",
          "type": "bytes32"
        }
      ],
      "name": "selectedMint",
      "outputs": [],
      "stateMutability": "payable",
      "type": "function"
    },
    {
      "inputs": [],
      "name": "publicMint",
      "outputs": [],
      "stateMutability": "payable",
      "type": "function"
    }
  ],
  "bytecode": "0x6080604052666a94d74f4300006000557364d91f12ece7362f91a6f8e7940cd55f05060b92600160006101000a81548173ffffffffffffffffffffffffffffffffffffffff021916908373ffffffffffffffffffffffffffffffffffffffff1602179055507374bb71a4210e33256885def483fd4227b7f9d88f600260006101000a81548173ffffffffffffffffffffffffffffffffffffffff021916908373ffffffffffffffffffffffffffffffffffffffff1602179055503480156100c557600080fd5b506001600760003373ffffffffffffffffffffffffffffffffffffffff1673ffffffffffffffffffffffffffffffffffffffff16815260200190815260200160002060006101000a81548160ff0219169083151502179055506122cb8061012d6000396000f3fe6080604052600436106101b75760003560e01c806392c63548116100ec578063aecd2cd01161008a578063dfa9ea7f11610064578063dfa9ea7f14610539578063e9e43f1f14610550578063ef3ef4e51461058d578063ff873e1b146105b8576101b7565b8063aecd2cd0146104d9578063b3ea85e714610504578063cbaa64a01461050e576101b7565b80639c04924e116100c65780639c04924e1461041f5780639f5eca6414610448578063abffaf4a14610485578063acb4f941146104ae576101b7565b806392c63548146103b4578063932796ce146103df5780639b437ba414610408576101b7565b806361707e3a11610159578063724bfed611610133578063724bfed61461031e57806374ef39621461034957806382e02c301461037257806390f40b851461039d576101b7565b806361707e3a146102a15780636c19e783146102cc5780636d73e669146102f5576101b7565b806326092b831161019557806326092b83146102275780633bbed4a0146102315780633e000fce1461025a578063543e6b5314610264576101b7565b80630a20fea7146101bc5780631785f53c146101d3578063235b6ea1146101fc575b600080fd5b3480156101c857600080fd5b506101d16105d4565b005b3480156101df57600080fd5b506101fa60048036038101906101f59190611c41565b610656565b005b34801561020857600080fd5b50610211610707565b60405161021e9190611c87565b60405180910390f35b61022f61070d565b005b34801561023d57600080fd5b5061025860048036038101906102539190611c41565b6109b3565b005b610262610a4d565b005b34801561027057600080fd5b5061028b60048036038101906102869190611c41565b610dd2565b6040516102989190611cbd565b60405180910390f35b3480156102ad57600080fd5b506102b6610df2565b6040516102c39190611ce7565b60405180910390f35b3480156102d857600080fd5b506102f360048036038101906102ee9190611c41565b610e18565b005b34801561030157600080fd5b5061031c60048036038101906103179190611c41565b610ee8565b005b34801561032a57600080fd5b50610333610f99565b6040516103409190611ce7565b60405180910390f35b34801561035557600080fd5b50610370600480360381019061036b9190611c41565b610fbf565b005b34801561037e57600080fd5b50610387611059565b6040516103949190611ce7565b60405180910390f35b3480156103a957600080fd5b506103b261107f565b005b3480156103c057600080fd5b506103c9611101565b6040516103d69190611cbd565b60405180910390f35b3480156103eb57600080fd5b5061040660048036038101906104019190611c41565b611114565b005b34801561041457600080fd5b5061041d6111ae565b005b34801561042b57600080fd5b5061044660048036038101906104419190611c41565b611230565b005b34801561045457600080fd5b5061046f600480360381019061046a9190611c41565b6112ca565b60405161047c9190611cbd565b60405180910390f35b34801561049157600080fd5b506104ac60048036038101906104a79190611c41565b6112ea565b005b3480156104ba57600080fd5b506104c3611384565b6040516104d09190611cbd565b60405180910390f35b3480156104e557600080fd5b506104ee611397565b6040516104fb9190611ce7565b60405180910390f35b61050c6113bd565b005b34801561051a57600080fd5b506105236117bc565b6040516105309190611cbd565b60405180910390f35b34801561054557600080fd5b5061054e6117cf565b005b34801561055c57600080fd5b5061057760048036038101906105729190611c41565b611851565b6040516105849190611cbd565b60405180910390f35b34801561059957600080fd5b506105a2611871565b6040516105af9190611cbd565b60405180910390f35b6105d260048036038101906105cd9190611d71565b611884565b005b600760003373ffffffffffffffffffffffffffffffffffffffff1673ffffffffffffffffffffffffffffffffffffffff16815260200190815260200160002060009054906101000a900460ff1661062a57600080fd5b600660169054906101000a900460ff1615600660166101000a81548160ff021916908315150217905550565b600760003373ffffffffffffffffffffffffffffffffffffffff1673ffffffffffffffffffffffffffffffffffffffff16815260200190815260200160002060009054906101000a900460ff166106ac57600080fd5b6000600760008373ffffffffffffffffffffffffffffffffffffffff1673ffffffffffffffffffffffffffffffffffffffff16815260200190815260200160002060006101000a81548160ff02191690831515021790555050565b60005481565b600660179054906101000a900460ff1661075c576040517f08c379a000000000000000000000000000000000000000000000000000000000815260040161075390611e21565b60405180910390fd5b6000543410156107a1576040517f08c379a000000000000000000000000000000000000000000000000000000000815260040161079890611e8d565b60405180910390fd5b600860003373ffffffffffffffffffffffffffffffffffffffff1673ffffffffffffffffffffffffffffffffffffffff16815260200190815260200160002060009054906101000a900460ff161561082e576040517f08c379a000000000000000000000000000000000000000000000000000000000815260040161082590611ef9565b60405180910390fd5b6000600560009054906101000a900473ffffffffffffffffffffffffffffffffffffffff1673ffffffffffffffffffffffffffffffffffffffff166108fc6000549081150290604051600060405180830381858888f193505050509050806108cb576040517f08c379a00000000000000000000000000000000000000000000000000000000081526004016108c290611f65565b60405180910390fd5b6001600860003373ffffffffffffffffffffffffffffffffffffffff1673ffffffffffffffffffffffffffffffffffffffff16815260200190815260200160002060006101000a81548160ff021916908315150217905550600460009054906101000a900473ffffffffffffffffffffffffffffffffffffffff1673ffffffffffffffffffffffffffffffffffffffff16636a627842336040518263ffffffff1660e01b815260040161097e9190611ce7565b600060405180830381600087803b15801561099857600080fd5b505af11580156109ac573d6000803e3d6000fd5b5050505050565b600760003373ffffffffffffffffffffffffffffffffffffffff1673ffffffffffffffffffffffffffffffffffffffff16815260200190815260200160002060009054906101000a900460ff16610a0957600080fd5b80600560006101000a81548173ffffffffffffffffffffffffffffffffffffffff021916908373ffffffffffffffffffffffffffffffffffffffff16021790555050565b600660149054906101000a900460ff16610a9c576040517f08c379a0000000000000000000000000000000000000000000000000000000008152600401610a9390611e21565b60405180910390fd5b6001600260009054906101000a900473ffffffffffffffffffffffffffffffffffffffff1673ffffffffffffffffffffffffffffffffffffffff166370a08231336040518263ffffffff1660e01b8152600401610af99190611ce7565b602060405180830381865afa158015610b16573d6000803e3d6000fd5b505050506040513d601f19601f82011682018060405250810190610b3a9190611fb1565b1015610b7b576040517f08c379a0000000000000000000000000000000000000000000000000000000008152600401610b729061202a565b60405180910390fd5b600054341015610bc0576040517f08c379a0000000000000000000000000000000000000000000000000000000008152600401610bb790611e8d565b60405180910390fd5b600960003373ffffffffffffffffffffffffffffffffffffffff1673ffffffffffffffffffffffffffffffffffffffff16815260200190815260200160002060009054906101000a900460ff1615610c4d576040517f08c379a0000000000000000000000000000000000000000000000000000000008152600401610c4490611ef9565b60405180910390fd5b6000600560009054906101000a900473ffffffffffffffffffffffffffffffffffffffff1673ffffffffffffffffffffffffffffffffffffffff166108fc6000549081150290604051600060405180830381858888f19350505050905080610cea576040517f08c379a0000000000000000000000000000000000000000000000000000000008152600401610ce190611f65565b60405180910390fd5b6001600960003373ffffffffffffffffffffffffffffffffffffffff1673ffffffffffffffffffffffffffffffffffffffff16815260200190815260200160002060006101000a81548160ff021916908315150217905550600460009054906101000a900473ffffffffffffffffffffffffffffffffffffffff1673ffffffffffffffffffffffffffffffffffffffff16636a627842336040518263ffffffff1660e01b8152600401610d9d9190611ce7565b600060405180830381600087803b158015610db757600080fd5b505af1158015610dcb573d6000803e3d6000fd5b5050505050565b60096020528060005260406000206000915054906101000a900460ff1681565b600460009054906101000a900473ffffffffffffffffffffffffffffffffffffffff1681565b600760003373ffffffffffffffffffffffffffffffffffffffff1673ffffffffffffffffffffffffffffffffffffffff16815260200190815260200160002060009054906101000a900460ff16610ea4576040517f08c379a0000000000000000000000000000000000000000000000000000000008152600401610e9b90612096565b60405180910390fd5b80600660006101000a81548173ffffffffffffffffffffffffffffffffffffffff021916908373ffffffffffffffffffffffffffffffffffffffff16021790555050565b600760003373ffffffffffffffffffffffffffffffffffffffff1673ffffffffffffffffffffffffffffffffffffffff16815260200190815260200160002060009054906101000a900460ff16610f3e57600080fd5b6001600760008373ffffffffffffffffffffffffffffffffffffffff1673ffffffffffffffffffffffffffffffffffffffff16815260200190815260200160002060006101000a81548160ff02191690831515021790555050565b600360009054906101000a900473ffffffffffffffffffffffffffffffffffffffff1681565b600760003373ffffffffffffffffffffffffffffffffffffffff1673ffffffffffffffffffffffffffffffffffffffff16815260200190815260200160002060009054906101000a900460ff1661101557600080fd5b80600160006101000a81548173ffffffffffffffffffffffffffffffffffffffff021916908373ffffffffffffffffffffffffffffffffffffffff16021790555050565b600260009054906101000a900473ffffffffffffffffffffffffffffffffffffffff1681565b600760003373ffffffffffffffffffffffffffffffffffffffff1673ffffffffffffffffffffffffffffffffffffffff16815260200190815260200160002060009054906101000a900460ff166110d557600080fd5b600660149054906101000a900460ff1615600660146101000a81548160ff021916908315150217905550565b600660149054906101000a900460ff1681565b600760003373ffffffffffffffffffffffffffffffffffffffff1673ffffffffffffffffffffffffffffffffffffffff16815260200190815260200160002060009054906101000a900460ff1661116a57600080fd5b80600360006101000a81548173ffffffffffffffffffffffffffffffffffffffff021916908373ffffffffffffffffffffffffffffffffffffffff16021790555050565b600760003373ffffffffffffffffffffffffffffffffffffffff1673ffffffffffffffffffffffffffffffffffffffff16815260200190815260200160002060009054906101000a900460ff1661120457600080fd5b600660159054906101000a900460ff1615600660156101000a81548160ff021916908315150217905550565b600760003373ffffffffffffffffffffffffffffffffffffffff1673ffffffffffffffffffffffffffffffffffffffff16815260200190815260200160002060009054906101000a900460ff1661128657600080fd5b80600460006101000a81548173ffffffffffffffffffffffffffffffffffffffff021916908373ffffffffffffffffffffffffffffffffffffffff16021790555050565b60086020528060005260406000206000915054906101000a900460ff1681565b600760003373ffffffffffffffffffffffffffffffffffffffff1673ffffffffffffffffffffffffffffffffffffffff16815260200190815260200160002060009054906101000a900460ff1661134057600080fd5b80600260006101000a81548173ffffffffffffffffffffffffffffffffffffffff021916908373ffffffffffffffffffffffffffffffffffffffff16021790555050565b600660179054906101000a900460ff1681565b600160009054906101000a900473ffffffffffffffffffffffffffffffffffffffff1681565b600660159054906101000a900460ff1661140c576040517f08c379a000000000000000000000000000000000000000000000000000000000815260040161140390611e21565b60405180910390fd5b6001600360009054906101000a900473ffffffffffffffffffffffffffffffffffffffff1673ffffffffffffffffffffffffffffffffffffffff166370a08231336040518263ffffffff1660e01b81526004016114699190611ce7565b602060405180830381865afa158015611486573d6000803e3d6000fd5b505050506040513d601f19601f820116820180604052508101906114aa9190611fb1565b1015801561155c575068015af1d78b58c40000600160009054906101000a900473ffffffffffffffffffffffffffffffffffffffff1673ffffffffffffffffffffffffffffffffffffffff166370a08231336040518263ffffffff1660e01b81526004016115189190611ce7565b602060405180830381865afa158015611535573d6000803e3d6000fd5b505050506040513d601f19601f820116820180604052508101906115599190611fb1565b10155b61156557600080fd5b6000543410156115aa576040517f08c379a00000000000000000000000000000000000000000000000000000000081526004016115a190611e8d565b60405180910390fd5b600960003373ffffffffffffffffffffffffffffffffffffffff1673ffffffffffffffffffffffffffffffffffffffff16815260200190815260200160002060009054906101000a900460ff1615611637576040517f08c379a000000000000000000000000000000000000000000000000000000000815260040161162e90611ef9565b60405180910390fd5b6000600560009054906101000a900473ffffffffffffffffffffffffffffffffffffffff1673ffffffffffffffffffffffffffffffffffffffff166108fc6000549081150290604051600060405180830381858888f193505050509050806116d4576040517f08c379a00000000000000000000000000000000000000000000000000000000081526004016116cb90611f65565b60405180910390fd5b6001600960003373ffffffffffffffffffffffffffffffffffffffff1673ffffffffffffffffffffffffffffffffffffffff16815260200190815260200160002060006101000a81548160ff021916908315150217905550600460009054906101000a900473ffffffffffffffffffffffffffffffffffffffff1673ffffffffffffffffffffffffffffffffffffffff16636a627842336040518263ffffffff1660e01b81526004016117879190611ce7565b600060405180830381600087803b1580156117a157600080fd5b505af11580156117b5573d6000803e3d6000fd5b5050505050565b600660159054906101000a900460ff1681565b600760003373ffffffffffffffffffffffffffffffffffffffff1673ffffffffffffffffffffffffffffffffffffffff16815260200190815260200160002060009054906101000a900460ff1661182557600080fd5b600660179054906101000a900460ff1615600660176101000a81548160ff021916908315150217905550565b60076020528060005260406000206000915054906101000a900460ff1681565b600660169054906101000a900460ff1681565b61188f838383611a65565b61189857600080fd5b6000543410156118dd576040517f08c379a00000000000000000000000000000000000000000000000000000000081526004016118d490611e8d565b60405180910390fd5b6000600560009054906101000a900473ffffffffffffffffffffffffffffffffffffffff1673ffffffffffffffffffffffffffffffffffffffff166108fc6000549081150290604051600060405180830381858888f1935050505090508061197a576040517f08c379a000000000000000000000000000000000000000000000000000000000815260040161197190611f65565b60405180910390fd5b6001600960003373ffffffffffffffffffffffffffffffffffffffff1673ffffffffffffffffffffffffffffffffffffffff16815260200190815260200160002060006101000a81548160ff021916908315150217905550600460009054906101000a900473ffffffffffffffffffffffffffffffffffffffff1673ffffffffffffffffffffffffffffffffffffffff16636a627842336040518263ffffffff1660e01b8152600401611a2d9190611ce7565b600060405180830381600087803b158015611a4757600080fd5b505af1158015611a5b573d6000803e3d6000fd5b5050505050505050565b6000600133600460009054906101000a900473ffffffffffffffffffffffffffffffffffffffff16600660169054906101000a900460ff16600960003373ffffffffffffffffffffffffffffffffffffffff1673ffffffffffffffffffffffffffffffffffffffff16815260200190815260200160002060009054906101000a900460ff16604051602001611afd9493929190612146565b60405160208183030381529060405280519060200120604051602001611b23919061220c565b6040516020818303038152906040528051906020012085858560405160008152602001604052604051611b599493929190612250565b6020604051602081039080840390855afa158015611b7b573d6000803e3d6000fd5b5050506020604051035173ffffffffffffffffffffffffffffffffffffffff16600660009054906101000a900473ffffffffffffffffffffffffffffffffffffffff1673ffffffffffffffffffffffffffffffffffffffff161490509392505050565b600080fd5b600073ffffffffffffffffffffffffffffffffffffffff82169050919050565b6000611c0e82611be3565b9050919050565b611c1e81611c03565b8114611c2957600080fd5b50565b600081359050611c3b81611c15565b92915050565b600060208284031215611c5757611c56611bde565b5b6000611c6584828501611c2c565b91505092915050565b6000819050919050565b611c8181611c6e565b82525050565b6000602082019050611c9c6000830184611c78565b92915050565b60008115159050919050565b611cb781611ca2565b82525050565b6000602082019050611cd26000830184611cae565b92915050565b611ce181611c03565b82525050565b6000602082019050611cfc6000830184611cd8565b92915050565b600060ff82169050919050565b611d1881611d02565b8114611d2357600080fd5b50565b600081359050611d3581611d0f565b92915050565b6000819050919050565b611d4e81611d3b565b8114611d5957600080fd5b50565b600081359050611d6b81611d45565b92915050565b600080600060608486031215611d8a57611d89611bde565b5b6000611d9886828701611d26565b9350506020611da986828701611d5c565b9250506040611dba86828701611d5c565b9150509250925092565b600082825260208201905092915050565b7f4d696e7420636c6f736564000000000000000000000000000000000000000000600082015250565b6000611e0b600b83611dc4565b9150611e1682611dd5565b602082019050919050565b60006020820190508181036000830152611e3a81611dfe565b9050919050565b7f4e6f7420656e6f7567682066756e647300000000000000000000000000000000600082015250565b6000611e77601083611dc4565b9150611e8282611e41565b602082019050919050565b60006020820190508181036000830152611ea681611e6a565b9050919050565b7f416c7265616479204d696e746564000000000000000000000000000000000000600082015250565b6000611ee3600e83611dc4565b9150611eee82611ead565b602082019050919050565b60006020820190508181036000830152611f1281611ed6565b9050919050565b7f46756e647320636f756c64206e6f74207472616e736665720000000000000000600082015250565b6000611f4f601883611dc4565b9150611f5a82611f19565b602082019050919050565b60006020820190508181036000830152611f7e81611f42565b9050919050565b611f8e81611c6e565b8114611f9957600080fd5b50565b600081519050611fab81611f85565b92915050565b600060208284031215611fc757611fc6611bde565b5b6000611fd584828501611f9c565b91505092915050565b7f596f752061726565206e6f74206120464f4d4f20686f6c646572000000000000600082015250565b6000612014601a83611dc4565b915061201f82611fde565b602082019050919050565b6000602082019050818103600083015261204381612007565b9050919050565b7f4f6e6c792041646d696e732063616e20736574207369676e6572000000000000600082015250565b6000612080601a83611dc4565b915061208b8261204a565b602082019050919050565b600060208201905081810360008301526120af81612073565b9050919050565b60008160601b9050919050565b60006120ce826120b6565b9050919050565b60006120e0826120c3565b9050919050565b6120f86120f382611c03565b6120d5565b82525050565b60008160f81b9050919050565b6000612116826120fe565b9050919050565b60006121288261210b565b9050919050565b61214061213b82611ca2565b61211d565b82525050565b600061215282876120e7565b60148201915061216282866120e7565b601482019150612172828561212f565b600182019150612182828461212f565b60018201915081905095945050505050565b600081905092915050565b7f19457468657265756d205369676e6564204d6573736167653a0a333200000000600082015250565b60006121d5601c83612194565b91506121e08261219f565b601c82019050919050565b6000819050919050565b61220661220182611d3b565b6121eb565b82525050565b6000612217826121c8565b915061222382846121f5565b60208201915081905092915050565b61223b81611d3b565b82525050565b61224a81611d02565b82525050565b60006080820190506122656000830187612232565b6122726020830186612241565b61227f6040830185612232565b61228c6060830184612232565b9594505050505056fea2646970667358221220b727421790e643c60270da9f8d05174068680d3df35bb1ff8d6115fc8c4e71e264736f6c634300080d0033",
  "immutableReferences": {},
  "source": "// SPDX-License-Identifier: MIT\n\npragma solidity >= 0.8.13;\n\nimport \"./AnastasisAct3.sol\";\nimport \"@openzeppelin/contracts/token/ERC721/IERC721.sol\";\nimport \"@openzeppelin/contracts/token/ERC20/IERC20.sol\";\n\ncontract AnastasisLimitedEdition {\n\n    uint256 public _price = 0.03 ether;\n\n    address public _ashAddress= 0x64D91f12Ece7362F91A6f8E7940Cd55F05060b92;\n    address public _fomoverseAddress = 0x74BB71a4210E33256885DEF483fD4227b7f9D88F;\n    address public _anastasisAct2Address;\n    address public _anastasisAct3Address;\n    address private _recipient;\n    address private _signer;\n\n    bool public _fomoMintOpened;\n    bool public _ashMintOpened;\n    bool public _ALMintOpened;\n    bool public _publicMintOpened;\n\n    mapping (address => bool) public _isAdmin;\n    mapping (address => bool) public _addressMintedInPublicSale;\n    mapping (address => bool) public _addressMintedInPrivateSale;\n\n\n    constructor(){\n        _isAdmin[msg.sender] = true;\n    }\n\n    function approveAdmin(address newAdmin)external{\n        require(_isAdmin[msg.sender]);\n        _isAdmin[newAdmin] = true;\n    }\n\n    function removeAdmin(address exAdmin)external{\n        require(_isAdmin[msg.sender]);\n        _isAdmin[exAdmin] = false;\n    }\n\n    function setRecipient(address recipient) external {\n        require(_isAdmin[msg.sender]);\n        _recipient = recipient;\n    }\n\n    function setSigner (address signer) external{\n        require(_isAdmin[msg.sender], \"Only Admins can set signer\");\n        _signer = signer;\n    }\n\n    function setAshAddress(address ashAddress) external{\n        require(_isAdmin[msg.sender]);\n        _ashAddress = ashAddress;\n    }\n\n    function setAnastasisAct2Address(address anastasisAct2Address) external{\n        require(_isAdmin[msg.sender]);\n        _anastasisAct2Address = anastasisAct2Address;\n    }\n\n    function setAnastasisAct3Address(address anastasisAct3Address) external{\n        require(_isAdmin[msg.sender]);\n        _anastasisAct3Address = anastasisAct3Address;\n    }\n\n    function setFOMOAddress(address FOMOAddress) external{\n        require(_isAdmin[msg.sender]);\n        _fomoverseAddress = FOMOAddress;\n    }\n\n    function toggleFomoMintOpened()external{\n        require(_isAdmin[msg.sender]);\n        _fomoMintOpened = !_fomoMintOpened;\n    }\n\n    function toggleAshMintOpened()external{\n        require(_isAdmin[msg.sender]);\n        _ashMintOpened = !_ashMintOpened;\n    }\n\n    function toggleALMintOpened()external{\n        require(_isAdmin[msg.sender]);\n        _ALMintOpened = !_ALMintOpened;\n    }\n\n    function togglePublicMintOpened()external{\n        require(_isAdmin[msg.sender]);\n        _publicMintOpened = !_publicMintOpened;\n    }\n\n    function selectedByArtist( uint8 v, bytes32 r, bytes32 s)internal view returns(bool){\n        return(\n            _signer ==\n                ecrecover(\n                    keccak256(\n                        abi.encodePacked(\n                            \"\\x19Ethereum Signed Message:\\n32\",\n                            keccak256(\n                                abi.encodePacked(\n                                    msg.sender,\n                                    _anastasisAct3Address,\n                                    _ALMintOpened,\n                                    _addressMintedInPrivateSale[msg.sender] // should be false\n                                )\n                            )\n                        )\n                    )\n                , v, r, s)\n        );\n    }\n\n    function fomoHoldersMint()external payable{\n        require(_fomoMintOpened, \"Mint closed\");\n        require(IERC721(_fomoverseAddress).balanceOf(msg.sender)>= 1, \"You aree not a FOMO holder\");\n        require(msg.value >= _price, \"Not enough funds\");\n        require(!_addressMintedInPrivateSale[msg.sender], \"Already Minted\");\n         bool success = payable(_recipient).send(_price);\n        require(success, \"Funds could not transfer\");\n        _addressMintedInPrivateSale[msg.sender] = true;\n        Anastasis_Act3(_anastasisAct3Address).mint(msg.sender);\n    }\n\n    function ashHoldersMint()external payable{\n        require(_ashMintOpened, \"Mint closed\");\n        require(\n            IERC721(_anastasisAct2Address).balanceOf(msg.sender)>= 1 &&\n            IERC20(_ashAddress).balanceOf(msg.sender) >= 25*10**18\n        );\n        require(msg.value >= _price, \"Not enough funds\");\n        require(!_addressMintedInPrivateSale[msg.sender], \"Already Minted\");\n         bool success = payable(_recipient).send(_price);\n        require(success, \"Funds could not transfer\");\n        _addressMintedInPrivateSale[msg.sender] = true;\n        Anastasis_Act3(_anastasisAct3Address).mint(msg.sender);\n    }\n\n    function selectedMint(\n        uint8 v,\n        bytes32 r, \n        bytes32 s\n    )external payable{\n        require(selectedByArtist(v, r, s));\n        require(msg.value >= _price, \"Not enough funds\");\n        bool success = payable(_recipient).send(_price);\n        require(success, \"Funds could not transfer\");\n        _addressMintedInPrivateSale[msg.sender] = true;\n        Anastasis_Act3(_anastasisAct3Address).mint(msg.sender);\n    }\n\n    function publicMint() external payable{\n        require(_publicMintOpened, \"Mint closed\");\n        require(msg.value >= _price, \"Not enough funds\");\n        require(!_addressMintedInPublicSale[msg.sender], \"Already Minted\");\n        bool success = payable(_recipient).send(_price);\n        require(success, \"Funds could not transfer\");\n        _addressMintedInPublicSale[msg.sender] = true;\n        Anastasis_Act3(_anastasisAct3Address).mint(msg.sender);\n    }\n\n}",
  "sourcePath": "/Users/bct/Documents/Dev/NFT_dev/Anastasis/contracts/AnastasisAct3Mint.sol",
  "compiler": {
    "name": "solc",
    "version": "0.8.13+commit.abaa5c0e.Emscripten.clang"
  },
  "schemaVersion": "3.4.4",
  "updatedAt": "2022-10-06T13:44:43.137Z",
  "devdoc": {
    "kind": "dev",
    "methods": {},
    "version": 1
  },
  "userdoc": {
    "kind": "user",
    "methods": {},
    "version": 1
  }
}