{
  "contractName": "Anastasis_Act3",
  "abi": [
    {
      "inputs": [],
      "stateMutability": "nonpayable",
      "type": "constructor"
    },
    {
      "anonymous": false,
      "inputs": [
        {
          "indexed": true,
          "internalType": "address",
          "name": "account",
          "type": "address"
        },
        {
          "indexed": true,
          "internalType": "address",
          "name": "sender",
          "type": "address"
        }
      ],
      "name": "AdminApproved",
      "type": "event"
    },
    {
      "anonymous": false,
      "inputs": [
        {
          "indexed": true,
          "internalType": "address",
          "name": "account",
          "type": "address"
        },
        {
          "indexed": true,
          "internalType": "address",
          "name": "sender",
          "type": "address"
        }
      ],
      "name": "AdminRevoked",
      "type": "event"
    },
    {
      "anonymous": false,
      "inputs": [
        {
          "indexed": true,
          "internalType": "address",
          "name": "owner",
          "type": "address"
        },
        {
          "indexed": true,
          "internalType": "address",
          "name": "approved",
          "type": "address"
        },
        {
          "indexed": true,
          "internalType": "uint256",
          "name": "tokenId",
          "type": "uint256"
        }
      ],
      "name": "Approval",
      "type": "event"
    },
    {
      "anonymous": false,
      "inputs": [
        {
          "indexed": true,
          "internalType": "address",
          "name": "owner",
          "type": "address"
        },
        {
          "indexed": true,
          "internalType": "address",
          "name": "operator",
          "type": "address"
        },
        {
          "indexed": false,
          "internalType": "bool",
          "name": "approved",
          "type": "bool"
        }
      ],
      "name": "ApprovalForAll",
      "type": "event"
    },
    {
      "anonymous": false,
      "inputs": [
        {
          "indexed": true,
          "internalType": "address",
          "name": "previousOwner",
          "type": "address"
        },
        {
          "indexed": true,
          "internalType": "address",
          "name": "newOwner",
          "type": "address"
        }
      ],
      "name": "OwnershipTransferred",
      "type": "event"
    },
    {
      "anonymous": false,
      "inputs": [
        {
          "indexed": true,
          "internalType": "address",
          "name": "from",
          "type": "address"
        },
        {
          "indexed": true,
          "internalType": "address",
          "name": "to",
          "type": "address"
        },
        {
          "indexed": true,
          "internalType": "uint256",
          "name": "tokenId",
          "type": "uint256"
        }
      ],
      "name": "Transfer",
      "type": "event"
    },
    {
      "inputs": [
        {
          "internalType": "uint256",
          "name": "",
          "type": "uint256"
        }
      ],
      "name": "_availableURIs",
      "outputs": [
        {
          "internalType": "uint256",
          "name": "",
          "type": "uint256"
        }
      ],
      "stateMutability": "view",
      "type": "function"
    },
    {
      "inputs": [],
      "name": "_editionNumber",
      "outputs": [
        {
          "internalType": "uint256",
          "name": "",
          "type": "uint256"
        }
      ],
      "stateMutability": "view",
      "type": "function"
    },
    {
      "inputs": [],
      "name": "_maxSupply",
      "outputs": [
        {
          "internalType": "uint256",
          "name": "",
          "type": "uint256"
        }
      ],
      "stateMutability": "view",
      "type": "function"
    },
    {
      "inputs": [],
      "name": "_saURI",
      "outputs": [
        {
          "internalType": "uint256",
          "name": "",
          "type": "uint256"
        }
      ],
      "stateMutability": "view",
      "type": "function"
    },
    {
      "inputs": [],
      "name": "_tokenId",
      "outputs": [
        {
          "internalType": "uint256",
          "name": "",
          "type": "uint256"
        }
      ],
      "stateMutability": "view",
      "type": "function"
    },
    {
      "inputs": [
        {
          "internalType": "uint256",
          "name": "",
          "type": "uint256"
        }
      ],
      "name": "_tokenURIs",
      "outputs": [
        {
          "internalType": "uint256",
          "name": "",
          "type": "uint256"
        }
      ],
      "stateMutability": "view",
      "type": "function"
    },
    {
      "inputs": [],
      "name": "_uri",
      "outputs": [
        {
          "internalType": "string",
          "name": "",
          "type": "string"
        }
      ],
      "stateMutability": "view",
      "type": "function"
    },
    {
      "inputs": [
        {
          "internalType": "address",
          "name": "to",
          "type": "address"
        },
        {
          "internalType": "uint256",
          "name": "tokenId",
          "type": "uint256"
        }
      ],
      "name": "approve",
      "outputs": [],
      "stateMutability": "nonpayable",
      "type": "function"
    },
    {
      "inputs": [
        {
          "internalType": "address",
          "name": "admin",
          "type": "address"
        }
      ],
      "name": "approveAdmin",
      "outputs": [],
      "stateMutability": "nonpayable",
      "type": "function"
    },
    {
      "inputs": [
        {
          "internalType": "address",
          "name": "owner",
          "type": "address"
        }
      ],
      "name": "balanceOf",
      "outputs": [
        {
          "internalType": "uint256",
          "name": "",
          "type": "uint256"
        }
      ],
      "stateMutability": "view",
      "type": "function"
    },
    {
      "inputs": [],
      "name": "getAdmins",
      "outputs": [
        {
          "internalType": "address[]",
          "name": "admins",
          "type": "address[]"
        }
      ],
      "stateMutability": "view",
      "type": "function"
    },
    {
      "inputs": [
        {
          "internalType": "uint256",
          "name": "tokenId",
          "type": "uint256"
        }
      ],
      "name": "getApproved",
      "outputs": [
        {
          "internalType": "address",
          "name": "",
          "type": "address"
        }
      ],
      "stateMutability": "view",
      "type": "function"
    },
    {
      "inputs": [
        {
          "internalType": "address",
          "name": "admin",
          "type": "address"
        }
      ],
      "name": "isAdmin",
      "outputs": [
        {
          "internalType": "bool",
          "name": "",
          "type": "bool"
        }
      ],
      "stateMutability": "view",
      "type": "function"
    },
    {
      "inputs": [
        {
          "internalType": "address",
          "name": "owner",
          "type": "address"
        },
        {
          "internalType": "address",
          "name": "operator",
          "type": "address"
        }
      ],
      "name": "isApprovedForAll",
      "outputs": [
        {
          "internalType": "bool",
          "name": "",
          "type": "bool"
        }
      ],
      "stateMutability": "view",
      "type": "function"
    },
    {
      "inputs": [],
      "name": "name",
      "outputs": [
        {
          "internalType": "string",
          "name": "",
          "type": "string"
        }
      ],
      "stateMutability": "view",
      "type": "function"
    },
    {
      "inputs": [],
      "name": "owner",
      "outputs": [
        {
          "internalType": "address",
          "name": "",
          "type": "address"
        }
      ],
      "stateMutability": "view",
      "type": "function"
    },
    {
      "inputs": [
        {
          "internalType": "uint256",
          "name": "tokenId",
          "type": "uint256"
        }
      ],
      "name": "ownerOf",
      "outputs": [
        {
          "internalType": "address",
          "name": "",
          "type": "address"
        }
      ],
      "stateMutability": "view",
      "type": "function"
    },
    {
      "inputs": [],
      "name": "renounceOwnership",
      "outputs": [],
      "stateMutability": "nonpayable",
      "type": "function"
    },
    {
      "inputs": [
        {
          "internalType": "address",
          "name": "admin",
          "type": "address"
        }
      ],
      "name": "revokeAdmin",
      "outputs": [],
      "stateMutability": "nonpayable",
      "type": "function"
    },
    {
      "inputs": [
        {
          "internalType": "address",
          "name": "from",
          "type": "address"
        },
        {
          "internalType": "address",
          "name": "to",
          "type": "address"
        },
        {
          "internalType": "uint256",
          "name": "tokenId",
          "type": "uint256"
        }
      ],
      "name": "safeTransferFrom",
      "outputs": [],
      "stateMutability": "nonpayable",
      "type": "function"
    },
    {
      "inputs": [
        {
          "internalType": "address",
          "name": "from",
          "type": "address"
        },
        {
          "internalType": "address",
          "name": "to",
          "type": "address"
        },
        {
          "internalType": "uint256",
          "name": "tokenId",
          "type": "uint256"
        },
        {
          "internalType": "bytes",
          "name": "data",
          "type": "bytes"
        }
      ],
      "name": "safeTransferFrom",
      "outputs": [],
      "stateMutability": "nonpayable",
      "type": "function"
    },
    {
      "inputs": [
        {
          "internalType": "address",
          "name": "operator",
          "type": "address"
        },
        {
          "internalType": "bool",
          "name": "approved",
          "type": "bool"
        }
      ],
      "name": "setApprovalForAll",
      "outputs": [],
      "stateMutability": "nonpayable",
      "type": "function"
    },
    {
      "inputs": [],
      "name": "symbol",
      "outputs": [
        {
          "internalType": "string",
          "name": "",
          "type": "string"
        }
      ],
      "stateMutability": "view",
      "type": "function"
    },
    {
      "inputs": [
        {
          "internalType": "address",
          "name": "from",
          "type": "address"
        },
        {
          "internalType": "address",
          "name": "to",
          "type": "address"
        },
        {
          "internalType": "uint256",
          "name": "tokenId",
          "type": "uint256"
        }
      ],
      "name": "transferFrom",
      "outputs": [],
      "stateMutability": "nonpayable",
      "type": "function"
    },
    {
      "inputs": [
        {
          "internalType": "address",
          "name": "newOwner",
          "type": "address"
        }
      ],
      "name": "transferOwnership",
      "outputs": [],
      "stateMutability": "nonpayable",
      "type": "function"
    },
    {
      "inputs": [
        {
          "internalType": "bytes4",
          "name": "interfaceId",
          "type": "bytes4"
        }
      ],
      "name": "supportsInterface",
      "outputs": [
        {
          "internalType": "bool",
          "name": "",
          "type": "bool"
        }
      ],
      "stateMutability": "view",
      "type": "function"
    },
    {
      "inputs": [
        {
          "internalType": "address",
          "name": "to",
          "type": "address"
        }
      ],
      "name": "mint",
      "outputs": [],
      "stateMutability": "nonpayable",
      "type": "function"
    },
    {
      "inputs": [
        {
          "internalType": "uint256",
          "name": "index",
          "type": "uint256"
        }
      ],
      "name": "removeToken",
      "outputs": [],
      "stateMutability": "nonpayable",
      "type": "function"
    },
    {
      "inputs": [
        {
          "internalType": "uint256",
          "name": "length",
          "type": "uint256"
        },
        {
          "internalType": "address",
          "name": "account",
          "type": "address"
        }
      ],
      "name": "getPseudoRandomNumber",
      "outputs": [
        {
          "internalType": "uint256",
          "name": "",
          "type": "uint256"
        }
      ],
      "stateMutability": "view",
      "type": "function"
    },
    {
      "inputs": [
        {
          "internalType": "uint256",
          "name": "tokenId",
          "type": "uint256"
        }
      ],
      "name": "burn",
      "outputs": [],
      "stateMutability": "nonpayable",
      "type": "function"
    },
    {
      "inputs": [
        {
          "internalType": "string",
          "name": "updatedURI",
          "type": "string"
        }
      ],
      "name": "setURI",
      "outputs": [],
      "stateMutability": "nonpayable",
      "type": "function"
    },
    {
      "inputs": [
        {
          "internalType": "uint256",
          "name": "tokenId",
          "type": "uint256"
        }
      ],
      "name": "tokenURI",
      "outputs": [
        {
          "internalType": "string",
          "name": "",
          "type": "string"
        }
      ],
      "stateMutability": "view",
      "type": "function"
    },
    {
      "inputs": [
        {
          "internalType": "address payable",
          "name": "_recipient",
          "type": "address"
        },
        {
          "internalType": "uint256",
          "name": "_royaltyPerCent",
          "type": "uint256"
        }
      ],
      "name": "setRoyalties",
      "outputs": [],
      "stateMutability": "nonpayable",
      "type": "function"
    },
    {
      "inputs": [
        {
          "internalType": "uint256",
          "name": "salePrice",
          "type": "uint256"
        }
      ],
      "name": "royaltyInfo",
      "outputs": [
        {
          "internalType": "address",
          "name": "",
          "type": "address"
        },
        {
          "internalType": "uint256",
          "name": "",
          "type": "uint256"
        }
      ],
      "stateMutability": "view",
      "type": "function"
    },
    {
      "inputs": [
        {
          "internalType": "address",
          "name": "recipient",
          "type": "address"
        }
      ],
      "name": "withdraw",
      "outputs": [],
      "stateMutability": "nonpayable",
      "type": "function"
    }
  ],
  "bytecode": "0x60806040526021600b556001600c553480156200001b57600080fd5b506040518060400160405280601481526020017f662d3120416e61737461736973202d20416374330000000000000000000000008152506040518060400160405280600781526020017f662d312041413300000000000000000000000000000000000000000000000000815250620000a86200009c6200020360201b60201c565b6200020b60201b60201c565b8160019080519060200190620000c0929190620002cf565b508060029080519060200190620000d9929190620002cf565b505050604051806101000160405280600160ff168152602001600260ff168152602001600360ff168152602001600460ff168152602001600560ff168152602001600660ff168152602001600760ff168152602001600860ff16815250600d9060086200014892919062000360565b50600d80549050600f819055506000600190505b600d8054905081116200019957600b546011600083815260200190815260200160002081905550808062000190906200040f565b9150506200015c565b50600b54600d80549050620001af91906200045c565b600e8190555033600960006101000a81548173ffffffffffffffffffffffffffffffffffffffff021916908373ffffffffffffffffffffffffffffffffffffffff160217905550600a808190555062000521565b600033905090565b60008060009054906101000a900473ffffffffffffffffffffffffffffffffffffffff169050816000806101000a81548173ffffffffffffffffffffffffffffffffffffffff021916908373ffffffffffffffffffffffffffffffffffffffff1602179055508173ffffffffffffffffffffffffffffffffffffffff168173ffffffffffffffffffffffffffffffffffffffff167f8be0079c531659141344cd1fd0a4f28419497f9722a3daafe3b4186f6b6457e060405160405180910390a35050565b828054620002dd90620004ec565b90600052602060002090601f0160209004810192826200030157600085556200034d565b82601f106200031c57805160ff19168380011785556200034d565b828001600101855582156200034d579182015b828111156200034c5782518255916020019190600101906200032f565b5b5090506200035c9190620003b7565b5090565b828054828255906000526020600020908101928215620003a4579160200282015b82811115620003a3578251829060ff1690559160200191906001019062000381565b5b509050620003b39190620003b7565b5090565b5b80821115620003d2576000816000905550600101620003b8565b5090565b7f4e487b7100000000000000000000000000000000000000000000000000000000600052601160045260246000fd5b6000819050919050565b60006200041c8262000405565b91507fffffffffffffffffffffffffffffffffffffffffffffffffffffffffffffffff8203620004515762000450620003d6565b5b600182019050919050565b6000620004698262000405565b9150620004768362000405565b9250817fffffffffffffffffffffffffffffffffffffffffffffffffffffffffffffffff0483118215151615620004b257620004b1620003d6565b5b828202905092915050565b7f4e487b7100000000000000000000000000000000000000000000000000000000600052602260045260246000fd5b600060028204905060018216806200050557607f821691505b6020821081036200051b576200051a620004bd565b5b50919050565b6141cb80620005316000396000f3fe608060405234801561001057600080fd5b50600436106102115760003560e01c806342966c681161012557806395d89b41116100ad578063c783f2a21161007c578063c783f2a2146105ea578063c87b56dd1461061a578063cef6d3681461064a578063e985e9c51461067b578063f2fde38b146106ab57610211565b806395d89b4114610564578063a22cb46514610582578063ae3510cf1461059e578063b88d4fde146105ce57610211565b80636d73e669116100f45780636d73e669146104d457806370a08231146104f0578063715018a6146105205780638c7ea24b1461052a5780638da5cb5b1461054657610211565b806342966c681461045057806351cff8d91461046c5780636352211e146104885780636a627842146104b857610211565b806317b33cdb116101a857806324d7806c1161017757806324d7806c146103ae5780632d345670146103de57806331ae450b146103fa57806336c5d7241461041857806342842e0e1461043457610211565b806317b33cdb1461033857806322f4596f1461035657806323b872dd14610374578063248225141461039057610211565b8063095ea7b3116101e4578063095ea7b3146102b05780630bb78ec1146102cc5780630dccc9ad146102fc578063130a398a1461031a57610211565b806301ffc9a71461021657806302fe53051461024657806306fdde0314610262578063081812fc14610280575b600080fd5b610230600480360381019061022b9190612b05565b6106c7565b60405161023d9190612b4d565b60405180910390f35b610260600480360381019061025b9190612bcd565b610761565b005b61026a610807565b6040516102779190612cb3565b60405180910390f35b61029a60048036038101906102959190612d0b565b610899565b6040516102a79190612d79565b60405180910390f35b6102ca60048036038101906102c59190612dc0565b6108df565b005b6102e660048036038101906102e19190612d0b565b6109f6565b6040516102f39190612e0f565b60405180910390f35b610304610a0e565b6040516103119190612cb3565b60405180910390f35b610322610a9c565b60405161032f9190612e0f565b60405180910390f35b610340610aa2565b60405161034d9190612e0f565b60405180910390f35b61035e610aa8565b60405161036b9190612e0f565b60405180910390f35b61038e60048036038101906103899190612e2a565b610aae565b005b610398610b0e565b6040516103a59190612e0f565b60405180910390f35b6103c860048036038101906103c39190612e7d565b610b14565b6040516103d59190612b4d565b60405180910390f35b6103f860048036038101906103f39190612e7d565b610b6e565b005b610402610c02565b60405161040f9190612f68565b60405180910390f35b610432600480360381019061042d9190612d0b565b610ce4565b005b61044e60048036038101906104499190612e2a565b610d70565b005b61046a60048036038101906104659190612d0b565b610d90565b005b61048660048036038101906104819190612e7d565b610e18565b005b6104a2600480360381019061049d9190612d0b565b610ef2565b6040516104af9190612d79565b60405180910390f35b6104d260048036038101906104cd9190612e7d565b610fa3565b005b6104ee60048036038101906104e99190612e7d565b6110ca565b005b61050a60048036038101906105059190612e7d565b61115d565b6040516105179190612e0f565b60405180910390f35b610528611214565b005b610544600480360381019061053f9190612fc8565b611228565b005b61054e611304565b60405161055b9190612d79565b60405180910390f35b61056c61132d565b6040516105799190612cb3565b60405180910390f35b61059c60048036038101906105979190613034565b6113bf565b005b6105b860048036038101906105b39190612d0b565b6113d5565b6040516105c59190612e0f565b60405180910390f35b6105e860048036038101906105e391906131a4565b6113f9565b005b61060460048036038101906105ff9190613227565b61145b565b6040516106119190612e0f565b60405180910390f35b610634600480360381019061062f9190612d0b565b6114b6565b6040516106419190612cb3565b60405180910390f35b610664600480360381019061065f9190612d0b565b611545565b604051610672929190613267565b60405180910390f35b61069560048036038101906106909190613290565b6115f1565b6040516106a29190612b4d565b60405180910390f35b6106c560048036038101906106c09190612e7d565b611685565b005b60006106d282611708565b806106e257506106e182611782565b5b8061074a57507f2a55205a000000000000000000000000000000000000000000000000000000007bffffffffffffffffffffffffffffffffffffffffffffffffffffffff1916827bffffffffffffffffffffffffffffffffffffffffffffffffffffffff1916145b8061075a575061075982611708565b5b9050919050565b3373ffffffffffffffffffffffffffffffffffffffff16610780611304565b73ffffffffffffffffffffffffffffffffffffffff1614806107b257506107b133600761186490919063ffffffff16565b5b6107f1576040517f08c379a00000000000000000000000000000000000000000000000000000000081526004016107e890613342565b60405180910390fd5b8181601091906108029291906129f6565b505050565b60606001805461081690613391565b80601f016020809104026020016040519081016040528092919081815260200182805461084290613391565b801561088f5780601f106108645761010080835404028352916020019161088f565b820191906000526020600020905b81548152906001019060200180831161087257829003601f168201915b5050505050905090565b60006108a482611894565b6005600083815260200190815260200160002060009054906101000a900473ffffffffffffffffffffffffffffffffffffffff169050919050565b60006108ea82610ef2565b90508073ffffffffffffffffffffffffffffffffffffffff168373ffffffffffffffffffffffffffffffffffffffff160361095a576040517f08c379a000000000000000000000000000000000000000000000000000000000815260040161095190613434565b60405180910390fd5b8073ffffffffffffffffffffffffffffffffffffffff166109796118df565b73ffffffffffffffffffffffffffffffffffffffff1614806109a857506109a7816109a26118df565b6115f1565b5b6109e7576040517f08c379a00000000000000000000000000000000000000000000000000000000081526004016109de906134c6565b60405180910390fd5b6109f183836118e7565b505050565b60126020528060005260406000206000915090505481565b60108054610a1b90613391565b80601f0160208091040260200160405190810160405280929190818152602001828054610a4790613391565b8015610a945780601f10610a6957610100808354040283529160200191610a94565b820191906000526020600020905b815481529060010190602001808311610a7757829003601f168201915b505050505081565b600b5481565b600f5481565b600e5481565b610abf610ab96118df565b826119a0565b610afe576040517f08c379a0000000000000000000000000000000000000000000000000000000008152600401610af590613558565b60405180910390fd5b610b09838383611a35565b505050565b600c5481565b60008173ffffffffffffffffffffffffffffffffffffffff16610b35611304565b73ffffffffffffffffffffffffffffffffffffffff161480610b675750610b6682600761186490919063ffffffff16565b5b9050919050565b610b76611c9b565b610b8a81600761186490919063ffffffff16565b15610bff573373ffffffffffffffffffffffffffffffffffffffff168173ffffffffffffffffffffffffffffffffffffffff167f7c0c3c84c67c85fcac635147348bfe374c24a1a93d0366d1cfe9d8853cbf89d560405160405180910390a3610bfd816007611d1990919063ffffffff16565b505b50565b6060610c0e6007611d49565b67ffffffffffffffff811115610c2757610c26613079565b5b604051908082528060200260200182016040528015610c555781602001602082028036833780820191505090505b50905060005b610c656007611d49565b811015610ce057610c80816007611d5e90919063ffffffff16565b828281518110610c9357610c92613578565b5b602002602001019073ffffffffffffffffffffffffffffffffffffffff16908173ffffffffffffffffffffffffffffffffffffffff16815250508080610cd8906135d6565b915050610c5b565b5090565b6001600d805490501115610d4557600d6001600d80549050610d06919061361e565b81548110610d1757610d16613578565b5b9060005260206000200154600d8281548110610d3657610d35613578565b5b90600052602060002001819055505b600d805480610d5757610d56613652565b5b6001900381819060005260206000200160009055905550565b610d8b838383604051806020016040528060008152506113f9565b505050565b6000610d9b82610ef2565b90508073ffffffffffffffffffffffffffffffffffffffff163373ffffffffffffffffffffffffffffffffffffffff1614610e0b576040517f08c379a0000000000000000000000000000000000000000000000000000000008152600401610e02906136cd565b60405180910390fd5b610e1482611d78565b5050565b3373ffffffffffffffffffffffffffffffffffffffff16610e37611304565b73ffffffffffffffffffffffffffffffffffffffff161480610e695750610e6833600761186490919063ffffffff16565b5b610ea8576040517f08c379a0000000000000000000000000000000000000000000000000000000008152600401610e9f90613342565b60405180910390fd5b8073ffffffffffffffffffffffffffffffffffffffff166108fc479081150290604051600060405180830381858888f19350505050158015610eee573d6000803e3d6000fd5b5050565b6000806003600084815260200190815260200160002060009054906101000a900473ffffffffffffffffffffffffffffffffffffffff169050600073ffffffffffffffffffffffffffffffffffffffff168173ffffffffffffffffffffffffffffffffffffffff1603610f9a576040517f08c379a0000000000000000000000000000000000000000000000000000000008152600401610f9190613739565b60405180910390fd5b80915050919050565b3373ffffffffffffffffffffffffffffffffffffffff16610fc2611304565b73ffffffffffffffffffffffffffffffffffffffff161480610ff45750610ff333600761186490919063ffffffff16565b5b611033576040517f08c379a000000000000000000000000000000000000000000000000000000000815260040161102a90613342565b60405180910390fd5b600e54600c54111561107a576040517f08c379a0000000000000000000000000000000000000000000000000000000008152600401611071906137a5565b60405180910390fd5b61108681600c54611e95565b600061109061206e565b90508060126000600c548152602001908152602001600020819055506001600c60008282546110bf91906137c5565b925050819055505050565b6110d2611c9b565b6110e681600761186490919063ffffffff16565b61115a573373ffffffffffffffffffffffffffffffffffffffff168173ffffffffffffffffffffffffffffffffffffffff167f7e1a1a08d52e4ba0e21554733d66165fd5151f99460116223d9e3a608eec5cb160405160405180910390a361115881600761216d90919063ffffffff16565b505b50565b60008073ffffffffffffffffffffffffffffffffffffffff168273ffffffffffffffffffffffffffffffffffffffff16036111cd576040517f08c379a00000000000000000000000000000000000000000000000000000000081526004016111c49061388d565b60405180910390fd5b600460008373ffffffffffffffffffffffffffffffffffffffff1673ffffffffffffffffffffffffffffffffffffffff168152602001908152602001600020549050919050565b61121c611c9b565b611226600061219d565b565b3373ffffffffffffffffffffffffffffffffffffffff16611247611304565b73ffffffffffffffffffffffffffffffffffffffff161480611279575061127833600761186490919063ffffffff16565b5b6112b8576040517f08c379a00000000000000000000000000000000000000000000000000000000081526004016112af90613342565b60405180910390fd5b81600960006101000a81548173ffffffffffffffffffffffffffffffffffffffff021916908373ffffffffffffffffffffffffffffffffffffffff16021790555080600a819055505050565b60008060009054906101000a900473ffffffffffffffffffffffffffffffffffffffff16905090565b60606002805461133c90613391565b80601f016020809104026020016040519081016040528092919081815260200182805461136890613391565b80156113b55780601f1061138a576101008083540402835291602001916113b5565b820191906000526020600020905b81548152906001019060200180831161139857829003601f168201915b5050505050905090565b6113d16113ca6118df565b8383612261565b5050565b600d81815481106113e557600080fd5b906000526020600020016000915090505481565b61140a6114046118df565b836119a0565b611449576040517f08c379a000000000000000000000000000000000000000000000000000000000815260040161144090613558565b60405180910390fd5b611455848484846123cd565b50505050565b600080834442600c5487338860405160200161147c96959493929190613916565b6040516020818303038152906040528051906020012060001c61149f91906139b5565b905083816114ad91906139b5565b91505092915050565b60606114c182612429565b611500576040517f08c379a00000000000000000000000000000000000000000000000000000000081526004016114f790613a58565b60405180910390fd5b601061151e6012600085815260200190815260200160002054612495565b60405160200161152f929190613b94565b6040516020818303038152906040529050919050565b600080600073ffffffffffffffffffffffffffffffffffffffff16600960009054906101000a900473ffffffffffffffffffffffffffffffffffffffff1673ffffffffffffffffffffffffffffffffffffffff16146115e457600960009054906101000a900473ffffffffffffffffffffffffffffffffffffffff166064600a54856115d19190613bc3565b6115db9190613c1d565b915091506115ec565b600080915091505b915091565b6000600660008473ffffffffffffffffffffffffffffffffffffffff1673ffffffffffffffffffffffffffffffffffffffff16815260200190815260200160002060008373ffffffffffffffffffffffffffffffffffffffff1673ffffffffffffffffffffffffffffffffffffffff16815260200190815260200160002060009054906101000a900460ff16905092915050565b61168d611c9b565b600073ffffffffffffffffffffffffffffffffffffffff168173ffffffffffffffffffffffffffffffffffffffff16036116fc576040517f08c379a00000000000000000000000000000000000000000000000000000000081526004016116f390613cc0565b60405180910390fd5b6117058161219d565b50565b60007f553e757e000000000000000000000000000000000000000000000000000000007bffffffffffffffffffffffffffffffffffffffffffffffffffffffff1916827bffffffffffffffffffffffffffffffffffffffffffffffffffffffff1916148061177b575061177a82611782565b5b9050919050565b60007f80ac58cd000000000000000000000000000000000000000000000000000000007bffffffffffffffffffffffffffffffffffffffffffffffffffffffff1916827bffffffffffffffffffffffffffffffffffffffffffffffffffffffff1916148061184d57507f5b5e139f000000000000000000000000000000000000000000000000000000007bffffffffffffffffffffffffffffffffffffffffffffffffffffffff1916827bffffffffffffffffffffffffffffffffffffffffffffffffffffffff1916145b8061185d575061185c826125f5565b5b9050919050565b600061188c836000018373ffffffffffffffffffffffffffffffffffffffff1660001b61265f565b905092915050565b61189d81612429565b6118dc576040517f08c379a00000000000000000000000000000000000000000000000000000000081526004016118d390613739565b60405180910390fd5b50565b600033905090565b816005600083815260200190815260200160002060006101000a81548173ffffffffffffffffffffffffffffffffffffffff021916908373ffffffffffffffffffffffffffffffffffffffff160217905550808273ffffffffffffffffffffffffffffffffffffffff1661195a83610ef2565b73ffffffffffffffffffffffffffffffffffffffff167f8c5be1e5ebec7d5bd14f71427d1e84f3dd0314c0f7b2291e5b200ac8c7c3b92560405160405180910390a45050565b6000806119ac83610ef2565b90508073ffffffffffffffffffffffffffffffffffffffff168473ffffffffffffffffffffffffffffffffffffffff1614806119ee57506119ed81856115f1565b5b80611a2c57508373ffffffffffffffffffffffffffffffffffffffff16611a1484610899565b73ffffffffffffffffffffffffffffffffffffffff16145b91505092915050565b8273ffffffffffffffffffffffffffffffffffffffff16611a5582610ef2565b73ffffffffffffffffffffffffffffffffffffffff1614611aab576040517f08c379a0000000000000000000000000000000000000000000000000000000008152600401611aa290613d52565b60405180910390fd5b600073ffffffffffffffffffffffffffffffffffffffff168273ffffffffffffffffffffffffffffffffffffffff1603611b1a576040517f08c379a0000000000000000000000000000000000000000000000000000000008152600401611b1190613de4565b60405180910390fd5b611b25838383612682565b611b306000826118e7565b6001600460008573ffffffffffffffffffffffffffffffffffffffff1673ffffffffffffffffffffffffffffffffffffffff1681526020019081526020016000206000828254611b80919061361e565b925050819055506001600460008473ffffffffffffffffffffffffffffffffffffffff1673ffffffffffffffffffffffffffffffffffffffff1681526020019081526020016000206000828254611bd791906137c5565b92505081905550816003600083815260200190815260200160002060006101000a81548173ffffffffffffffffffffffffffffffffffffffff021916908373ffffffffffffffffffffffffffffffffffffffff160217905550808273ffffffffffffffffffffffffffffffffffffffff168473ffffffffffffffffffffffffffffffffffffffff167fddf252ad1be2c89b69c2b068fc378daa952ba7f163c4a11628f55a4df523b3ef60405160405180910390a4611c96838383612687565b505050565b611ca36118df565b73ffffffffffffffffffffffffffffffffffffffff16611cc1611304565b73ffffffffffffffffffffffffffffffffffffffff1614611d17576040517f08c379a0000000000000000000000000000000000000000000000000000000008152600401611d0e90613e50565b60405180910390fd5b565b6000611d41836000018373ffffffffffffffffffffffffffffffffffffffff1660001b61268c565b905092915050565b6000611d57826000016127a0565b9050919050565b6000611d6d83600001836127b1565b60001c905092915050565b6000611d8382610ef2565b9050611d9181600084612682565b611d9c6000836118e7565b6001600460008373ffffffffffffffffffffffffffffffffffffffff1673ffffffffffffffffffffffffffffffffffffffff1681526020019081526020016000206000828254611dec919061361e565b925050819055506003600083815260200190815260200160002060006101000a81549073ffffffffffffffffffffffffffffffffffffffff021916905581600073ffffffffffffffffffffffffffffffffffffffff168273ffffffffffffffffffffffffffffffffffffffff167fddf252ad1be2c89b69c2b068fc378daa952ba7f163c4a11628f55a4df523b3ef60405160405180910390a4611e9181600084612687565b5050565b600073ffffffffffffffffffffffffffffffffffffffff168273ffffffffffffffffffffffffffffffffffffffff1603611f04576040517f08c379a0000000000000000000000000000000000000000000000000000000008152600401611efb90613ebc565b60405180910390fd5b611f0d81612429565b15611f4d576040517f08c379a0000000000000000000000000000000000000000000000000000000008152600401611f4490613f28565b60405180910390fd5b611f5960008383612682565b6001600460008473ffffffffffffffffffffffffffffffffffffffff1673ffffffffffffffffffffffffffffffffffffffff1681526020019081526020016000206000828254611fa991906137c5565b92505081905550816003600083815260200190815260200160002060006101000a81548173ffffffffffffffffffffffffffffffffffffffff021916908373ffffffffffffffffffffffffffffffffffffffff160217905550808273ffffffffffffffffffffffffffffffffffffffff16600073ffffffffffffffffffffffffffffffffffffffff167fddf252ad1be2c89b69c2b068fc378daa952ba7f163c4a11628f55a4df523b3ef60405160405180910390a461206a60008383612687565b5050565b600080612080600d805490503361145b565b90506000600d828154811061209857612097613578565b5b9060005260206000200154905060016011600083815260200190815260200160002054036120ca576120c982610ce4565b5b60016011600083815260200190815260200160002060008282546120ee919061361e565b92505081905550600f548103612122576011600082815260200190815260200160002054600f5461211f91906137c5565b90505b60008111612165576040517f08c379a000000000000000000000000000000000000000000000000000000000815260040161215c90613f94565b60405180910390fd5b809250505090565b6000612195836000018373ffffffffffffffffffffffffffffffffffffffff1660001b6127dc565b905092915050565b60008060009054906101000a900473ffffffffffffffffffffffffffffffffffffffff169050816000806101000a81548173ffffffffffffffffffffffffffffffffffffffff021916908373ffffffffffffffffffffffffffffffffffffffff1602179055508173ffffffffffffffffffffffffffffffffffffffff168173ffffffffffffffffffffffffffffffffffffffff167f8be0079c531659141344cd1fd0a4f28419497f9722a3daafe3b4186f6b6457e060405160405180910390a35050565b8173ffffffffffffffffffffffffffffffffffffffff168373ffffffffffffffffffffffffffffffffffffffff16036122cf576040517f08c379a00000000000000000000000000000000000000000000000000000000081526004016122c690614000565b60405180910390fd5b80600660008573ffffffffffffffffffffffffffffffffffffffff1673ffffffffffffffffffffffffffffffffffffffff16815260200190815260200160002060008473ffffffffffffffffffffffffffffffffffffffff1673ffffffffffffffffffffffffffffffffffffffff16815260200190815260200160002060006101000a81548160ff0219169083151502179055508173ffffffffffffffffffffffffffffffffffffffff168373ffffffffffffffffffffffffffffffffffffffff167f17307eab39ab6107e8899845ad3d59bd9653f200f220920489ca2b5937696c31836040516123c09190612b4d565b60405180910390a3505050565b6123d8848484611a35565b6123e48484848461284c565b612423576040517f08c379a000000000000000000000000000000000000000000000000000000000815260040161241a90614092565b60405180910390fd5b50505050565b60008073ffffffffffffffffffffffffffffffffffffffff166003600084815260200190815260200160002060009054906101000a900473ffffffffffffffffffffffffffffffffffffffff1673ffffffffffffffffffffffffffffffffffffffff1614159050919050565b6060600082036124dc576040518060400160405280600181526020017f300000000000000000000000000000000000000000000000000000000000000081525090506125f0565b600082905060005b6000821461250e5780806124f7906135d6565b915050600a826125079190613c1d565b91506124e4565b60008167ffffffffffffffff81111561252a57612529613079565b5b6040519080825280601f01601f19166020018201604052801561255c5781602001600182028036833780820191505090505b5090505b600085146125e957600182612575919061361e565b9150600a8561258491906139b5565b603061259091906137c5565b60f81b8183815181106125a6576125a5613578565b5b60200101907effffffffffffffffffffffffffffffffffffffffffffffffffffffffffffff1916908160001a905350600a856125e29190613c1d565b9450612560565b8093505050505b919050565b60007f01ffc9a7000000000000000000000000000000000000000000000000000000007bffffffffffffffffffffffffffffffffffffffffffffffffffffffff1916827bffffffffffffffffffffffffffffffffffffffffffffffffffffffff1916149050919050565b600080836001016000848152602001908152602001600020541415905092915050565b505050565b505050565b600080836001016000848152602001908152602001600020549050600081146127945760006001826126be919061361e565b90506000600186600001805490506126d6919061361e565b90508181146127455760008660000182815481106126f7576126f6613578565b5b906000526020600020015490508087600001848154811061271b5761271a613578565b5b90600052602060002001819055508387600101600083815260200190815260200160002081905550505b8560000180548061275957612758613652565b5b60019003818190600052602060002001600090559055856001016000868152602001908152602001600020600090556001935050505061279a565b60009150505b92915050565b600081600001805490509050919050565b60008260000182815481106127c9576127c8613578565b5b9060005260206000200154905092915050565b60006127e8838361265f565b612841578260000182908060018154018082558091505060019003906000526020600020016000909190919091505582600001805490508360010160008481526020019081526020016000208190555060019050612846565b600090505b92915050565b600061286d8473ffffffffffffffffffffffffffffffffffffffff166129d3565b156129c6578373ffffffffffffffffffffffffffffffffffffffff1663150b7a026128966118df565b8786866040518563ffffffff1660e01b81526004016128b89493929190614107565b6020604051808303816000875af19250505080156128f457506040513d601f19601f820116820180604052508101906128f19190614168565b60015b612976573d8060008114612924576040519150601f19603f3d011682016040523d82523d6000602084013e612929565b606091505b50600081510361296e576040517f08c379a000000000000000000000000000000000000000000000000000000000815260040161296590614092565b60405180910390fd5b805181602001fd5b63150b7a0260e01b7bffffffffffffffffffffffffffffffffffffffffffffffffffffffff1916817bffffffffffffffffffffffffffffffffffffffffffffffffffffffff1916149150506129cb565b600190505b949350505050565b6000808273ffffffffffffffffffffffffffffffffffffffff163b119050919050565b828054612a0290613391565b90600052602060002090601f016020900481019282612a245760008555612a6b565b82601f10612a3d57803560ff1916838001178555612a6b565b82800160010185558215612a6b579182015b82811115612a6a578235825591602001919060010190612a4f565b5b509050612a789190612a7c565b5090565b5b80821115612a95576000816000905550600101612a7d565b5090565b6000604051905090565b600080fd5b600080fd5b60007fffffffff0000000000000000000000000000000000000000000000000000000082169050919050565b612ae281612aad565b8114612aed57600080fd5b50565b600081359050612aff81612ad9565b92915050565b600060208284031215612b1b57612b1a612aa3565b5b6000612b2984828501612af0565b91505092915050565b60008115159050919050565b612b4781612b32565b82525050565b6000602082019050612b626000830184612b3e565b92915050565b600080fd5b600080fd5b600080fd5b60008083601f840112612b8d57612b8c612b68565b5b8235905067ffffffffffffffff811115612baa57612ba9612b6d565b5b602083019150836001820283011115612bc657612bc5612b72565b5b9250929050565b60008060208385031215612be457612be3612aa3565b5b600083013567ffffffffffffffff811115612c0257612c01612aa8565b5b612c0e85828601612b77565b92509250509250929050565b600081519050919050565b600082825260208201905092915050565b60005b83811015612c54578082015181840152602081019050612c39565b83811115612c63576000848401525b50505050565b6000601f19601f8301169050919050565b6000612c8582612c1a565b612c8f8185612c25565b9350612c9f818560208601612c36565b612ca881612c69565b840191505092915050565b60006020820190508181036000830152612ccd8184612c7a565b905092915050565b6000819050919050565b612ce881612cd5565b8114612cf357600080fd5b50565b600081359050612d0581612cdf565b92915050565b600060208284031215612d2157612d20612aa3565b5b6000612d2f84828501612cf6565b91505092915050565b600073ffffffffffffffffffffffffffffffffffffffff82169050919050565b6000612d6382612d38565b9050919050565b612d7381612d58565b82525050565b6000602082019050612d8e6000830184612d6a565b92915050565b612d9d81612d58565b8114612da857600080fd5b50565b600081359050612dba81612d94565b92915050565b60008060408385031215612dd757612dd6612aa3565b5b6000612de585828601612dab565b9250506020612df685828601612cf6565b9150509250929050565b612e0981612cd5565b82525050565b6000602082019050612e246000830184612e00565b92915050565b600080600060608486031215612e4357612e42612aa3565b5b6000612e5186828701612dab565b9350506020612e6286828701612dab565b9250506040612e7386828701612cf6565b9150509250925092565b600060208284031215612e9357612e92612aa3565b5b6000612ea184828501612dab565b91505092915050565b600081519050919050565b600082825260208201905092915050565b6000819050602082019050919050565b612edf81612d58565b82525050565b6000612ef18383612ed6565b60208301905092915050565b6000602082019050919050565b6000612f1582612eaa565b612f1f8185612eb5565b9350612f2a83612ec6565b8060005b83811015612f5b578151612f428882612ee5565b9750612f4d83612efd565b925050600181019050612f2e565b5085935050505092915050565b60006020820190508181036000830152612f828184612f0a565b905092915050565b6000612f9582612d38565b9050919050565b612fa581612f8a565b8114612fb057600080fd5b50565b600081359050612fc281612f9c565b92915050565b60008060408385031215612fdf57612fde612aa3565b5b6000612fed85828601612fb3565b9250506020612ffe85828601612cf6565b9150509250929050565b61301181612b32565b811461301c57600080fd5b50565b60008135905061302e81613008565b92915050565b6000806040838503121561304b5761304a612aa3565b5b600061305985828601612dab565b925050602061306a8582860161301f565b9150509250929050565b600080fd5b7f4e487b7100000000000000000000000000000000000000000000000000000000600052604160045260246000fd5b6130b182612c69565b810181811067ffffffffffffffff821117156130d0576130cf613079565b5b80604052505050565b60006130e3612a99565b90506130ef82826130a8565b919050565b600067ffffffffffffffff82111561310f5761310e613079565b5b61311882612c69565b9050602081019050919050565b82818337600083830152505050565b6000613147613142846130f4565b6130d9565b90508281526020810184848401111561316357613162613074565b5b61316e848285613125565b509392505050565b600082601f83011261318b5761318a612b68565b5b813561319b848260208601613134565b91505092915050565b600080600080608085870312156131be576131bd612aa3565b5b60006131cc87828801612dab565b94505060206131dd87828801612dab565b93505060406131ee87828801612cf6565b925050606085013567ffffffffffffffff81111561320f5761320e612aa8565b5b61321b87828801613176565b91505092959194509250565b6000806040838503121561323e5761323d612aa3565b5b600061324c85828601612cf6565b925050602061325d85828601612dab565b9150509250929050565b600060408201905061327c6000830185612d6a565b6132896020830184612e00565b9392505050565b600080604083850312156132a7576132a6612aa3565b5b60006132b585828601612dab565b92505060206132c685828601612dab565b9150509250929050565b7f41646d696e436f6e74726f6c3a204d757374206265206f776e6572206f72206160008201527f646d696e00000000000000000000000000000000000000000000000000000000602082015250565b600061332c602483612c25565b9150613337826132d0565b604082019050919050565b6000602082019050818103600083015261335b8161331f565b9050919050565b7f4e487b7100000000000000000000000000000000000000000000000000000000600052602260045260246000fd5b600060028204905060018216806133a957607f821691505b6020821081036133bc576133bb613362565b5b50919050565b7f4552433732313a20617070726f76616c20746f2063757272656e74206f776e6560008201527f7200000000000000000000000000000000000000000000000000000000000000602082015250565b600061341e602183612c25565b9150613429826133c2565b604082019050919050565b6000602082019050818103600083015261344d81613411565b9050919050565b7f4552433732313a20617070726f76652063616c6c6572206973206e6f7420746f60008201527f6b656e206f776e6572206e6f7220617070726f76656420666f7220616c6c0000602082015250565b60006134b0603e83612c25565b91506134bb82613454565b604082019050919050565b600060208201905081810360008301526134df816134a3565b9050919050565b7f4552433732313a2063616c6c6572206973206e6f7420746f6b656e206f776e6560008201527f72206e6f7220617070726f766564000000000000000000000000000000000000602082015250565b6000613542602e83612c25565b915061354d826134e6565b604082019050919050565b6000602082019050818103600083015261357181613535565b9050919050565b7f4e487b7100000000000000000000000000000000000000000000000000000000600052603260045260246000fd5b7f4e487b7100000000000000000000000000000000000000000000000000000000600052601160045260246000fd5b60006135e182612cd5565b91507fffffffffffffffffffffffffffffffffffffffffffffffffffffffffffffffff8203613613576136126135a7565b5b600182019050919050565b600061362982612cd5565b915061363483612cd5565b925082821015613647576136466135a7565b5b828203905092915050565b7f4e487b7100000000000000000000000000000000000000000000000000000000600052603160045260246000fd5b7f4f776e6572206f6e6c7900000000000000000000000000000000000000000000600082015250565b60006136b7600a83612c25565b91506136c282613681565b602082019050919050565b600060208201905081810360008301526136e6816136aa565b9050919050565b7f4552433732313a20696e76616c696420746f6b656e2049440000000000000000600082015250565b6000613723601883612c25565b915061372e826136ed565b602082019050919050565b6000602082019050818103600083015261375281613716565b9050919050565b7f4d617820737570706c7920726561636865640000000000000000000000000000600082015250565b600061378f601283612c25565b915061379a82613759565b602082019050919050565b600060208201905081810360008301526137be81613782565b9050919050565b60006137d082612cd5565b91506137db83612cd5565b9250827fffffffffffffffffffffffffffffffffffffffffffffffffffffffffffffffff038211156138105761380f6135a7565b5b828201905092915050565b7f4552433732313a2061646472657373207a65726f206973206e6f74206120766160008201527f6c6964206f776e65720000000000000000000000000000000000000000000000602082015250565b6000613877602983612c25565b91506138828261381b565b604082019050919050565b600060208201905081810360008301526138a68161386a565b9050919050565b6000819050919050565b6138c86138c382612cd5565b6138ad565b82525050565b60008160601b9050919050565b60006138e6826138ce565b9050919050565b60006138f8826138db565b9050919050565b61391061390b82612d58565b6138ed565b82525050565b600061392282896138b7565b60208201915061393282886138b7565b60208201915061394282876138b7565b60208201915061395282866138b7565b60208201915061396282856138ff565b60148201915061397282846138ff565b601482019150819050979650505050505050565b7f4e487b7100000000000000000000000000000000000000000000000000000000600052601260045260246000fd5b60006139c082612cd5565b91506139cb83612cd5565b9250826139db576139da613986565b5b828206905092915050565b7f4552433732314d657461646174613a2055524920717565727920666f72206e6f60008201527f6e6578697374656e7420746f6b656e0000000000000000000000000000000000602082015250565b6000613a42602f83612c25565b9150613a4d826139e6565b604082019050919050565b60006020820190508181036000830152613a7181613a35565b9050919050565b600081905092915050565b60008190508160005260206000209050919050565b60008154613aa581613391565b613aaf8186613a78565b94506001821660008114613aca5760018114613adb57613b0e565b60ff19831686528186019350613b0e565b613ae485613a83565b60005b83811015613b0657815481890152600182019150602081019050613ae7565b838801955050505b50505092915050565b6000613b2282612c1a565b613b2c8185613a78565b9350613b3c818560208601612c36565b80840191505092915050565b7f2e6a736f6e000000000000000000000000000000000000000000000000000000600082015250565b6000613b7e600583613a78565b9150613b8982613b48565b600582019050919050565b6000613ba08285613a98565b9150613bac8284613b17565b9150613bb782613b71565b91508190509392505050565b6000613bce82612cd5565b9150613bd983612cd5565b9250817fffffffffffffffffffffffffffffffffffffffffffffffffffffffffffffffff0483118215151615613c1257613c116135a7565b5b828202905092915050565b6000613c2882612cd5565b9150613c3383612cd5565b925082613c4357613c42613986565b5b828204905092915050565b7f4f776e61626c653a206e6577206f776e657220697320746865207a65726f206160008201527f6464726573730000000000000000000000000000000000000000000000000000602082015250565b6000613caa602683612c25565b9150613cb582613c4e565b604082019050919050565b60006020820190508181036000830152613cd981613c9d565b9050919050565b7f4552433732313a207472616e736665722066726f6d20696e636f72726563742060008201527f6f776e6572000000000000000000000000000000000000000000000000000000602082015250565b6000613d3c602583612c25565b9150613d4782613ce0565b604082019050919050565b60006020820190508181036000830152613d6b81613d2f565b9050919050565b7f4552433732313a207472616e7366657220746f20746865207a65726f2061646460008201527f7265737300000000000000000000000000000000000000000000000000000000602082015250565b6000613dce602483612c25565b9150613dd982613d72565b604082019050919050565b60006020820190508181036000830152613dfd81613dc1565b9050919050565b7f4f776e61626c653a2063616c6c6572206973206e6f7420746865206f776e6572600082015250565b6000613e3a602083612c25565b9150613e4582613e04565b602082019050919050565b60006020820190508181036000830152613e6981613e2d565b9050919050565b7f4552433732313a206d696e7420746f20746865207a65726f2061646472657373600082015250565b6000613ea6602083612c25565b9150613eb182613e70565b602082019050919050565b60006020820190508181036000830152613ed581613e99565b9050919050565b7f4552433732313a20746f6b656e20616c7265616479206d696e74656400000000600082015250565b6000613f12601c83612c25565b9150613f1d82613edc565b602082019050919050565b60006020820190508181036000830152613f4181613f05565b9050919050565b7f696e76616c696420555249000000000000000000000000000000000000000000600082015250565b6000613f7e600b83612c25565b9150613f8982613f48565b602082019050919050565b60006020820190508181036000830152613fad81613f71565b9050919050565b7f4552433732313a20617070726f766520746f2063616c6c657200000000000000600082015250565b6000613fea601983612c25565b9150613ff582613fb4565b602082019050919050565b6000602082019050818103600083015261401981613fdd565b9050919050565b7f4552433732313a207472616e7366657220746f206e6f6e20455243373231526560008201527f63656976657220696d706c656d656e7465720000000000000000000000000000602082015250565b600061407c603283612c25565b915061408782614020565b604082019050919050565b600060208201905081810360008301526140ab8161406f565b9050919050565b600081519050919050565b600082825260208201905092915050565b60006140d9826140b2565b6140e381856140bd565b93506140f3818560208601612c36565b6140fc81612c69565b840191505092915050565b600060808201905061411c6000830187612d6a565b6141296020830186612d6a565b6141366040830185612e00565b818103606083015261414881846140ce565b905095945050505050565b60008151905061416281612ad9565b92915050565b60006020828403121561417e5761417d612aa3565b5b600061418c84828501614153565b9150509291505056fea2646970667358221220a008a82b0a9231cc58078f5491b7f8c81c146abbd651802605f05d0f3aeba71464736f6c634300080d0033",
  "immutableReferences": {},
  "source": "// SPDX-License-Identifier: MIT\n\npragma solidity >= 0.8.13;\n\nimport \"@openzeppelin/contracts/token/ERC721/ERC721.sol\";\nimport \"@manifoldxyz/royalty-registry-solidity/contracts/specs/IEIP2981.sol\";\nimport \"@manifoldxyz/libraries-solidity/contracts/access/AdminControl.sol\";\nimport \"@openzeppelin/contracts/utils/Strings.sol\";\n\ncontract Anastasis_Act3 is ERC721, AdminControl {\n    \n    address payable  private _royalties_recipient;\n    uint256 private _royaltyAmount; //in % \n    uint256 public _editionNumber = 33;\n    uint256 public _tokenId = 1;\n    uint256[] public _availableURIs;\n    uint256 public _maxSupply;\n    uint256 public _saURI;\n    string public _uri;\n    \n    mapping (uint256 => uint256) _stock;\n    mapping(uint256 => uint256) public _tokenURIs;\n    \n    constructor () ERC721(\"f-1 Anastasis - Act3\", \"f-1 AA3\") {\n        _availableURIs = [1,2,3,4,5,6,7,8];\n        _saURI = _availableURIs.length;\n        for(uint256 i = 1; i <= _availableURIs.length; i++){\n            _stock[i] = _editionNumber;\n        }\n        _maxSupply = _availableURIs.length * _editionNumber;\n        _royalties_recipient = payable(msg.sender);\n        _royaltyAmount = 10;\n    }\n\n    function supportsInterface(bytes4 interfaceId)\n        public\n        view\n        virtual\n        override(ERC721, AdminControl)\n        returns (bool)\n    {\n        return\n        AdminControl.supportsInterface(interfaceId) ||\n        ERC721.supportsInterface(interfaceId) ||\n        interfaceId == type(IEIP2981).interfaceId ||\n        super.supportsInterface(interfaceId);\n    }\n\n    function mint( \n        address to\n    ) external adminRequired{\n        require(_tokenId <= _maxSupply, \"Max supply reached\");\n        _mint(to, _tokenId);\n        uint256 uri = getURI();\n        _tokenURIs[_tokenId] = uri;\n        _tokenId += 1;\n    }\n\n    function getURI()internal returns(uint256){\n        uint256 rnd = getPseudoRandomNumber(_availableURIs.length, msg.sender);\n        uint256 uri = _availableURIs[rnd];\n        if(_stock[uri] == 1){\n            removeToken(rnd);\n        }\n        _stock[uri] -= 1;   \n        if(uri == _saURI){\n            uri = _saURI + _stock[uri];\n        }\n        require(uri>0,'invalid URI');\n        return uri;\n    }\n\n    function removeToken(uint index) public{\n        if(_availableURIs.length>1){\n        _availableURIs[index] = _availableURIs[_availableURIs.length - 1];\n        }\n        _availableURIs.pop();\n    }\n\n    function getPseudoRandomNumber(uint256 length, address account) public view returns (uint256){    \n        uint256 rnd = uint256(keccak256(abi.encodePacked(block.difficulty, block.timestamp, _tokenId, length, msg.sender, account))) % length;\n        return rnd % length;\n    }\n\n    function burn(uint256 tokenId) public {\n        address owner = ERC721.ownerOf(tokenId);\n        require(msg.sender == owner, \"Owner only\");\n        _burn(tokenId);\n    }\n\n    function setURI(\n        string calldata updatedURI\n    ) external adminRequired{\n        _uri = updatedURI;\n    }\n\n    function tokenURI(uint256 tokenId) public view virtual override returns (string memory) {\n        require(_exists(tokenId), \"ERC721Metadata: URI query for nonexistent token\");\n        return string(abi.encodePacked(_uri, Strings.toString(_tokenURIs[tokenId]), \".json\"));\n    }\n\n    function setRoyalties(address payable _recipient, uint256 _royaltyPerCent) external adminRequired {\n        _royalties_recipient = _recipient;\n        _royaltyAmount = _royaltyPerCent;\n    }\n\n    function royaltyInfo(uint256 salePrice) external view returns (address, uint256) {\n        if(_royalties_recipient != address(0)){\n            return (_royalties_recipient, (salePrice * _royaltyAmount) / 100 );\n        }\n        return (address(0), 0);\n    }\n\n    function withdraw(address recipient) external adminRequired {\n        payable(recipient).transfer(address(this).balance);\n    }\n\n}",
  "sourcePath": "/Users/bct/Documents/Dev/NFT_dev/Anastasis/contracts/AnastasisAct3.sol",
  "compiler": {
    "name": "solc",
    "version": "0.8.13+commit.abaa5c0e.Emscripten.clang"
  },
  "schemaVersion": "3.4.4",
  "updatedAt": "2022-10-06T13:44:43.122Z",
  "devdoc": {
    "kind": "dev",
    "methods": {
      "approve(address,uint256)": {
        "details": "See {IERC721-approve}."
      },
      "approveAdmin(address)": {
        "details": "See {IAdminControl-approveAdmin}."
      },
      "balanceOf(address)": {
        "details": "See {IERC721-balanceOf}."
      },
      "getAdmins()": {
        "details": "See {IAdminControl-getAdmins}."
      },
      "getApproved(uint256)": {
        "details": "See {IERC721-getApproved}."
      },
      "isAdmin(address)": {
        "details": "See {IAdminControl-isAdmin}."
      },
      "isApprovedForAll(address,address)": {
        "details": "See {IERC721-isApprovedForAll}."
      },
      "name()": {
        "details": "See {IERC721Metadata-name}."
      },
      "owner()": {
        "details": "Returns the address of the current owner."
      },
      "ownerOf(uint256)": {
        "details": "See {IERC721-ownerOf}."
      },
      "renounceOwnership()": {
        "details": "Leaves the contract without owner. It will not be possible to call `onlyOwner` functions anymore. Can only be called by the current owner. NOTE: Renouncing ownership will leave the contract without an owner, thereby removing any functionality that is only available to the owner."
      },
      "revokeAdmin(address)": {
        "details": "See {IAdminControl-revokeAdmin}."
      },
      "safeTransferFrom(address,address,uint256)": {
        "details": "See {IERC721-safeTransferFrom}."
      },
      "safeTransferFrom(address,address,uint256,bytes)": {
        "details": "See {IERC721-safeTransferFrom}."
      },
      "setApprovalForAll(address,bool)": {
        "details": "See {IERC721-setApprovalForAll}."
      },
      "symbol()": {
        "details": "See {IERC721Metadata-symbol}."
      },
      "tokenURI(uint256)": {
        "details": "See {IERC721Metadata-tokenURI}."
      },
      "transferFrom(address,address,uint256)": {
        "details": "See {IERC721-transferFrom}."
      },
      "transferOwnership(address)": {
        "details": "Transfers ownership of the contract to a new account (`newOwner`). Can only be called by the current owner."
      }
    },
    "version": 1
  },
  "userdoc": {
    "kind": "user",
    "methods": {},
    "version": 1
  }
}