{
  "contractName": "fakeFOMOverse",
  "abi": [
    {
      "inputs": [],
      "stateMutability": "nonpayable",
      "type": "constructor"
    },
    {
      "anonymous": false,
      "inputs": [
        {
          "indexed": true,
          "internalType": "address",
          "name": "account",
          "type": "address"
        },
        {
          "indexed": true,
          "internalType": "address",
          "name": "sender",
          "type": "address"
        }
      ],
      "name": "AdminApproved",
      "type": "event"
    },
    {
      "anonymous": false,
      "inputs": [
        {
          "indexed": true,
          "internalType": "address",
          "name": "account",
          "type": "address"
        },
        {
          "indexed": true,
          "internalType": "address",
          "name": "sender",
          "type": "address"
        }
      ],
      "name": "AdminRevoked",
      "type": "event"
    },
    {
      "anonymous": false,
      "inputs": [
        {
          "indexed": true,
          "internalType": "address",
          "name": "owner",
          "type": "address"
        },
        {
          "indexed": true,
          "internalType": "address",
          "name": "approved",
          "type": "address"
        },
        {
          "indexed": true,
          "internalType": "uint256",
          "name": "tokenId",
          "type": "uint256"
        }
      ],
      "name": "Approval",
      "type": "event"
    },
    {
      "anonymous": false,
      "inputs": [
        {
          "indexed": true,
          "internalType": "address",
          "name": "owner",
          "type": "address"
        },
        {
          "indexed": true,
          "internalType": "address",
          "name": "operator",
          "type": "address"
        },
        {
          "indexed": false,
          "internalType": "bool",
          "name": "approved",
          "type": "bool"
        }
      ],
      "name": "ApprovalForAll",
      "type": "event"
    },
    {
      "anonymous": false,
      "inputs": [
        {
          "indexed": true,
          "internalType": "address",
          "name": "previousOwner",
          "type": "address"
        },
        {
          "indexed": true,
          "internalType": "address",
          "name": "newOwner",
          "type": "address"
        }
      ],
      "name": "OwnershipTransferred",
      "type": "event"
    },
    {
      "anonymous": false,
      "inputs": [
        {
          "indexed": true,
          "internalType": "address",
          "name": "from",
          "type": "address"
        },
        {
          "indexed": true,
          "internalType": "address",
          "name": "to",
          "type": "address"
        },
        {
          "indexed": true,
          "internalType": "uint256",
          "name": "tokenId",
          "type": "uint256"
        }
      ],
      "name": "Transfer",
      "type": "event"
    },
    {
      "inputs": [
        {
          "internalType": "address",
          "name": "to",
          "type": "address"
        },
        {
          "internalType": "uint256",
          "name": "tokenId",
          "type": "uint256"
        }
      ],
      "name": "approve",
      "outputs": [],
      "stateMutability": "nonpayable",
      "type": "function"
    },
    {
      "inputs": [
        {
          "internalType": "address",
          "name": "admin",
          "type": "address"
        }
      ],
      "name": "approveAdmin",
      "outputs": [],
      "stateMutability": "nonpayable",
      "type": "function"
    },
    {
      "inputs": [
        {
          "internalType": "address",
          "name": "owner",
          "type": "address"
        }
      ],
      "name": "balanceOf",
      "outputs": [
        {
          "internalType": "uint256",
          "name": "",
          "type": "uint256"
        }
      ],
      "stateMutability": "view",
      "type": "function"
    },
    {
      "inputs": [],
      "name": "getAdmins",
      "outputs": [
        {
          "internalType": "address[]",
          "name": "admins",
          "type": "address[]"
        }
      ],
      "stateMutability": "view",
      "type": "function"
    },
    {
      "inputs": [
        {
          "internalType": "uint256",
          "name": "tokenId",
          "type": "uint256"
        }
      ],
      "name": "getApproved",
      "outputs": [
        {
          "internalType": "address",
          "name": "",
          "type": "address"
        }
      ],
      "stateMutability": "view",
      "type": "function"
    },
    {
      "inputs": [
        {
          "internalType": "address",
          "name": "admin",
          "type": "address"
        }
      ],
      "name": "isAdmin",
      "outputs": [
        {
          "internalType": "bool",
          "name": "",
          "type": "bool"
        }
      ],
      "stateMutability": "view",
      "type": "function"
    },
    {
      "inputs": [
        {
          "internalType": "address",
          "name": "owner",
          "type": "address"
        },
        {
          "internalType": "address",
          "name": "operator",
          "type": "address"
        }
      ],
      "name": "isApprovedForAll",
      "outputs": [
        {
          "internalType": "bool",
          "name": "",
          "type": "bool"
        }
      ],
      "stateMutability": "view",
      "type": "function"
    },
    {
      "inputs": [],
      "name": "name",
      "outputs": [
        {
          "internalType": "string",
          "name": "",
          "type": "string"
        }
      ],
      "stateMutability": "view",
      "type": "function"
    },
    {
      "inputs": [],
      "name": "owner",
      "outputs": [
        {
          "internalType": "address",
          "name": "",
          "type": "address"
        }
      ],
      "stateMutability": "view",
      "type": "function"
    },
    {
      "inputs": [
        {
          "internalType": "uint256",
          "name": "tokenId",
          "type": "uint256"
        }
      ],
      "name": "ownerOf",
      "outputs": [
        {
          "internalType": "address",
          "name": "",
          "type": "address"
        }
      ],
      "stateMutability": "view",
      "type": "function"
    },
    {
      "inputs": [],
      "name": "renounceOwnership",
      "outputs": [],
      "stateMutability": "nonpayable",
      "type": "function"
    },
    {
      "inputs": [
        {
          "internalType": "address",
          "name": "admin",
          "type": "address"
        }
      ],
      "name": "revokeAdmin",
      "outputs": [],
      "stateMutability": "nonpayable",
      "type": "function"
    },
    {
      "inputs": [
        {
          "internalType": "address",
          "name": "from",
          "type": "address"
        },
        {
          "internalType": "address",
          "name": "to",
          "type": "address"
        },
        {
          "internalType": "uint256",
          "name": "tokenId",
          "type": "uint256"
        }
      ],
      "name": "safeTransferFrom",
      "outputs": [],
      "stateMutability": "nonpayable",
      "type": "function"
    },
    {
      "inputs": [
        {
          "internalType": "address",
          "name": "from",
          "type": "address"
        },
        {
          "internalType": "address",
          "name": "to",
          "type": "address"
        },
        {
          "internalType": "uint256",
          "name": "tokenId",
          "type": "uint256"
        },
        {
          "internalType": "bytes",
          "name": "data",
          "type": "bytes"
        }
      ],
      "name": "safeTransferFrom",
      "outputs": [],
      "stateMutability": "nonpayable",
      "type": "function"
    },
    {
      "inputs": [
        {
          "internalType": "address",
          "name": "operator",
          "type": "address"
        },
        {
          "internalType": "bool",
          "name": "approved",
          "type": "bool"
        }
      ],
      "name": "setApprovalForAll",
      "outputs": [],
      "stateMutability": "nonpayable",
      "type": "function"
    },
    {
      "inputs": [],
      "name": "symbol",
      "outputs": [
        {
          "internalType": "string",
          "name": "",
          "type": "string"
        }
      ],
      "stateMutability": "view",
      "type": "function"
    },
    {
      "inputs": [
        {
          "internalType": "address",
          "name": "from",
          "type": "address"
        },
        {
          "internalType": "address",
          "name": "to",
          "type": "address"
        },
        {
          "internalType": "uint256",
          "name": "tokenId",
          "type": "uint256"
        }
      ],
      "name": "transferFrom",
      "outputs": [],
      "stateMutability": "nonpayable",
      "type": "function"
    },
    {
      "inputs": [
        {
          "internalType": "address",
          "name": "newOwner",
          "type": "address"
        }
      ],
      "name": "transferOwnership",
      "outputs": [],
      "stateMutability": "nonpayable",
      "type": "function"
    },
    {
      "inputs": [
        {
          "internalType": "bytes4",
          "name": "interfaceId",
          "type": "bytes4"
        }
      ],
      "name": "supportsInterface",
      "outputs": [
        {
          "internalType": "bool",
          "name": "",
          "type": "bool"
        }
      ],
      "stateMutability": "view",
      "type": "function"
    },
    {
      "inputs": [
        {
          "internalType": "address",
          "name": "to",
          "type": "address"
        }
      ],
      "name": "mint",
      "outputs": [],
      "stateMutability": "nonpayable",
      "type": "function"
    },
    {
      "inputs": [
        {
          "internalType": "uint256",
          "name": "tokenId",
          "type": "uint256"
        }
      ],
      "name": "burn",
      "outputs": [],
      "stateMutability": "nonpayable",
      "type": "function"
    },
    {
      "inputs": [
        {
          "internalType": "uint256",
          "name": "urisNumber",
          "type": "uint256"
        },
        {
          "internalType": "string",
          "name": "updatedURI",
          "type": "string"
        }
      ],
      "name": "setURI",
      "outputs": [],
      "stateMutability": "nonpayable",
      "type": "function"
    },
    {
      "inputs": [
        {
          "internalType": "uint256",
          "name": "tokenId",
          "type": "uint256"
        }
      ],
      "name": "tokenURI",
      "outputs": [
        {
          "internalType": "string",
          "name": "",
          "type": "string"
        }
      ],
      "stateMutability": "view",
      "type": "function"
    },
    {
      "inputs": [
        {
          "internalType": "address payable",
          "name": "_recipient",
          "type": "address"
        },
        {
          "internalType": "uint256",
          "name": "_royaltyPerCent",
          "type": "uint256"
        }
      ],
      "name": "setRoyalties",
      "outputs": [],
      "stateMutability": "nonpayable",
      "type": "function"
    },
    {
      "inputs": [
        {
          "internalType": "uint256",
          "name": "salePrice",
          "type": "uint256"
        }
      ],
      "name": "royaltyInfo",
      "outputs": [
        {
          "internalType": "address",
          "name": "",
          "type": "address"
        },
        {
          "internalType": "uint256",
          "name": "",
          "type": "uint256"
        }
      ],
      "stateMutability": "view",
      "type": "function"
    },
    {
      "inputs": [
        {
          "internalType": "address",
          "name": "recipient",
          "type": "address"
        }
      ],
      "name": "withdraw",
      "outputs": [],
      "stateMutability": "nonpayable",
      "type": "function"
    }
  ],
  "bytecode": "0x60806040523480156200001157600080fd5b506040518060400160405280600d81526020017f66616b65464f4d4f7665727365000000000000000000000000000000000000008152506040518060400160405280600781526020017f46467665727365000000000000000000000000000000000000000000000000008152506200009e620000926200012060201b60201c565b6200012860201b60201c565b8160019080519060200190620000b6929190620001ec565b508060029080519060200190620000cf929190620001ec565b50505033600960006101000a81548173ffffffffffffffffffffffffffffffffffffffff021916908373ffffffffffffffffffffffffffffffffffffffff160217905550600a808190555062000300565b600033905090565b60008060009054906101000a900473ffffffffffffffffffffffffffffffffffffffff169050816000806101000a81548173ffffffffffffffffffffffffffffffffffffffff021916908373ffffffffffffffffffffffffffffffffffffffff1602179055508173ffffffffffffffffffffffffffffffffffffffff168173ffffffffffffffffffffffffffffffffffffffff167f8be0079c531659141344cd1fd0a4f28419497f9722a3daafe3b4186f6b6457e060405160405180910390a35050565b828054620001fa90620002cb565b90600052602060002090601f0160209004810192826200021e57600085556200026a565b82601f106200023957805160ff19168380011785556200026a565b828001600101855582156200026a579182015b82811115620002695782518255916020019190600101906200024c565b5b5090506200027991906200027d565b5090565b5b80821115620002985760008160009055506001016200027e565b5090565b7f4e487b7100000000000000000000000000000000000000000000000000000000600052602260045260246000fd5b60006002820490506001821680620002e457607f821691505b602082108103620002fa57620002f96200029c565b5b50919050565b613a7780620003106000396000f3fe608060405234801561001057600080fd5b506004361061018e5760003560e01c80636d73e669116100de57806395d89b4111610097578063c87b56dd11610071578063c87b56dd14610455578063cef6d36814610485578063e985e9c5146104b6578063f2fde38b146104e65761018e565b806395d89b41146103ff578063a22cb4651461041d578063b88d4fde146104395761018e565b80636d73e6691461035357806370a082311461036f578063715018a61461039f578063862440e2146103a95780638c7ea24b146103c55780638da5cb5b146103e15761018e565b80632d3456701161014b57806342966c681161012557806342966c68146102cf57806351cff8d9146102eb5780636352211e146103075780636a627842146103375761018e565b80632d3456701461027957806331ae450b1461029557806342842e0e146102b35761018e565b806301ffc9a71461019357806306fdde03146101c3578063081812fc146101e1578063095ea7b31461021157806323b872dd1461022d57806324d7806c14610249575b600080fd5b6101ad60048036038101906101a8919061258f565b610502565b6040516101ba91906125d7565b60405180910390f35b6101cb61059c565b6040516101d8919061268b565b60405180910390f35b6101fb60048036038101906101f691906126e3565b61062e565b6040516102089190612751565b60405180910390f35b61022b60048036038101906102269190612798565b610674565b005b610247600480360381019061024291906127d8565b61078b565b005b610263600480360381019061025e919061282b565b6107eb565b60405161027091906125d7565b60405180910390f35b610293600480360381019061028e919061282b565b610845565b005b61029d6108d9565b6040516102aa9190612916565b60405180910390f35b6102cd60048036038101906102c891906127d8565b6109bb565b005b6102e960048036038101906102e491906126e3565b6109db565b005b6103056004803603810190610300919061282b565b610a63565b005b610321600480360381019061031c91906126e3565b610b3d565b60405161032e9190612751565b60405180910390f35b610351600480360381019061034c919061282b565b610bee565b005b61036d6004803603810190610368919061282b565b610c17565b005b6103896004803603810190610384919061282b565b610caa565b6040516103969190612947565b60405180910390f35b6103a7610d61565b005b6103c360048036038101906103be91906129c7565b610d75565b005b6103df60048036038101906103da9190612a65565b610e23565b005b6103e9610eff565b6040516103f69190612751565b60405180910390f35b610407610f28565b604051610414919061268b565b60405180910390f35b61043760048036038101906104329190612ad1565b610fba565b005b610453600480360381019061044e9190612c41565b610fd0565b005b61046f600480360381019061046a91906126e3565b611032565b60405161047c919061268b565b60405180910390f35b61049f600480360381019061049a91906126e3565b6110ce565b6040516104ad929190612cc4565b60405180910390f35b6104d060048036038101906104cb9190612ced565b61117a565b6040516104dd91906125d7565b60405180910390f35b61050060048036038101906104fb919061282b565b61120e565b005b600061050d82611291565b8061051d575061051c8261130b565b5b8061058557507f2a55205a000000000000000000000000000000000000000000000000000000007bffffffffffffffffffffffffffffffffffffffffffffffffffffffff1916827bffffffffffffffffffffffffffffffffffffffffffffffffffffffff1916145b80610595575061059482611291565b5b9050919050565b6060600180546105ab90612d5c565b80601f01602080910402602001604051908101604052809291908181526020018280546105d790612d5c565b80156106245780601f106105f957610100808354040283529160200191610624565b820191906000526020600020905b81548152906001019060200180831161060757829003601f168201915b5050505050905090565b6000610639826113ed565b6005600083815260200190815260200160002060009054906101000a900473ffffffffffffffffffffffffffffffffffffffff169050919050565b600061067f82610b3d565b90508073ffffffffffffffffffffffffffffffffffffffff168373ffffffffffffffffffffffffffffffffffffffff16036106ef576040517f08c379a00000000000000000000000000000000000000000000000000000000081526004016106e690612dff565b60405180910390fd5b8073ffffffffffffffffffffffffffffffffffffffff1661070e611438565b73ffffffffffffffffffffffffffffffffffffffff16148061073d575061073c81610737611438565b61117a565b5b61077c576040517f08c379a000000000000000000000000000000000000000000000000000000000815260040161077390612e91565b60405180910390fd5b6107868383611440565b505050565b61079c610796611438565b826114f9565b6107db576040517f08c379a00000000000000000000000000000000000000000000000000000000081526004016107d290612f23565b60405180910390fd5b6107e683838361158e565b505050565b60008173ffffffffffffffffffffffffffffffffffffffff1661080c610eff565b73ffffffffffffffffffffffffffffffffffffffff16148061083e575061083d8260076117f490919063ffffffff16565b5b9050919050565b61084d611824565b6108618160076117f490919063ffffffff16565b156108d6573373ffffffffffffffffffffffffffffffffffffffff168173ffffffffffffffffffffffffffffffffffffffff167f7c0c3c84c67c85fcac635147348bfe374c24a1a93d0366d1cfe9d8853cbf89d560405160405180910390a36108d48160076118a290919063ffffffff16565b505b50565b60606108e560076118d2565b67ffffffffffffffff8111156108fe576108fd612b16565b5b60405190808252806020026020018201604052801561092c5781602001602082028036833780820191505090505b50905060005b61093c60076118d2565b8110156109b7576109578160076118e790919063ffffffff16565b82828151811061096a57610969612f43565b5b602002602001019073ffffffffffffffffffffffffffffffffffffffff16908173ffffffffffffffffffffffffffffffffffffffff168152505080806109af90612fa1565b915050610932565b5090565b6109d683838360405180602001604052806000815250610fd0565b505050565b60006109e682610b3d565b90508073ffffffffffffffffffffffffffffffffffffffff163373ffffffffffffffffffffffffffffffffffffffff1614610a56576040517f08c379a0000000000000000000000000000000000000000000000000000000008152600401610a4d90613035565b60405180910390fd5b610a5f82611901565b5050565b3373ffffffffffffffffffffffffffffffffffffffff16610a82610eff565b73ffffffffffffffffffffffffffffffffffffffff161480610ab45750610ab33360076117f490919063ffffffff16565b5b610af3576040517f08c379a0000000000000000000000000000000000000000000000000000000008152600401610aea906130c7565b60405180910390fd5b8073ffffffffffffffffffffffffffffffffffffffff166108fc479081150290604051600060405180830381858888f19350505050158015610b39573d6000803e3d6000fd5b5050565b6000806003600084815260200190815260200160002060009054906101000a900473ffffffffffffffffffffffffffffffffffffffff169050600073ffffffffffffffffffffffffffffffffffffffff168173ffffffffffffffffffffffffffffffffffffffff1603610be5576040517f08c379a0000000000000000000000000000000000000000000000000000000008152600401610bdc90613133565b60405180910390fd5b80915050919050565b610bfa81600d54611a1e565b6001600d6000828254610c0d9190613153565b9250508190555050565b610c1f611824565b610c338160076117f490919063ffffffff16565b610ca7573373ffffffffffffffffffffffffffffffffffffffff168173ffffffffffffffffffffffffffffffffffffffff167f7e1a1a08d52e4ba0e21554733d66165fd5151f99460116223d9e3a608eec5cb160405160405180910390a3610ca5816007611bf790919063ffffffff16565b505b50565b60008073ffffffffffffffffffffffffffffffffffffffff168273ffffffffffffffffffffffffffffffffffffffff1603610d1a576040517f08c379a0000000000000000000000000000000000000000000000000000000008152600401610d119061321b565b60405180910390fd5b600460008373ffffffffffffffffffffffffffffffffffffffff1673ffffffffffffffffffffffffffffffffffffffff168152602001908152602001600020549050919050565b610d69611824565b610d736000611c27565b565b3373ffffffffffffffffffffffffffffffffffffffff16610d94610eff565b73ffffffffffffffffffffffffffffffffffffffff161480610dc65750610dc53360076117f490919063ffffffff16565b5b610e05576040517f08c379a0000000000000000000000000000000000000000000000000000000008152600401610dfc906130c7565b60405180910390fd5b82600b819055508181600c9190610e1d929190612480565b50505050565b3373ffffffffffffffffffffffffffffffffffffffff16610e42610eff565b73ffffffffffffffffffffffffffffffffffffffff161480610e745750610e733360076117f490919063ffffffff16565b5b610eb3576040517f08c379a0000000000000000000000000000000000000000000000000000000008152600401610eaa906130c7565b60405180910390fd5b81600960006101000a81548173ffffffffffffffffffffffffffffffffffffffff021916908373ffffffffffffffffffffffffffffffffffffffff16021790555080600a819055505050565b60008060009054906101000a900473ffffffffffffffffffffffffffffffffffffffff16905090565b606060028054610f3790612d5c565b80601f0160208091040260200160405190810160405280929190818152602001828054610f6390612d5c565b8015610fb05780601f10610f8557610100808354040283529160200191610fb0565b820191906000526020600020905b815481529060010190602001808311610f9357829003601f168201915b5050505050905090565b610fcc610fc5611438565b8383611ceb565b5050565b610fe1610fdb611438565b836114f9565b611020576040517f08c379a000000000000000000000000000000000000000000000000000000000815260040161101790612f23565b60405180910390fd5b61102c84848484611e57565b50505050565b606061103d82611eb3565b61107c576040517f08c379a0000000000000000000000000000000000000000000000000000000008152600401611073906132ad565b60405180910390fd5b6000600b546109604361108f91906132fc565b611099919061332d565b9050600c6110a682611f1f565b6040516020016110b792919061347a565b604051602081830303815290604052915050919050565b600080600073ffffffffffffffffffffffffffffffffffffffff16600960009054906101000a900473ffffffffffffffffffffffffffffffffffffffff1673ffffffffffffffffffffffffffffffffffffffff161461116d57600960009054906101000a900473ffffffffffffffffffffffffffffffffffffffff166064600a548561115a91906134a9565b61116491906132fc565b91509150611175565b600080915091505b915091565b6000600660008473ffffffffffffffffffffffffffffffffffffffff1673ffffffffffffffffffffffffffffffffffffffff16815260200190815260200160002060008373ffffffffffffffffffffffffffffffffffffffff1673ffffffffffffffffffffffffffffffffffffffff16815260200190815260200160002060009054906101000a900460ff16905092915050565b611216611824565b600073ffffffffffffffffffffffffffffffffffffffff168173ffffffffffffffffffffffffffffffffffffffff1603611285576040517f08c379a000000000000000000000000000000000000000000000000000000000815260040161127c90613575565b60405180910390fd5b61128e81611c27565b50565b60007f553e757e000000000000000000000000000000000000000000000000000000007bffffffffffffffffffffffffffffffffffffffffffffffffffffffff1916827bffffffffffffffffffffffffffffffffffffffffffffffffffffffff1916148061130457506113038261130b565b5b9050919050565b60007f80ac58cd000000000000000000000000000000000000000000000000000000007bffffffffffffffffffffffffffffffffffffffffffffffffffffffff1916827bffffffffffffffffffffffffffffffffffffffffffffffffffffffff191614806113d657507f5b5e139f000000000000000000000000000000000000000000000000000000007bffffffffffffffffffffffffffffffffffffffffffffffffffffffff1916827bffffffffffffffffffffffffffffffffffffffffffffffffffffffff1916145b806113e657506113e58261207f565b5b9050919050565b6113f681611eb3565b611435576040517f08c379a000000000000000000000000000000000000000000000000000000000815260040161142c90613133565b60405180910390fd5b50565b600033905090565b816005600083815260200190815260200160002060006101000a81548173ffffffffffffffffffffffffffffffffffffffff021916908373ffffffffffffffffffffffffffffffffffffffff160217905550808273ffffffffffffffffffffffffffffffffffffffff166114b383610b3d565b73ffffffffffffffffffffffffffffffffffffffff167f8c5be1e5ebec7d5bd14f71427d1e84f3dd0314c0f7b2291e5b200ac8c7c3b92560405160405180910390a45050565b60008061150583610b3d565b90508073ffffffffffffffffffffffffffffffffffffffff168473ffffffffffffffffffffffffffffffffffffffff1614806115475750611546818561117a565b5b8061158557508373ffffffffffffffffffffffffffffffffffffffff1661156d8461062e565b73ffffffffffffffffffffffffffffffffffffffff16145b91505092915050565b8273ffffffffffffffffffffffffffffffffffffffff166115ae82610b3d565b73ffffffffffffffffffffffffffffffffffffffff1614611604576040517f08c379a00000000000000000000000000000000000000000000000000000000081526004016115fb90613607565b60405180910390fd5b600073ffffffffffffffffffffffffffffffffffffffff168273ffffffffffffffffffffffffffffffffffffffff1603611673576040517f08c379a000000000000000000000000000000000000000000000000000000000815260040161166a90613699565b60405180910390fd5b61167e8383836120e9565b611689600082611440565b6001600460008573ffffffffffffffffffffffffffffffffffffffff1673ffffffffffffffffffffffffffffffffffffffff16815260200190815260200160002060008282546116d991906136b9565b925050819055506001600460008473ffffffffffffffffffffffffffffffffffffffff1673ffffffffffffffffffffffffffffffffffffffff16815260200190815260200160002060008282546117309190613153565b92505081905550816003600083815260200190815260200160002060006101000a81548173ffffffffffffffffffffffffffffffffffffffff021916908373ffffffffffffffffffffffffffffffffffffffff160217905550808273ffffffffffffffffffffffffffffffffffffffff168473ffffffffffffffffffffffffffffffffffffffff167fddf252ad1be2c89b69c2b068fc378daa952ba7f163c4a11628f55a4df523b3ef60405160405180910390a46117ef8383836120ee565b505050565b600061181c836000018373ffffffffffffffffffffffffffffffffffffffff1660001b6120f3565b905092915050565b61182c611438565b73ffffffffffffffffffffffffffffffffffffffff1661184a610eff565b73ffffffffffffffffffffffffffffffffffffffff16146118a0576040517f08c379a000000000000000000000000000000000000000000000000000000000815260040161189790613739565b60405180910390fd5b565b60006118ca836000018373ffffffffffffffffffffffffffffffffffffffff1660001b612116565b905092915050565b60006118e08260000161222a565b9050919050565b60006118f6836000018361223b565b60001c905092915050565b600061190c82610b3d565b905061191a816000846120e9565b611925600083611440565b6001600460008373ffffffffffffffffffffffffffffffffffffffff1673ffffffffffffffffffffffffffffffffffffffff168152602001908152602001600020600082825461197591906136b9565b925050819055506003600083815260200190815260200160002060006101000a81549073ffffffffffffffffffffffffffffffffffffffff021916905581600073ffffffffffffffffffffffffffffffffffffffff168273ffffffffffffffffffffffffffffffffffffffff167fddf252ad1be2c89b69c2b068fc378daa952ba7f163c4a11628f55a4df523b3ef60405160405180910390a4611a1a816000846120ee565b5050565b600073ffffffffffffffffffffffffffffffffffffffff168273ffffffffffffffffffffffffffffffffffffffff1603611a8d576040517f08c379a0000000000000000000000000000000000000000000000000000000008152600401611a84906137a5565b60405180910390fd5b611a9681611eb3565b15611ad6576040517f08c379a0000000000000000000000000000000000000000000000000000000008152600401611acd90613811565b60405180910390fd5b611ae2600083836120e9565b6001600460008473ffffffffffffffffffffffffffffffffffffffff1673ffffffffffffffffffffffffffffffffffffffff1681526020019081526020016000206000828254611b329190613153565b92505081905550816003600083815260200190815260200160002060006101000a81548173ffffffffffffffffffffffffffffffffffffffff021916908373ffffffffffffffffffffffffffffffffffffffff160217905550808273ffffffffffffffffffffffffffffffffffffffff16600073ffffffffffffffffffffffffffffffffffffffff167fddf252ad1be2c89b69c2b068fc378daa952ba7f163c4a11628f55a4df523b3ef60405160405180910390a4611bf3600083836120ee565b5050565b6000611c1f836000018373ffffffffffffffffffffffffffffffffffffffff1660001b612266565b905092915050565b60008060009054906101000a900473ffffffffffffffffffffffffffffffffffffffff169050816000806101000a81548173ffffffffffffffffffffffffffffffffffffffff021916908373ffffffffffffffffffffffffffffffffffffffff1602179055508173ffffffffffffffffffffffffffffffffffffffff168173ffffffffffffffffffffffffffffffffffffffff167f8be0079c531659141344cd1fd0a4f28419497f9722a3daafe3b4186f6b6457e060405160405180910390a35050565b8173ffffffffffffffffffffffffffffffffffffffff168373ffffffffffffffffffffffffffffffffffffffff1603611d59576040517f08c379a0000000000000000000000000000000000000000000000000000000008152600401611d509061387d565b60405180910390fd5b80600660008573ffffffffffffffffffffffffffffffffffffffff1673ffffffffffffffffffffffffffffffffffffffff16815260200190815260200160002060008473ffffffffffffffffffffffffffffffffffffffff1673ffffffffffffffffffffffffffffffffffffffff16815260200190815260200160002060006101000a81548160ff0219169083151502179055508173ffffffffffffffffffffffffffffffffffffffff168373ffffffffffffffffffffffffffffffffffffffff167f17307eab39ab6107e8899845ad3d59bd9653f200f220920489ca2b5937696c3183604051611e4a91906125d7565b60405180910390a3505050565b611e6284848461158e565b611e6e848484846122d6565b611ead576040517f08c379a0000000000000000000000000000000000000000000000000000000008152600401611ea49061390f565b60405180910390fd5b50505050565b60008073ffffffffffffffffffffffffffffffffffffffff166003600084815260200190815260200160002060009054906101000a900473ffffffffffffffffffffffffffffffffffffffff1673ffffffffffffffffffffffffffffffffffffffff1614159050919050565b606060008203611f66576040518060400160405280600181526020017f3000000000000000000000000000000000000000000000000000000000000000815250905061207a565b600082905060005b60008214611f98578080611f8190612fa1565b915050600a82611f9191906132fc565b9150611f6e565b60008167ffffffffffffffff811115611fb457611fb3612b16565b5b6040519080825280601f01601f191660200182016040528015611fe65781602001600182028036833780820191505090505b5090505b6000851461207357600182611fff91906136b9565b9150600a8561200e919061332d565b603061201a9190613153565b60f81b8183815181106120305761202f612f43565b5b60200101907effffffffffffffffffffffffffffffffffffffffffffffffffffffffffffff1916908160001a905350600a8561206c91906132fc565b9450611fea565b8093505050505b919050565b60007f01ffc9a7000000000000000000000000000000000000000000000000000000007bffffffffffffffffffffffffffffffffffffffffffffffffffffffff1916827bffffffffffffffffffffffffffffffffffffffffffffffffffffffff1916149050919050565b505050565b505050565b600080836001016000848152602001908152602001600020541415905092915050565b6000808360010160008481526020019081526020016000205490506000811461221e57600060018261214891906136b9565b905060006001866000018054905061216091906136b9565b90508181146121cf57600086600001828154811061218157612180612f43565b5b90600052602060002001549050808760000184815481106121a5576121a4612f43565b5b90600052602060002001819055508387600101600083815260200190815260200160002081905550505b856000018054806121e3576121e261392f565b5b600190038181906000526020600020016000905590558560010160008681526020019081526020016000206000905560019350505050612224565b60009150505b92915050565b600081600001805490509050919050565b600082600001828154811061225357612252612f43565b5b9060005260206000200154905092915050565b600061227283836120f3565b6122cb5782600001829080600181540180825580915050600190039060005260206000200160009091909190915055826000018054905083600101600084815260200190815260200160002081905550600190506122d0565b600090505b92915050565b60006122f78473ffffffffffffffffffffffffffffffffffffffff1661245d565b15612450578373ffffffffffffffffffffffffffffffffffffffff1663150b7a02612320611438565b8786866040518563ffffffff1660e01b815260040161234294939291906139b3565b6020604051808303816000875af192505050801561237e57506040513d601f19601f8201168201806040525081019061237b9190613a14565b60015b612400573d80600081146123ae576040519150601f19603f3d011682016040523d82523d6000602084013e6123b3565b606091505b5060008151036123f8576040517f08c379a00000000000000000000000000000000000000000000000000000000081526004016123ef9061390f565b60405180910390fd5b805181602001fd5b63150b7a0260e01b7bffffffffffffffffffffffffffffffffffffffffffffffffffffffff1916817bffffffffffffffffffffffffffffffffffffffffffffffffffffffff191614915050612455565b600190505b949350505050565b6000808273ffffffffffffffffffffffffffffffffffffffff163b119050919050565b82805461248c90612d5c565b90600052602060002090601f0160209004810192826124ae57600085556124f5565b82601f106124c757803560ff19168380011785556124f5565b828001600101855582156124f5579182015b828111156124f45782358255916020019190600101906124d9565b5b5090506125029190612506565b5090565b5b8082111561251f576000816000905550600101612507565b5090565b6000604051905090565b600080fd5b600080fd5b60007fffffffff0000000000000000000000000000000000000000000000000000000082169050919050565b61256c81612537565b811461257757600080fd5b50565b60008135905061258981612563565b92915050565b6000602082840312156125a5576125a461252d565b5b60006125b38482850161257a565b91505092915050565b60008115159050919050565b6125d1816125bc565b82525050565b60006020820190506125ec60008301846125c8565b92915050565b600081519050919050565b600082825260208201905092915050565b60005b8381101561262c578082015181840152602081019050612611565b8381111561263b576000848401525b50505050565b6000601f19601f8301169050919050565b600061265d826125f2565b61266781856125fd565b935061267781856020860161260e565b61268081612641565b840191505092915050565b600060208201905081810360008301526126a58184612652565b905092915050565b6000819050919050565b6126c0816126ad565b81146126cb57600080fd5b50565b6000813590506126dd816126b7565b92915050565b6000602082840312156126f9576126f861252d565b5b6000612707848285016126ce565b91505092915050565b600073ffffffffffffffffffffffffffffffffffffffff82169050919050565b600061273b82612710565b9050919050565b61274b81612730565b82525050565b60006020820190506127666000830184612742565b92915050565b61277581612730565b811461278057600080fd5b50565b6000813590506127928161276c565b92915050565b600080604083850312156127af576127ae61252d565b5b60006127bd85828601612783565b92505060206127ce858286016126ce565b9150509250929050565b6000806000606084860312156127f1576127f061252d565b5b60006127ff86828701612783565b935050602061281086828701612783565b9250506040612821868287016126ce565b9150509250925092565b6000602082840312156128415761284061252d565b5b600061284f84828501612783565b91505092915050565b600081519050919050565b600082825260208201905092915050565b6000819050602082019050919050565b61288d81612730565b82525050565b600061289f8383612884565b60208301905092915050565b6000602082019050919050565b60006128c382612858565b6128cd8185612863565b93506128d883612874565b8060005b838110156129095781516128f08882612893565b97506128fb836128ab565b9250506001810190506128dc565b5085935050505092915050565b6000602082019050818103600083015261293081846128b8565b905092915050565b612941816126ad565b82525050565b600060208201905061295c6000830184612938565b92915050565b600080fd5b600080fd5b600080fd5b60008083601f84011261298757612986612962565b5b8235905067ffffffffffffffff8111156129a4576129a3612967565b5b6020830191508360018202830111156129c0576129bf61296c565b5b9250929050565b6000806000604084860312156129e0576129df61252d565b5b60006129ee868287016126ce565b935050602084013567ffffffffffffffff811115612a0f57612a0e612532565b5b612a1b86828701612971565b92509250509250925092565b6000612a3282612710565b9050919050565b612a4281612a27565b8114612a4d57600080fd5b50565b600081359050612a5f81612a39565b92915050565b60008060408385031215612a7c57612a7b61252d565b5b6000612a8a85828601612a50565b9250506020612a9b858286016126ce565b9150509250929050565b612aae816125bc565b8114612ab957600080fd5b50565b600081359050612acb81612aa5565b92915050565b60008060408385031215612ae857612ae761252d565b5b6000612af685828601612783565b9250506020612b0785828601612abc565b9150509250929050565b600080fd5b7f4e487b7100000000000000000000000000000000000000000000000000000000600052604160045260246000fd5b612b4e82612641565b810181811067ffffffffffffffff82111715612b6d57612b6c612b16565b5b80604052505050565b6000612b80612523565b9050612b8c8282612b45565b919050565b600067ffffffffffffffff821115612bac57612bab612b16565b5b612bb582612641565b9050602081019050919050565b82818337600083830152505050565b6000612be4612bdf84612b91565b612b76565b905082815260208101848484011115612c0057612bff612b11565b5b612c0b848285612bc2565b509392505050565b600082601f830112612c2857612c27612962565b5b8135612c38848260208601612bd1565b91505092915050565b60008060008060808587031215612c5b57612c5a61252d565b5b6000612c6987828801612783565b9450506020612c7a87828801612783565b9350506040612c8b878288016126ce565b925050606085013567ffffffffffffffff811115612cac57612cab612532565b5b612cb887828801612c13565b91505092959194509250565b6000604082019050612cd96000830185612742565b612ce66020830184612938565b9392505050565b60008060408385031215612d0457612d0361252d565b5b6000612d1285828601612783565b9250506020612d2385828601612783565b9150509250929050565b7f4e487b7100000000000000000000000000000000000000000000000000000000600052602260045260246000fd5b60006002820490506001821680612d7457607f821691505b602082108103612d8757612d86612d2d565b5b50919050565b7f4552433732313a20617070726f76616c20746f2063757272656e74206f776e6560008201527f7200000000000000000000000000000000000000000000000000000000000000602082015250565b6000612de96021836125fd565b9150612df482612d8d565b604082019050919050565b60006020820190508181036000830152612e1881612ddc565b9050919050565b7f4552433732313a20617070726f76652063616c6c6572206973206e6f7420746f60008201527f6b656e206f776e6572206e6f7220617070726f76656420666f7220616c6c0000602082015250565b6000612e7b603e836125fd565b9150612e8682612e1f565b604082019050919050565b60006020820190508181036000830152612eaa81612e6e565b9050919050565b7f4552433732313a2063616c6c6572206973206e6f7420746f6b656e206f776e6560008201527f72206e6f7220617070726f766564000000000000000000000000000000000000602082015250565b6000612f0d602e836125fd565b9150612f1882612eb1565b604082019050919050565b60006020820190508181036000830152612f3c81612f00565b9050919050565b7f4e487b7100000000000000000000000000000000000000000000000000000000600052603260045260246000fd5b7f4e487b7100000000000000000000000000000000000000000000000000000000600052601160045260246000fd5b6000612fac826126ad565b91507fffffffffffffffffffffffffffffffffffffffffffffffffffffffffffffffff8203612fde57612fdd612f72565b5b600182019050919050565b7f4f776e6572206f6e6c7900000000000000000000000000000000000000000000600082015250565b600061301f600a836125fd565b915061302a82612fe9565b602082019050919050565b6000602082019050818103600083015261304e81613012565b9050919050565b7f41646d696e436f6e74726f6c3a204d757374206265206f776e6572206f72206160008201527f646d696e00000000000000000000000000000000000000000000000000000000602082015250565b60006130b16024836125fd565b91506130bc82613055565b604082019050919050565b600060208201905081810360008301526130e0816130a4565b9050919050565b7f4552433732313a20696e76616c696420746f6b656e2049440000000000000000600082015250565b600061311d6018836125fd565b9150613128826130e7565b602082019050919050565b6000602082019050818103600083015261314c81613110565b9050919050565b600061315e826126ad565b9150613169836126ad565b9250827fffffffffffffffffffffffffffffffffffffffffffffffffffffffffffffffff0382111561319e5761319d612f72565b5b828201905092915050565b7f4552433732313a2061646472657373207a65726f206973206e6f74206120766160008201527f6c6964206f776e65720000000000000000000000000000000000000000000000602082015250565b60006132056029836125fd565b9150613210826131a9565b604082019050919050565b60006020820190508181036000830152613234816131f8565b9050919050565b7f4552433732314d657461646174613a2055524920717565727920666f72206e6f60008201527f6e6578697374656e7420746f6b656e0000000000000000000000000000000000602082015250565b6000613297602f836125fd565b91506132a28261323b565b604082019050919050565b600060208201905081810360008301526132c68161328a565b9050919050565b7f4e487b7100000000000000000000000000000000000000000000000000000000600052601260045260246000fd5b6000613307826126ad565b9150613312836126ad565b925082613322576133216132cd565b5b828204905092915050565b6000613338826126ad565b9150613343836126ad565b925082613353576133526132cd565b5b828206905092915050565b600081905092915050565b60008190508160005260206000209050919050565b6000815461338b81612d5c565b613395818661335e565b945060018216600081146133b057600181146133c1576133f4565b60ff198316865281860193506133f4565b6133ca85613369565b60005b838110156133ec578154818901526001820191506020810190506133cd565b838801955050505b50505092915050565b6000613408826125f2565b613412818561335e565b935061342281856020860161260e565b80840191505092915050565b7f2e6a736f6e000000000000000000000000000000000000000000000000000000600082015250565b600061346460058361335e565b915061346f8261342e565b600582019050919050565b6000613486828561337e565b915061349282846133fd565b915061349d82613457565b91508190509392505050565b60006134b4826126ad565b91506134bf836126ad565b9250817fffffffffffffffffffffffffffffffffffffffffffffffffffffffffffffffff04831182151516156134f8576134f7612f72565b5b828202905092915050565b7f4f776e61626c653a206e6577206f776e657220697320746865207a65726f206160008201527f6464726573730000000000000000000000000000000000000000000000000000602082015250565b600061355f6026836125fd565b915061356a82613503565b604082019050919050565b6000602082019050818103600083015261358e81613552565b9050919050565b7f4552433732313a207472616e736665722066726f6d20696e636f72726563742060008201527f6f776e6572000000000000000000000000000000000000000000000000000000602082015250565b60006135f16025836125fd565b91506135fc82613595565b604082019050919050565b60006020820190508181036000830152613620816135e4565b9050919050565b7f4552433732313a207472616e7366657220746f20746865207a65726f2061646460008201527f7265737300000000000000000000000000000000000000000000000000000000602082015250565b60006136836024836125fd565b915061368e82613627565b604082019050919050565b600060208201905081810360008301526136b281613676565b9050919050565b60006136c4826126ad565b91506136cf836126ad565b9250828210156136e2576136e1612f72565b5b828203905092915050565b7f4f776e61626c653a2063616c6c6572206973206e6f7420746865206f776e6572600082015250565b60006137236020836125fd565b915061372e826136ed565b602082019050919050565b6000602082019050818103600083015261375281613716565b9050919050565b7f4552433732313a206d696e7420746f20746865207a65726f2061646472657373600082015250565b600061378f6020836125fd565b915061379a82613759565b602082019050919050565b600060208201905081810360008301526137be81613782565b9050919050565b7f4552433732313a20746f6b656e20616c7265616479206d696e74656400000000600082015250565b60006137fb601c836125fd565b9150613806826137c5565b602082019050919050565b6000602082019050818103600083015261382a816137ee565b9050919050565b7f4552433732313a20617070726f766520746f2063616c6c657200000000000000600082015250565b60006138676019836125fd565b915061387282613831565b602082019050919050565b600060208201905081810360008301526138968161385a565b9050919050565b7f4552433732313a207472616e7366657220746f206e6f6e20455243373231526560008201527f63656976657220696d706c656d656e7465720000000000000000000000000000602082015250565b60006138f96032836125fd565b91506139048261389d565b604082019050919050565b60006020820190508181036000830152613928816138ec565b9050919050565b7f4e487b7100000000000000000000000000000000000000000000000000000000600052603160045260246000fd5b600081519050919050565b600082825260208201905092915050565b60006139858261395e565b61398f8185613969565b935061399f81856020860161260e565b6139a881612641565b840191505092915050565b60006080820190506139c86000830187612742565b6139d56020830186612742565b6139e26040830185612938565b81810360608301526139f4818461397a565b905095945050505050565b600081519050613a0e81612563565b92915050565b600060208284031215613a2a57613a2961252d565b5b6000613a38848285016139ff565b9150509291505056fea2646970667358221220276aac26191beec09a0202914bdaf845d09782f070c2c77c532e6c37aad03ef064736f6c634300080d0033",
  "immutableReferences": {},
  "source": "// SPDX-License-Identifier: MIT\n\npragma solidity >= 0.8.13;\n\nimport \"@openzeppelin/contracts/token/ERC721/ERC721.sol\";\nimport \"@manifoldxyz/royalty-registry-solidity/contracts/specs/IEIP2981.sol\";\nimport \"@manifoldxyz/libraries-solidity/contracts/access/AdminControl.sol\";\nimport \"@openzeppelin/contracts/utils/Strings.sol\";\n\ncontract fakeFOMOverse is ERC721, AdminControl {\n    \n    address payable  private _royalties_recipient;\n    uint256 private _royaltyAmount; //in % \n    uint256 _urisNumber;\n    string _uri;\n    uint256 _tokenId;\n\n    \n    constructor () ERC721(\"fakeFOMOverse\", \"FFverse\") {\n        _royalties_recipient = payable(msg.sender);\n        _royaltyAmount = 10;\n    } \n\n    function supportsInterface(bytes4 interfaceId)\n        public\n        view\n        virtual\n        override(ERC721, AdminControl)\n        returns (bool)\n    {\n        return\n        AdminControl.supportsInterface(interfaceId) ||\n        ERC721.supportsInterface(interfaceId) ||\n        interfaceId == type(IEIP2981).interfaceId ||\n        super.supportsInterface(interfaceId);\n    }\n\n    function mint( \n        address to\n    ) external{\n        _mint(to, _tokenId);\n        _tokenId += 1;\n    }\n\n    function burn(uint256 tokenId) public {\n        address owner = ERC721.ownerOf(tokenId);\n        require(msg.sender == owner, \"Owner only\");\n        _burn(tokenId);\n    }\n\n    function setURI(\n        uint256 urisNumber,\n        string calldata updatedURI\n    ) external adminRequired{\n        _urisNumber = urisNumber;\n        _uri = updatedURI;\n    }\n\n    function tokenURI(uint256 tokenId) public view virtual override returns (string memory) {\n        require(_exists(tokenId), \"ERC721Metadata: URI query for nonexistent token\");\n        uint256 uri = block.number/2400 % _urisNumber;\n        return string(abi.encodePacked(_uri, Strings.toString(uri), \".json\"));\n    }\n\n    function setRoyalties(address payable _recipient, uint256 _royaltyPerCent) external adminRequired {\n        _royalties_recipient = _recipient;\n        _royaltyAmount = _royaltyPerCent;\n    }\n\n    function royaltyInfo(uint256 salePrice) external view returns (address, uint256) {\n        if(_royalties_recipient != address(0)){\n            return (_royalties_recipient, (salePrice * _royaltyAmount) / 100 );\n        }\n        return (address(0), 0);\n    }\n\n    function withdraw(address recipient) external adminRequired {\n        payable(recipient).transfer(address(this).balance);\n    }\n\n}",
  "sourcePath": "/Users/bct/Documents/Dev/NFT_dev/Anastasis/contracts/fakeFOMOverse.sol",
  "compiler": {
    "name": "solc",
    "version": "0.8.13+commit.abaa5c0e.Emscripten.clang"
  },
  "schemaVersion": "3.4.4",
  "updatedAt": "2022-09-30T21:46:20.615Z",
  "devdoc": {
    "kind": "dev",
    "methods": {
      "approve(address,uint256)": {
        "details": "See {IERC721-approve}."
      },
      "approveAdmin(address)": {
        "details": "See {IAdminControl-approveAdmin}."
      },
      "balanceOf(address)": {
        "details": "See {IERC721-balanceOf}."
      },
      "getAdmins()": {
        "details": "See {IAdminControl-getAdmins}."
      },
      "getApproved(uint256)": {
        "details": "See {IERC721-getApproved}."
      },
      "isAdmin(address)": {
        "details": "See {IAdminControl-isAdmin}."
      },
      "isApprovedForAll(address,address)": {
        "details": "See {IERC721-isApprovedForAll}."
      },
      "name()": {
        "details": "See {IERC721Metadata-name}."
      },
      "owner()": {
        "details": "Returns the address of the current owner."
      },
      "ownerOf(uint256)": {
        "details": "See {IERC721-ownerOf}."
      },
      "renounceOwnership()": {
        "details": "Leaves the contract without owner. It will not be possible to call `onlyOwner` functions anymore. Can only be called by the current owner. NOTE: Renouncing ownership will leave the contract without an owner, thereby removing any functionality that is only available to the owner."
      },
      "revokeAdmin(address)": {
        "details": "See {IAdminControl-revokeAdmin}."
      },
      "safeTransferFrom(address,address,uint256)": {
        "details": "See {IERC721-safeTransferFrom}."
      },
      "safeTransferFrom(address,address,uint256,bytes)": {
        "details": "See {IERC721-safeTransferFrom}."
      },
      "setApprovalForAll(address,bool)": {
        "details": "See {IERC721-setApprovalForAll}."
      },
      "symbol()": {
        "details": "See {IERC721Metadata-symbol}."
      },
      "tokenURI(uint256)": {
        "details": "See {IERC721Metadata-tokenURI}."
      },
      "transferFrom(address,address,uint256)": {
        "details": "See {IERC721-transferFrom}."
      },
      "transferOwnership(address)": {
        "details": "Transfers ownership of the contract to a new account (`newOwner`). Can only be called by the current owner."
      }
    },
    "version": 1
  },
  "userdoc": {
    "kind": "user",
    "methods": {},
    "version": 1
  }
}