{
  "contractName": "FundSplit",
  "abi": [
    {
      "inputs": [],
      "stateMutability": "nonpayable",
      "type": "constructor"
    },
    {
      "anonymous": false,
      "inputs": [
        {
          "indexed": false,
          "internalType": "address",
          "name": "from",
          "type": "address"
        },
        {
          "indexed": false,
          "internalType": "address",
          "name": "to",
          "type": "address"
        },
        {
          "indexed": false,
          "internalType": "uint256",
          "name": "amount",
          "type": "uint256"
        }
      ],
      "name": "Transf",
      "type": "event"
    },
    {
      "inputs": [],
      "name": "_ashAddress",
      "outputs": [
        {
          "internalType": "address",
          "name": "",
          "type": "address"
        }
      ],
      "stateMutability": "view",
      "type": "function"
    },
    {
      "inputs": [],
      "name": "_ashBalance",
      "outputs": [
        {
          "internalType": "uint256",
          "name": "",
          "type": "uint256"
        }
      ],
      "stateMutability": "view",
      "type": "function"
    },
    {
      "stateMutability": "payable",
      "type": "receive"
    },
    {
      "inputs": [
        {
          "internalType": "address",
          "name": "ashAddress",
          "type": "address"
        }
      ],
      "name": "setAshAddress",
      "outputs": [],
      "stateMutability": "nonpayable",
      "type": "function"
    },
    {
      "inputs": [
        {
          "internalType": "address",
          "name": "wallet",
          "type": "address"
        }
      ],
      "name": "manageAdmins",
      "outputs": [],
      "stateMutability": "nonpayable",
      "type": "function"
    },
    {
      "inputs": [
        {
          "internalType": "address[]",
          "name": "beneficiaries",
          "type": "address[]"
        },
        {
          "internalType": "uint256[]",
          "name": "split",
          "type": "uint256[]"
        }
      ],
      "name": "setSplit",
      "outputs": [],
      "stateMutability": "nonpayable",
      "type": "function"
    },
    {
      "inputs": [
        {
          "internalType": "address",
          "name": "from",
          "type": "address"
        },
        {
          "internalType": "uint256",
          "name": "amount",
          "type": "uint256"
        }
      ],
      "name": "depositAsh",
      "outputs": [
        {
          "internalType": "bool",
          "name": "",
          "type": "bool"
        }
      ],
      "stateMutability": "nonpayable",
      "type": "function"
    },
    {
      "inputs": [],
      "name": "getAshBalance",
      "outputs": [
        {
          "internalType": "uint256",
          "name": "",
          "type": "uint256"
        }
      ],
      "stateMutability": "view",
      "type": "function"
    },
    {
      "inputs": [
        {
          "internalType": "uint256",
          "name": "amount",
          "type": "uint256"
        }
      ],
      "name": "splitAsh",
      "outputs": [],
      "stateMutability": "nonpayable",
      "type": "function"
    },
    {
      "inputs": [
        {
          "internalType": "uint256",
          "name": "amount",
          "type": "uint256"
        }
      ],
      "name": "splitEth",
      "outputs": [],
      "stateMutability": "nonpayable",
      "type": "function"
    },
    {
      "inputs": [
        {
          "internalType": "address",
          "name": "recipient",
          "type": "address"
        },
        {
          "internalType": "uint256",
          "name": "amount",
          "type": "uint256"
        }
      ],
      "name": "withdrawEth",
      "outputs": [],
      "stateMutability": "nonpayable",
      "type": "function"
    },
    {
      "inputs": [
        {
          "internalType": "address",
          "name": "recipient",
          "type": "address"
        },
        {
          "internalType": "uint256",
          "name": "amount",
          "type": "uint256"
        }
      ],
      "name": "withdrawAsh",
      "outputs": [],
      "stateMutability": "nonpayable",
      "type": "function"
    }
  ],
  "bytecode": "0x60806040527364d91f12ece7362f91a6f8e7940cd55f05060b92600460006101000a81548173ffffffffffffffffffffffffffffffffffffffff021916908373ffffffffffffffffffffffffffffffffffffffff16021790555034801561006557600080fd5b5060016000803373ffffffffffffffffffffffffffffffffffffffff1673ffffffffffffffffffffffffffffffffffffffff16815260200190815260200160002060006101000a81548160ff0219169083151502179055506000600281905550611d63806100d46000396000f3fe6080604052600436106100a05760003560e01c80638e2425eb116100645780638e2425eb1461018f578063a0d2300d146101b8578063a3b15f2b146101e3578063ac246ee71461020c578063aecd2cd014610235578063e7ac71fc14610260576100a7565b80631b9a91a4146100ac57806326f73236146100d55780635d00816f146101125780636b8ab36c1461013b57806374ef396214610166576100a7565b366100a757005b600080fd5b3480156100b857600080fd5b506100d360048036038101906100ce91906113d3565b610289565b005b3480156100e157600080fd5b506100fc60048036038101906100f791906113d3565b6103db565b604051610109919061142e565b60405180910390f35b34801561011e57600080fd5b50610139600480360381019061013491906113d3565b610564565b005b34801561014757600080fd5b506101506107bc565b60405161015d9190611458565b60405180910390f35b34801561017257600080fd5b5061018d60048036038101906101889190611473565b6107c2565b005b34801561019b57600080fd5b506101b660048036038101906101b191906114a0565b610891565b005b3480156101c457600080fd5b506101cd610b27565b6040516101da9190611458565b60405180910390f35b3480156101ef57600080fd5b5061020a60048036038101906102059190611473565b610bca565b005b34801561021857600080fd5b50610233600480360381019061022e9190611588565b610cfa565b005b34801561024157600080fd5b5061024a610e99565b6040516102579190611618565b60405180910390f35b34801561026c57600080fd5b50610287600480360381019061028291906114a0565b610ebf565b005b6000803373ffffffffffffffffffffffffffffffffffffffff1673ffffffffffffffffffffffffffffffffffffffff16815260200190815260200160002060009054906101000a900460ff16610314576040517f08c379a000000000000000000000000000000000000000000000000000000000815260040161030b90611690565b60405180910390fd5b60004790508082111561035c576040517f08c379a0000000000000000000000000000000000000000000000000000000008152600401610353906116fc565b60405180910390fd5b60008373ffffffffffffffffffffffffffffffffffffffff166108fc849081150290604051600060405180830381858888f193505050509050806103d5576040517f08c379a00000000000000000000000000000000000000000000000000000000081526004016103cc90611768565b60405180910390fd5b50505050565b600080821161041f576040517f08c379a0000000000000000000000000000000000000000000000000000000008152600401610416906117d4565b60405180910390fd5b6000600460009054906101000a900473ffffffffffffffffffffffffffffffffffffffff1673ffffffffffffffffffffffffffffffffffffffff166323b872dd8530866040518463ffffffff1660e01b8152600401610480939291906117f4565b6020604051808303816000875af115801561049f573d6000803e3d6000fd5b505050506040513d601f19601f820116820180604052508101906104c39190611857565b90507fd0047213cda5e5b4eefb7cc2b8330a046dc63d530a75c14bb94f09641f06e2e13330856040516104f8939291906117f4565b60405180910390a180610540576040517f08c379a0000000000000000000000000000000000000000000000000000000008152600401610537906118d0565b60405180910390fd5b8260026000828254610552919061191f565b92505081905550600191505092915050565b6000803373ffffffffffffffffffffffffffffffffffffffff1673ffffffffffffffffffffffffffffffffffffffff16815260200190815260200160002060009054906101000a900460ff166105ef576040517f08c379a00000000000000000000000000000000000000000000000000000000081526004016105e690611690565b60405180910390fd5b6000600460009054906101000a900473ffffffffffffffffffffffffffffffffffffffff1673ffffffffffffffffffffffffffffffffffffffff166370a08231306040518263ffffffff1660e01b815260040161064c9190611618565b602060405180830381865afa158015610669573d6000803e3d6000fd5b505050506040513d601f19601f8201168201806040525081019061068d919061198a565b9050808211156106d2576040517f08c379a00000000000000000000000000000000000000000000000000000000081526004016106c990611a03565b60405180910390fd5b6000600460009054906101000a900473ffffffffffffffffffffffffffffffffffffffff1673ffffffffffffffffffffffffffffffffffffffff1663a9059cbb85856040518363ffffffff1660e01b8152600401610731929190611a23565b6020604051808303816000875af1158015610750573d6000803e3d6000fd5b505050506040513d601f19601f820116820180604052508101906107749190611857565b9050806107b6576040517f08c379a00000000000000000000000000000000000000000000000000000000081526004016107ad90611a98565b60405180910390fd5b50505050565b60025481565b6000803373ffffffffffffffffffffffffffffffffffffffff1673ffffffffffffffffffffffffffffffffffffffff16815260200190815260200160002060009054906101000a900460ff1661084d576040517f08c379a000000000000000000000000000000000000000000000000000000000815260040161084490611690565b60405180910390fd5b80600460006101000a81548173ffffffffffffffffffffffffffffffffffffffff021916908373ffffffffffffffffffffffffffffffffffffffff16021790555050565b6000803373ffffffffffffffffffffffffffffffffffffffff1673ffffffffffffffffffffffffffffffffffffffff16815260200190815260200160002060009054906101000a900460ff1661091c576040517f08c379a000000000000000000000000000000000000000000000000000000000815260040161091390611690565b60405180910390fd5b600047905080821115610964576040517f08c379a000000000000000000000000000000000000000000000000000000000815260040161095b906116fc565b60405180910390fd5b600060038054806020026020016040519081016040528092919081815260200182805480156109e857602002820191906000526020600020905b8160009054906101000a900473ffffffffffffffffffffffffffffffffffffffff1673ffffffffffffffffffffffffffffffffffffffff168152602001906001019080831161099e575b5050505050905060008084036109fc578293505b60005b600380549050811015610b2057828181518110610a1f57610a1e611ab8565b5b602002602001015173ffffffffffffffffffffffffffffffffffffffff166108fc606460016000878681518110610a5957610a58611ab8565b5b602002602001015173ffffffffffffffffffffffffffffffffffffffff1673ffffffffffffffffffffffffffffffffffffffff1681526020019081526020016000205488610aa79190611ae7565b610ab19190611b70565b9081150290604051600060405180830381858888f19350505050915081610b0d576040517f08c379a0000000000000000000000000000000000000000000000000000000008152600401610b0490611bed565b60405180910390fd5b8080610b1890611c0d565b9150506109ff565b5050505050565b6000600460009054906101000a900473ffffffffffffffffffffffffffffffffffffffff1673ffffffffffffffffffffffffffffffffffffffff166370a08231306040518263ffffffff1660e01b8152600401610b849190611618565b602060405180830381865afa158015610ba1573d6000803e3d6000fd5b505050506040513d601f19601f82011682018060405250810190610bc5919061198a565b905090565b6000803373ffffffffffffffffffffffffffffffffffffffff1673ffffffffffffffffffffffffffffffffffffffff16815260200190815260200160002060009054906101000a900460ff16610c55576040517f08c379a0000000000000000000000000000000000000000000000000000000008152600401610c4c90611690565b60405180910390fd5b6000808273ffffffffffffffffffffffffffffffffffffffff1673ffffffffffffffffffffffffffffffffffffffff16815260200190815260200160002060009054906101000a900460ff16156000808373ffffffffffffffffffffffffffffffffffffffff1673ffffffffffffffffffffffffffffffffffffffff16815260200190815260200160002060006101000a81548160ff02191690831515021790555050565b6000803373ffffffffffffffffffffffffffffffffffffffff1673ffffffffffffffffffffffffffffffffffffffff16815260200190815260200160002060009054906101000a900460ff16610d85576040517f08c379a0000000000000000000000000000000000000000000000000000000008152600401610d7c90611690565b60405180910390fd5b818190508484905014610dcd576040517f08c379a0000000000000000000000000000000000000000000000000000000008152600401610dc490611ca1565b60405180910390fd5b60036000610ddb9190611257565b838360039190610dec929190611278565b5060005b82829050811015610e9257828282818110610e0e57610e0d611ab8565b5b9050602002013560016000878785818110610e2c57610e2b611ab8565b5b9050602002016020810190610e419190611473565b73ffffffffffffffffffffffffffffffffffffffff1673ffffffffffffffffffffffffffffffffffffffff168152602001908152602001600020819055508080610e8a90611c0d565b915050610df0565b5050505050565b600460009054906101000a900473ffffffffffffffffffffffffffffffffffffffff1681565b6000803373ffffffffffffffffffffffffffffffffffffffff1673ffffffffffffffffffffffffffffffffffffffff16815260200190815260200160002060009054906101000a900460ff16610f4a576040517f08c379a0000000000000000000000000000000000000000000000000000000008152600401610f4190611690565b60405180910390fd5b6000600460009054906101000a900473ffffffffffffffffffffffffffffffffffffffff1673ffffffffffffffffffffffffffffffffffffffff166370a08231306040518263ffffffff1660e01b8152600401610fa79190611618565b602060405180830381865afa158015610fc4573d6000803e3d6000fd5b505050506040513d601f19601f82011682018060405250810190610fe8919061198a565b90508082111561102d576040517f08c379a000000000000000000000000000000000000000000000000000000000815260040161102490611a03565b60405180910390fd5b600060038054806020026020016040519081016040528092919081815260200182805480156110b157602002820191906000526020600020905b8160009054906101000a900473ffffffffffffffffffffffffffffffffffffffff1673ffffffffffffffffffffffffffffffffffffffff1681526020019060010190808311611067575b5050505050905060008084036110c5578293505b60005b825181101561125057600460009054906101000a900473ffffffffffffffffffffffffffffffffffffffff1673ffffffffffffffffffffffffffffffffffffffff1663a9059cbb84838151811061112257611121611ab8565b5b602002602001015160646001600088878151811061114357611142611ab8565b5b602002602001015173ffffffffffffffffffffffffffffffffffffffff1673ffffffffffffffffffffffffffffffffffffffff16815260200190815260200160002054896111919190611ae7565b61119b9190611b70565b6040518363ffffffff1660e01b81526004016111b8929190611a23565b6020604051808303816000875af11580156111d7573d6000803e3d6000fd5b505050506040513d601f19601f820116820180604052508101906111fb9190611857565b91508161123d576040517f08c379a000000000000000000000000000000000000000000000000000000000815260040161123490611d0d565b60405180910390fd5b808061124890611c0d565b9150506110c8565b5050505050565b50805460008255906000526020600020908101906112759190611318565b50565b828054828255906000526020600020908101928215611307579160200282015b8281111561130657823573ffffffffffffffffffffffffffffffffffffffff168260006101000a81548173ffffffffffffffffffffffffffffffffffffffff021916908373ffffffffffffffffffffffffffffffffffffffff16021790555091602001919060010190611298565b5b5090506113149190611318565b5090565b5b80821115611331576000816000905550600101611319565b5090565b600080fd5b600080fd5b600073ffffffffffffffffffffffffffffffffffffffff82169050919050565b600061136a8261133f565b9050919050565b61137a8161135f565b811461138557600080fd5b50565b60008135905061139781611371565b92915050565b6000819050919050565b6113b08161139d565b81146113bb57600080fd5b50565b6000813590506113cd816113a7565b92915050565b600080604083850312156113ea576113e9611335565b5b60006113f885828601611388565b9250506020611409858286016113be565b9150509250929050565b60008115159050919050565b61142881611413565b82525050565b6000602082019050611443600083018461141f565b92915050565b6114528161139d565b82525050565b600060208201905061146d6000830184611449565b92915050565b60006020828403121561148957611488611335565b5b600061149784828501611388565b91505092915050565b6000602082840312156114b6576114b5611335565b5b60006114c4848285016113be565b91505092915050565b600080fd5b600080fd5b600080fd5b60008083601f8401126114f2576114f16114cd565b5b8235905067ffffffffffffffff81111561150f5761150e6114d2565b5b60208301915083602082028301111561152b5761152a6114d7565b5b9250929050565b60008083601f840112611548576115476114cd565b5b8235905067ffffffffffffffff811115611565576115646114d2565b5b602083019150836020820283011115611581576115806114d7565b5b9250929050565b600080600080604085870312156115a2576115a1611335565b5b600085013567ffffffffffffffff8111156115c0576115bf61133a565b5b6115cc878288016114dc565b9450945050602085013567ffffffffffffffff8111156115ef576115ee61133a565b5b6115fb87828801611532565b925092505092959194509250565b6116128161135f565b82525050565b600060208201905061162d6000830184611609565b92915050565b600082825260208201905092915050565b7f41646d696e206f6e6c7900000000000000000000000000000000000000000000600082015250565b600061167a600a83611633565b915061168582611644565b602082019050919050565b600060208201905081810360008301526116a98161166d565b9050919050565b7f436f6e747261637420646f65736e2774206861766520656e6f75676820457468600082015250565b60006116e6602083611633565b91506116f1826116b0565b602082019050919050565b60006020820190508181036000830152611715816116d9565b9050919050565b7f4661696c656420746f2077697468647261772045746800000000000000000000600082015250565b6000611752601683611633565b915061175d8261171c565b602082019050919050565b6000602082019050818103600083015261178181611745565b9050919050565b7f496e76616c6964206465706f73697420616d6f756e7400000000000000000000600082015250565b60006117be601683611633565b91506117c982611788565b602082019050919050565b600060208201905081810360008301526117ed816117b1565b9050919050565b60006060820190506118096000830186611609565b6118166020830185611609565b6118236040830184611449565b949350505050565b61183481611413565b811461183f57600080fd5b50565b6000815190506118518161182b565b92915050565b60006020828403121561186d5761186c611335565b5b600061187b84828501611842565b91505092915050565b7f436f756c64206e6f74206465706f7369742066756e6473000000000000000000600082015250565b60006118ba601783611633565b91506118c582611884565b602082019050919050565b600060208201905081810360008301526118e9816118ad565b9050919050565b7f4e487b7100000000000000000000000000000000000000000000000000000000600052601160045260246000fd5b600061192a8261139d565b91506119358361139d565b9250827fffffffffffffffffffffffffffffffffffffffffffffffffffffffffffffffff0382111561196a576119696118f0565b5b828201905092915050565b600081519050611984816113a7565b92915050565b6000602082840312156119a05761199f611335565b5b60006119ae84828501611975565b91505092915050565b7f436f6e747261637420646f65736e2774206861766520656e6f75676820417368600082015250565b60006119ed602083611633565b91506119f8826119b7565b602082019050919050565b60006020820190508181036000830152611a1c816119e0565b9050919050565b6000604082019050611a386000830185611609565b611a456020830184611449565b9392505050565b7f436f756c64206e6f7420776974686472617720616c6c20417368000000000000600082015250565b6000611a82601a83611633565b9150611a8d82611a4c565b602082019050919050565b60006020820190508181036000830152611ab181611a75565b9050919050565b7f4e487b7100000000000000000000000000000000000000000000000000000000600052603260045260246000fd5b6000611af28261139d565b9150611afd8361139d565b9250817fffffffffffffffffffffffffffffffffffffffffffffffffffffffffffffffff0483118215151615611b3657611b356118f0565b5b828202905092915050565b7f4e487b7100000000000000000000000000000000000000000000000000000000600052601260045260246000fd5b6000611b7b8261139d565b9150611b868361139d565b925082611b9657611b95611b41565b5b828204905092915050565b7f436f756c64206e6f742077697468647261772074686565204574680000000000600082015250565b6000611bd7601b83611633565b9150611be282611ba1565b602082019050919050565b60006020820190508181036000830152611c0681611bca565b9050919050565b6000611c188261139d565b91507fffffffffffffffffffffffffffffffffffffffffffffffffffffffffffffffff8203611c4a57611c496118f0565b5b600182019050919050565b7f496e76616c69642076616c756573000000000000000000000000000000000000600082015250565b6000611c8b600e83611633565b9150611c9682611c55565b602082019050919050565b60006020820190508181036000830152611cba81611c7e565b9050919050565b7f436f756c64206e6f742077697468647261772074686565204173680000000000600082015250565b6000611cf7601b83611633565b9150611d0282611cc1565b602082019050919050565b60006020820190508181036000830152611d2681611cea565b905091905056fea264697066735822122073d257b53d1a1a224a5ca0bb8cf79b48b52907504ac09df628bc638f3a776b2664736f6c634300080d0033",
  "immutableReferences": {},
  "source": "// SPDX-License-Identifier: MIT\n\npragma solidity >= 0.8.13;\n\nimport \"@openzeppelin/contracts/token/ERC20/IERC20.sol\";\n\n\ncontract FundSplit {\n\n\n    mapping(address => bool) _isAdmin;\n    mapping(address => uint256) _split;\n    uint256 public _ashBalance;\n    address[] _beneficiaries;\n    address public _ashAddress= 0x64D91f12Ece7362F91A6f8E7940Cd55F05060b92;\n\n\n    event Transf(address from, address to, uint256 amount);\n    constructor(){\n        _isAdmin[msg.sender] = true;\n        _ashBalance = 0;\n    }\n\n    modifier adminOnly{\n        require(_isAdmin[msg.sender], \"Admin only\");\n        _;\n    }\n\n    receive() external payable {\n    }\n\n    function setAshAddress(address ashAddress) external adminOnly{\n        _ashAddress = ashAddress;\n    }\n\n    function manageAdmins(address wallet) external adminOnly{\n        _isAdmin[wallet] = !_isAdmin[wallet];\n    }\n\n\n    // @dev: split to be % *100 (e.g.: for 75%: put 75)\n    function setSplit(address[] calldata beneficiaries, uint256[]calldata split) external adminOnly{\n        require(beneficiaries.length == split.length,\"Invalid values\");\n        delete _beneficiaries;\n        _beneficiaries = beneficiaries;\n        for(uint256 i = 0; i < split.length; i++){  \n            _split[beneficiaries[i]]= split[i];\n        }\n    }\n    \n    function depositAsh(address from, uint256 amount)external returns(bool){\n        require(amount >0, \"Invalid deposit amount\");\n        bool success;\n        success = IERC20(_ashAddress).transferFrom(from, address(this), amount);\n        emit Transf((msg.sender), address(this), amount);\n        require(success, \"Could not deposit funds\");\n        _ashBalance += amount;\n        return true;\n    }\n\n    function getAshBalance()external view returns(uint256){\n        return(IERC20(_ashAddress).balanceOf(address(this)));\n    }\n\n    function splitAsh(uint256 amount)external adminOnly{\n        uint256 contractAshBalance = IERC20(_ashAddress).balanceOf(address(this));\n        require(amount <= contractAshBalance, \"Contract doesn't have enough Ash\");\n        address [] memory beneficiaries = _beneficiaries;\n        bool success;\n        if(amount == 0) amount = contractAshBalance;\n        for(uint256 i =0 ; i < beneficiaries.length; i++){\n            success = IERC20(_ashAddress).transfer(beneficiaries[i], (amount * _split[beneficiaries[i]])/100);\n            require(success, \"Could not withdraw thee Ash\");\n        }\n    }\n\n    function splitEth(uint256 amount)external adminOnly{\n        uint256 contractEthBalance =  address(this).balance;\n        require(amount <= contractEthBalance, \"Contract doesn't have enough Eth\");\n        address [] memory beneficiaries = _beneficiaries;\n        bool success;\n        if(amount == 0) amount = contractEthBalance;\n        for(uint256 i =0 ; i < _beneficiaries.length; i++){\n            success = payable(beneficiaries[i]).send((amount * _split[beneficiaries[i]])/100);\n            require(success, \"Could not withdraw thee Eth\");\n        }\n    }\n\n    function withdrawEth(address recipient, uint256 amount) external adminOnly{\n        uint256 contractEthBalance =  address(this).balance;\n        require(amount <= contractEthBalance, \"Contract doesn't have enough Eth\");\n        bool success;\n        success = payable(recipient).send(amount);\n        require(success, \"Failed to withdraw Eth\");\n    }\n\n    function withdrawAsh(address recipient, uint256 amount)external adminOnly{\n        uint256 contractAshBalance = IERC20(_ashAddress).balanceOf(address(this));\n        require(amount <= contractAshBalance, \"Contract doesn't have enough Ash\");\n        bool success;\n        success = IERC20(_ashAddress).transfer(recipient, amount);\n        require(success, \"Could not withdraw all Ash\");\n    }\n\n}",
  "sourcePath": "/Users/bct/Documents/Dev/NFT_dev/Anastasis/contracts/FundSplit.sol",
  "compiler": {
    "name": "solc",
    "version": "0.8.13+commit.abaa5c0e.Emscripten.clang"
  },
  "schemaVersion": "3.4.4",
  "updatedAt": "2022-10-06T13:44:43.151Z",
  "devdoc": {
    "kind": "dev",
    "methods": {},
    "version": 1
  },
  "userdoc": {
    "kind": "user",
    "methods": {},
    "version": 1
  }
}