{
  "abi": [
    {
      "inputs": [],
      "stateMutability": "nonpayable",
      "type": "constructor"
    },
    {
      "inputs": [],
      "name": "InvalidAddress",
      "type": "error"
    },
    {
      "inputs": [],
      "name": "InvalidTokenId",
      "type": "error"
    },
    {
      "inputs": [],
      "name": "InvalidUris",
      "type": "error"
    },
    {
      "inputs": [
        {
          "internalType": "address",
          "name": "operator",
          "type": "address"
        }
      ],
      "name": "OperatorNotAllowed",
      "type": "error"
    },
    {
      "inputs": [],
      "name": "Unauthorized",
      "type": "error"
    },
    {
      "anonymous": false,
      "inputs": [
        {
          "indexed": true,
          "internalType": "address",
          "name": "owner",
          "type": "address"
        },
        {
          "indexed": true,
          "internalType": "address",
          "name": "approved",
          "type": "address"
        },
        {
          "indexed": true,
          "internalType": "uint256",
          "name": "tokenId",
          "type": "uint256"
        }
      ],
      "name": "Approval",
      "type": "event"
    },
    {
      "anonymous": false,
      "inputs": [
        {
          "indexed": true,
          "internalType": "address",
          "name": "owner",
          "type": "address"
        },
        {
          "indexed": true,
          "internalType": "address",
          "name": "operator",
          "type": "address"
        },
        {
          "indexed": false,
          "internalType": "bool",
          "name": "approved",
          "type": "bool"
        }
      ],
      "name": "ApprovalForAll",
      "type": "event"
    },
    {
      "anonymous": false,
      "inputs": [
        {
          "indexed": true,
          "internalType": "address",
          "name": "from",
          "type": "address"
        },
        {
          "indexed": true,
          "internalType": "address",
          "name": "to",
          "type": "address"
        },
        {
          "indexed": true,
          "internalType": "uint256",
          "name": "tokenId",
          "type": "uint256"
        }
      ],
      "name": "Transfer",
      "type": "event"
    },
    {
      "inputs": [],
      "name": "OPERATOR_FILTER_REGISTRY",
      "outputs": [
        {
          "internalType": "contract IOperatorFilterRegistry",
          "name": "",
          "type": "address"
        }
      ],
      "stateMutability": "view",
      "type": "function"
    },
    {
      "inputs": [
        {
          "internalType": "address",
          "name": "operator",
          "type": "address"
        },
        {
          "internalType": "uint256",
          "name": "tokenId",
          "type": "uint256"
        }
      ],
      "name": "approve",
      "outputs": [],
      "stateMutability": "nonpayable",
      "type": "function"
    },
    {
      "inputs": [
        {
          "internalType": "address",
          "name": "owner",
          "type": "address"
        }
      ],
      "name": "balanceOf",
      "outputs": [
        {
          "internalType": "uint256",
          "name": "",
          "type": "uint256"
        }
      ],
      "stateMutability": "view",
      "type": "function"
    },
    {
      "inputs": [
        {
          "internalType": "uint256",
          "name": "_tokenId",
          "type": "uint256"
        }
      ],
      "name": "burn",
      "outputs": [],
      "stateMutability": "nonpayable",
      "type": "function"
    },
    {
      "inputs": [],
      "name": "foundLove",
      "outputs": [
        {
          "internalType": "bool",
          "name": "",
          "type": "bool"
        }
      ],
      "stateMutability": "view",
      "type": "function"
    },
    {
      "inputs": [
        {
          "internalType": "uint256",
          "name": "tokenId",
          "type": "uint256"
        }
      ],
      "name": "getApproved",
      "outputs": [
        {
          "internalType": "address",
          "name": "",
          "type": "address"
        }
      ],
      "stateMutability": "view",
      "type": "function"
    },
    {
      "inputs": [
        {
          "internalType": "address",
          "name": "owner",
          "type": "address"
        },
        {
          "internalType": "address",
          "name": "operator",
          "type": "address"
        }
      ],
      "name": "isApprovedForAll",
      "outputs": [
        {
          "internalType": "bool",
          "name": "",
          "type": "bool"
        }
      ],
      "stateMutability": "view",
      "type": "function"
    },
    {
      "inputs": [
        {
          "internalType": "address",
          "name": "_to",
          "type": "address"
        }
      ],
      "name": "mint",
      "outputs": [],
      "stateMutability": "nonpayable",
      "type": "function"
    },
    {
      "inputs": [],
      "name": "name",
      "outputs": [
        {
          "internalType": "string",
          "name": "",
          "type": "string"
        }
      ],
      "stateMutability": "view",
      "type": "function"
    },
    {
      "inputs": [
        {
          "internalType": "uint256",
          "name": "tokenId",
          "type": "uint256"
        }
      ],
      "name": "ownerOf",
      "outputs": [
        {
          "internalType": "address",
          "name": "",
          "type": "address"
        }
      ],
      "stateMutability": "view",
      "type": "function"
    },
    {
      "inputs": [
        {
          "internalType": "uint256",
          "name": "_tokenId",
          "type": "uint256"
        },
        {
          "internalType": "uint256",
          "name": "salePrice",
          "type": "uint256"
        }
      ],
      "name": "royaltyInfo",
      "outputs": [
        {
          "internalType": "address",
          "name": "",
          "type": "address"
        },
        {
          "internalType": "uint256",
          "name": "",
          "type": "uint256"
        }
      ],
      "stateMutability": "view",
      "type": "function"
    },
    {
      "inputs": [
        {
          "internalType": "address",
          "name": "from",
          "type": "address"
        },
        {
          "internalType": "address",
          "name": "to",
          "type": "address"
        },
        {
          "internalType": "uint256",
          "name": "tokenId",
          "type": "uint256"
        }
      ],
      "name": "safeTransferFrom",
      "outputs": [],
      "stateMutability": "nonpayable",
      "type": "function"
    },
    {
      "inputs": [
        {
          "internalType": "address",
          "name": "from",
          "type": "address"
        },
        {
          "internalType": "address",
          "name": "to",
          "type": "address"
        },
        {
          "internalType": "uint256",
          "name": "tokenId",
          "type": "uint256"
        },
        {
          "internalType": "bytes",
          "name": "data",
          "type": "bytes"
        }
      ],
      "name": "safeTransferFrom",
      "outputs": [],
      "stateMutability": "nonpayable",
      "type": "function"
    },
    {
      "inputs": [
        {
          "internalType": "address",
          "name": "operator",
          "type": "address"
        },
        {
          "internalType": "bool",
          "name": "approved",
          "type": "bool"
        }
      ],
      "name": "setApprovalForAll",
      "outputs": [],
      "stateMutability": "nonpayable",
      "type": "function"
    },
    {
      "inputs": [
        {
          "internalType": "address payable",
          "name": "_recipient",
          "type": "address"
        },
        {
          "internalType": "uint256",
          "name": "_royaltyPerCent",
          "type": "uint256"
        }
      ],
      "name": "setRoyalties",
      "outputs": [],
      "stateMutability": "nonpayable",
      "type": "function"
    },
    {
      "inputs": [
        {
          "internalType": "uint256",
          "name": "_tokenId",
          "type": "uint256"
        },
        {
          "internalType": "bool",
          "name": "_foundLove",
          "type": "bool"
        },
        {
          "internalType": "string[]",
          "name": "_uris",
          "type": "string[]"
        }
      ],
      "name": "setURI",
      "outputs": [],
      "stateMutability": "nonpayable",
      "type": "function"
    },
    {
      "inputs": [
        {
          "internalType": "bytes4",
          "name": "interfaceId",
          "type": "bytes4"
        }
      ],
      "name": "supportsInterface",
      "outputs": [
        {
          "internalType": "bool",
          "name": "",
          "type": "bool"
        }
      ],
      "stateMutability": "view",
      "type": "function"
    },
    {
      "inputs": [],
      "name": "symbol",
      "outputs": [
        {
          "internalType": "string",
          "name": "",
          "type": "string"
        }
      ],
      "stateMutability": "view",
      "type": "function"
    },
    {
      "inputs": [
        {
          "internalType": "address",
          "name": "_admin",
          "type": "address"
        }
      ],
      "name": "toggleAdmin",
      "outputs": [],
      "stateMutability": "nonpayable",
      "type": "function"
    },
    {
      "inputs": [],
      "name": "tokenId",
      "outputs": [
        {
          "internalType": "uint256",
          "name": "",
          "type": "uint256"
        }
      ],
      "stateMutability": "view",
      "type": "function"
    },
    {
      "inputs": [
        {
          "internalType": "uint256",
          "name": "_tokenId",
          "type": "uint256"
        }
      ],
      "name": "tokenURI",
      "outputs": [
        {
          "internalType": "string",
          "name": "",
          "type": "string"
        }
      ],
      "stateMutability": "view",
      "type": "function"
    },
    {
      "inputs": [
        {
          "internalType": "address",
          "name": "from",
          "type": "address"
        },
        {
          "internalType": "address",
          "name": "to",
          "type": "address"
        },
        {
          "internalType": "uint256",
          "name": "tokenId",
          "type": "uint256"
        }
      ],
      "name": "transferFrom",
      "outputs": [],
      "stateMutability": "nonpayable",
      "type": "function"
    }
  ],
  "bytecode": {
    "object": "0x60806040523480156200001157600080fd5b50733cc6cdda760b79bafa08df41ecfa224f810dceb660016040518060400160405280600a8152602001694c6f766520426972647360b01b8152506040518060400160405280600a8152602001694c6f766520426972647360b01b81525081600090816200008091906200044e565b5060016200008f82826200044e565b5050506daaeb6d7670e522a718067333cd4e3b15620001d75780156200012557604051633e9f1edf60e11b81523060048201526001600160a01b03831660248201526daaeb6d7670e522a718067333cd4e90637d3e3dbe906044015b600060405180830381600087803b1580156200010657600080fd5b505af11580156200011b573d6000803e3d6000fd5b50505050620001d7565b6001600160a01b03821615620001765760405163a0af290360e01b81523060048201526001600160a01b03831660248201526daaeb6d7670e522a718067333cd4e9063a0af290390604401620000eb565b604051632210724360e11b81523060048201526daaeb6d7670e522a718067333cd4e90634420e48690602401600060405180830381600087803b158015620001bd57600080fd5b505af1158015620001d2573d6000803e3d6000fd5b505050505b5050336000908152600a602052604090819020805460ff1916600117905580516101008101909152602460a082018181528291620025d960c0840139815260200160405180604001604052806012815260200171111610113232b9b1b934b83a34b7b7111d1160711b8152508152602001604051806080016040528060508152602001620025fd60509139815260200160405180604001604052806011815260200170222c202261747472696275746573223a5b60781b8152508152602001604051806040016040528060028152602001615d7d60f01b8152508152506006906005620002c6929190620002d2565b5060006007556200051a565b8280548282559060005260206000209081019282156200031d579160200282015b828111156200031d57825182906200030c90826200044e565b5091602001919060010190620002f3565b506200032b9291506200032f565b5090565b808211156200032b57600062000346828262000350565b506001016200032f565b5080546200035e90620003bf565b6000825580601f106200036f575050565b601f0160209004906000526020600020908101906200038f919062000392565b50565b5b808211156200032b576000815560010162000393565b634e487b7160e01b600052604160045260246000fd5b600181811c90821680620003d457607f821691505b602082108103620003f557634e487b7160e01b600052602260045260246000fd5b50919050565b601f8211156200044957600081815260208120601f850160051c81016020861015620004245750805b601f850160051c820191505b81811015620004455782815560010162000430565b5050505b505050565b81516001600160401b038111156200046a576200046a620003a9565b62000482816200047b8454620003bf565b84620003fb565b602080601f831160018114620004ba5760008415620004a15750858301515b600019600386901b1c1916600185901b17855562000445565b600085815260208120601f198616915b82811015620004eb57888601518255948401946001909101908401620004ca565b50858210156200050a5787850151600019600388901b60f8161c191681555b5050505050600190811b01905550565b6120af806200052a6000396000f3fe608060405234801561001057600080fd5b50600436106101425760003560e01c80636352211e116100b8578063a22cb4651161007c578063a22cb465146102c3578063b88d4fde146102d6578063c87b56dd146102e9578063d3b86141146102fc578063e985e9c51461030f578063f0b544951461032257600080fd5b80636352211e1461026f5780636a6278421461028257806370a08231146102955780638c7ea24b146102a857806395d89b41146102bb57600080fd5b806317d70f7c1161010a57806317d70f7c146101d857806323b872dd146101ef5780632a55205a1461020257806341f434341461023457806342842e0e1461024957806342966c681461025c57600080fd5b806301ffc9a71461014757806306fdde031461016f578063081812fc1461018457806309340c23146101af578063095ea7b3146101c3575b600080fd5b61015a61015536600461180f565b610335565b60405190151581526020015b60405180910390f35b610177610370565b6040516101669190611883565b610197610192366004611896565b610402565b6040516001600160a01b039091168152602001610166565b60095461015a90600160a01b900460ff1681565b6101d66101d13660046118c4565b610429565b005b6101e160075481565b604051908152602001610166565b6101d66101fd3660046118f0565b610442565b610215610210366004611931565b61046d565b604080516001600160a01b039093168352602083019190915201610166565b6101976daaeb6d7670e522a718067333cd4e81565b6101d66102573660046118f0565b6104c3565b6101d661026a366004611896565b6104e8565b61019761027d366004611896565b610525565b6101d6610290366004611953565b61058a565b6101e16102a3366004611953565b610644565b6101d66102b63660046118c4565b6106ca565b61017761071f565b6101d66102d136600461197e565b61072e565b6101d66102e43660046119cd565b610742565b6101776102f7366004611896565b61076f565b6101d661030a366004611953565b610b41565b61015a61031d366004611aad565b610b99565b6101d6610330366004611adb565b610bc7565b600061034082610cea565b8061035b57506001600160e01b0319821663152a902d60e11b145b8061036a575061036a82610cea565b92915050565b60606000805461037f90611b67565b80601f01602080910402602001604051908101604052809291908181526020018280546103ab90611b67565b80156103f85780601f106103cd576101008083540402835291602001916103f8565b820191906000526020600020905b8154815290600101906020018083116103db57829003601f168201915b5050505050905090565b600061040d82610d3a565b506000908152600460205260409020546001600160a01b031690565b8161043381610d99565b61043d8383610e52565b505050565b826001600160a01b038116331461045c5761045c33610d99565b610467848484610f62565b50505050565b60095460009081906001600160a01b0316156104b5576009546008546001600160a01b03909116906064906104a29086611bb7565b6104ac9190611be4565b915091506104bc565b5060009050805b9250929050565b826001600160a01b03811633146104dd576104dd33610d99565b610467848484610f93565b336104f282610525565b6001600160a01b031614610519576040516307ed98ed60e31b815260040160405180910390fd5b61052281610fae565b50565b6000818152600260205260408120546001600160a01b03168061036a5760405162461bcd60e51b8152602060048201526018602482015277115490cdcc8c4e881a5b9d985b1a59081d1bdad95b88125160421b60448201526064015b60405180910390fd5b336000908152600a602052604090205460ff166105b9576040516282b42960e81b815260040160405180910390fd5b60075415610620576105cb6000610525565b6001600160a01b0316816001600160a01b0316036105fc5760405163e6c4247b60e01b815260040160405180910390fd5b60016007541115610620576040516307ed98ed60e31b815260040160405180910390fd5b61062c8160075461105f565b6007805490600061063c83611bf8565b919050555050565b60006001600160a01b0382166106ae5760405162461bcd60e51b815260206004820152602960248201527f4552433732313a2061646472657373207a65726f206973206e6f7420612076616044820152683634b21037bbb732b960b91b6064820152608401610581565b506001600160a01b031660009081526003602052604090205490565b336000908152600a602052604090205460ff166106f9576040516282b42960e81b815260040160405180910390fd5b600980546001600160a01b0319166001600160a01b039390931692909217909155600855565b60606001805461037f90611b67565b8161073881610d99565b61043d8383611202565b836001600160a01b038116331461075c5761075c33610d99565b6107688585858561120d565b5050505050565b60606000821561079c5760405180604001604052806005815260200164416c6c696560d81b8152506107ba565b6040518060400160405280600481526020016309cdec2d60e31b8152505b905060006040518060600160405280603a8152602001612040603a9139905060606000856000036107fd576112c06107f4611c2043611c11565b10159050610810565b61096061080c611c2043611c11565b1090505b600954600160a01b900460ff16806108255750805b156108fc576000868152600b60209081526040808320600954600160a01b900460ff16151584529091528120805490919061086257610862611c25565b90600052602060002001805461087790611b67565b80601f01602080910402602001604051908101604052809291908181526020018280546108a390611b67565b80156108f05780601f106108c5576101008083540402835291602001916108f0565b820191906000526020600020905b8154815290600101906020018083116108d357829003601f168201915b505050505091506109cc565b6000868152600b60209081526040808320600954600160a01b900460ff161515845290915290208054600190811061093657610936611c25565b90600052602060002001805461094b90611b67565b80601f016020809104026020016040519081016040528092919081815260200182805461097790611b67565b80156109c45780601f10610999576101008083540402835291602001916109c4565b820191906000526020600020905b8154815290600101906020018083116109a757829003601f168201915b505050505091505b604080516020810190915260008082526006805482906109ee576109ee611c25565b9060005260206000200186604051602001610a0a929190611cae565b6040516020818303038152906040526006600181548110610a2d57610a2d611c25565b9060005260206000200186604051602001610a49929190611cae565b6040516020818303038152906040526006600281548110610a6c57610a6c611c25565b9060005260206000200186604051602001610a88929190611cae565b6040516020818303038152906040526006600381548110610aab57610aab611c25565b9060005260206000200185604051602001610ac7929190611cae565b6040516020818303038152906040526006600481548110610aea57610aea611c25565b90600052602060002001604051602001610b049190611cd3565b60408051601f1981840301815290829052610b259594939291602001611cdf565b60408051601f1981840301815291905298975050505050505050565b336000908152600a602052604090205460ff16610b70576040516282b42960e81b815260040160405180910390fd5b6001600160a01b03166000908152600a60205260409020805460ff19811660ff90911615179055565b6001600160a01b03918216600090815260056020908152604080832093909416825291909152205460ff1690565b336000908152600a602052604090205460ff16610bf6576040516282b42960e81b815260040160405180910390fd5b8215610c225760018114610c1d5760405163437c279b60e01b815260040160405180910390fd5b610c43565b60028114610c435760405163437c279b60e01b815260040160405180910390fd5b6000848152600b6020908152604080832086151584529091528120610c6791611774565b60005b60ff8116821115610768576000858152600b6020908152604080832087151584529091529020838360ff8416818110610ca557610ca5611c25565b9050602002810190610cb79190611d4a565b82546001810184556000938452602090932090920191610cd79183611ddf565b5080610ce281611e9f565b915050610c6a565b60006001600160e01b031982166380ac58cd60e01b1480610d1b57506001600160e01b03198216635b5e139f60e01b145b8061036a57506301ffc9a760e01b6001600160e01b031983161461036a565b6000818152600260205260409020546001600160a01b03166105225760405162461bcd60e51b8152602060048201526018602482015277115490cdcc8c4e881a5b9d985b1a59081d1bdad95b88125160421b6044820152606401610581565b6daaeb6d7670e522a718067333cd4e3b1561052257604051633185c44d60e21b81523060048201526001600160a01b03821660248201526daaeb6d7670e522a718067333cd4e9063c617113490604401602060405180830381865afa158015610e06573d6000803e3d6000fd5b505050506040513d601f19601f82011682018060405250810190610e2a9190611ebe565b61052257604051633b79c77360e21b81526001600160a01b0382166004820152602401610581565b6000610e5d82610525565b9050806001600160a01b0316836001600160a01b031603610eca5760405162461bcd60e51b815260206004820152602160248201527f4552433732313a20617070726f76616c20746f2063757272656e74206f776e656044820152603960f91b6064820152608401610581565b336001600160a01b0382161480610ee65750610ee68133610b99565b610f585760405162461bcd60e51b815260206004820152603d60248201527f4552433732313a20617070726f76652063616c6c6572206973206e6f7420746f60448201527f6b656e206f776e6572206f7220617070726f76656420666f7220616c6c0000006064820152608401610581565b61043d838361123f565b610f6c33826112ad565b610f885760405162461bcd60e51b815260040161058190611edb565b61043d83838361130c565b61043d83838360405180602001604052806000815250610742565b6000610fb982610525565b9050610fc9816000846001611485565b610fd282610525565b600083815260046020908152604080832080546001600160a01b03199081169091556001600160a01b0385168085526003845282852080546000190190558785526002909352818420805490911690555192935084927fddf252ad1be2c89b69c2b068fc378daa952ba7f163c4a11628f55a4df523b3ef908390a461105b81600084600161150d565b5050565b6001600160a01b0382166110b55760405162461bcd60e51b815260206004820181905260248201527f4552433732313a206d696e7420746f20746865207a65726f20616464726573736044820152606401610581565b6000818152600260205260409020546001600160a01b03161561111a5760405162461bcd60e51b815260206004820152601c60248201527f4552433732313a20746f6b656e20616c7265616479206d696e746564000000006044820152606401610581565b611128600083836001611485565b6000818152600260205260409020546001600160a01b03161561118d5760405162461bcd60e51b815260206004820152601c60248201527f4552433732313a20746f6b656e20616c7265616479206d696e746564000000006044820152606401610581565b6001600160a01b038216600081815260036020908152604080832080546001019055848352600290915280822080546001600160a01b0319168417905551839291907fddf252ad1be2c89b69c2b068fc378daa952ba7f163c4a11628f55a4df523b3ef908290a461105b60008383600161150d565b61105b338383611572565b61121733836112ad565b6112335760405162461bcd60e51b815260040161058190611edb565b61046784848484611640565b600081815260046020526040902080546001600160a01b0319166001600160a01b038416908117909155819061127482610525565b6001600160a01b03167f8c5be1e5ebec7d5bd14f71427d1e84f3dd0314c0f7b2291e5b200ac8c7c3b92560405160405180910390a45050565b6000806112b983610525565b9050806001600160a01b0316846001600160a01b031614806112e057506112e08185610b99565b806113045750836001600160a01b03166112f984610402565b6001600160a01b0316145b949350505050565b826001600160a01b031661131f82610525565b6001600160a01b0316146113455760405162461bcd60e51b815260040161058190611f28565b6001600160a01b0382166113a75760405162461bcd60e51b8152602060048201526024808201527f4552433732313a207472616e7366657220746f20746865207a65726f206164646044820152637265737360e01b6064820152608401610581565b6113b48383836001611485565b826001600160a01b03166113c782610525565b6001600160a01b0316146113ed5760405162461bcd60e51b815260040161058190611f28565b600081815260046020908152604080832080546001600160a01b03199081169091556001600160a01b0387811680865260038552838620805460001901905590871680865283862080546001019055868652600290945282852080549092168417909155905184937fddf252ad1be2c89b69c2b068fc378daa952ba7f163c4a11628f55a4df523b3ef91a461043d838383600161150d565b6001811115610467576001600160a01b038416156114cb576001600160a01b038416600090815260036020526040812080548392906114c5908490611f6d565b90915550505b6001600160a01b03831615610467576001600160a01b03831660009081526003602052604081208054839290611502908490611f80565b909155505050505050565b6001600160a01b03841615610467576115266001610525565b6001600160a01b03166115396000610525565b6001600160a01b03160361155f576009805460ff60a01b1916600160a01b179055610467565b6009805460ff60a01b1916905550505050565b816001600160a01b0316836001600160a01b0316036115d35760405162461bcd60e51b815260206004820152601960248201527f4552433732313a20617070726f766520746f2063616c6c6572000000000000006044820152606401610581565b6001600160a01b03838116600081815260056020908152604080832094871680845294825291829020805460ff191686151590811790915591519182527f17307eab39ab6107e8899845ad3d59bd9653f200f220920489ca2b5937696c31910160405180910390a3505050565b61164b84848461130c565b61165784848484611673565b6104675760405162461bcd60e51b815260040161058190611f93565b60006001600160a01b0384163b1561176957604051630a85bd0160e11b81526001600160a01b0385169063150b7a02906116b7903390899088908890600401611fe5565b6020604051808303816000875af19250505080156116f2575060408051601f3d908101601f191682019092526116ef91810190612022565b60015b61174f573d808015611720576040519150601f19603f3d011682016040523d82523d6000602084013e611725565b606091505b5080516000036117475760405162461bcd60e51b815260040161058190611f93565b805181602001fd5b6001600160e01b031916630a85bd0160e11b149050611304565b506001949350505050565b508054600082559060005260206000209081019061052291905b808211156117ab5760006117a282826117af565b5060010161178e565b5090565b5080546117bb90611b67565b6000825580601f106117cb575050565b601f01602090049060005260206000209081019061052291905b808211156117ab57600081556001016117e5565b6001600160e01b03198116811461052257600080fd5b60006020828403121561182157600080fd5b813561182c816117f9565b9392505050565b60005b8381101561184e578181015183820152602001611836565b50506000910152565b6000815180845261186f816020860160208601611833565b601f01601f19169290920160200192915050565b60208152600061182c6020830184611857565b6000602082840312156118a857600080fd5b5035919050565b6001600160a01b038116811461052257600080fd5b600080604083850312156118d757600080fd5b82356118e2816118af565b946020939093013593505050565b60008060006060848603121561190557600080fd5b8335611910816118af565b92506020840135611920816118af565b929592945050506040919091013590565b6000806040838503121561194457600080fd5b50508035926020909101359150565b60006020828403121561196557600080fd5b813561182c816118af565b801515811461052257600080fd5b6000806040838503121561199157600080fd5b823561199c816118af565b915060208301356119ac81611970565b809150509250929050565b634e487b7160e01b600052604160045260246000fd5b600080600080608085870312156119e357600080fd5b84356119ee816118af565b935060208501356119fe816118af565b925060408501359150606085013567ffffffffffffffff80821115611a2257600080fd5b818701915087601f830112611a3657600080fd5b813581811115611a4857611a486119b7565b604051601f8201601f19908116603f01168101908382118183101715611a7057611a706119b7565b816040528281528a6020848701011115611a8957600080fd5b82602086016020830137600060208483010152809550505050505092959194509250565b60008060408385031215611ac057600080fd5b8235611acb816118af565b915060208301356119ac816118af565b60008060008060608587031215611af157600080fd5b843593506020850135611b0381611970565b9250604085013567ffffffffffffffff80821115611b2057600080fd5b818701915087601f830112611b3457600080fd5b813581811115611b4357600080fd5b8860208260051b8501011115611b5857600080fd5b95989497505060200194505050565b600181811c90821680611b7b57607f821691505b602082108103611b9b57634e487b7160e01b600052602260045260246000fd5b50919050565b634e487b7160e01b600052601160045260246000fd5b808202811582820484141761036a5761036a611ba1565b634e487b7160e01b600052601260045260246000fd5b600082611bf357611bf3611bce565b500490565b600060018201611c0a57611c0a611ba1565b5060010190565b600082611c2057611c20611bce565b500690565b634e487b7160e01b600052603260045260246000fd5b60008154611c4881611b67565b60018281168015611c605760018114611c7557611ca4565b60ff1984168752821515830287019450611ca4565b8560005260208060002060005b85811015611c9b5781548a820152908401908201611c82565b50505082870194505b5050505092915050565b6000611cba8285611c3b565b8351611cca818360208801611833565b01949350505050565b600061182c8284611c3b565b60008651611cf1818460208b01611833565b865190830190611d05818360208b01611833565b8651910190611d18818360208a01611833565b8551910190611d2b818360208901611833565b8451910190611d3e818360208801611833565b01979650505050505050565b6000808335601e19843603018112611d6157600080fd5b83018035915067ffffffffffffffff821115611d7c57600080fd5b6020019150368190038213156104bc57600080fd5b601f82111561043d57600081815260208120601f850160051c81016020861015611db85750805b601f850160051c820191505b81811015611dd757828155600101611dc4565b505050505050565b67ffffffffffffffff831115611df757611df76119b7565b611e0b83611e058354611b67565b83611d91565b6000601f841160018114611e3f5760008515611e275750838201355b600019600387901b1c1916600186901b178355610768565b600083815260209020601f19861690835b82811015611e705786850135825560209485019460019092019101611e50565b5086821015611e8d5760001960f88860031b161c19848701351681555b505060018560011b0183555050505050565b600060ff821660ff8103611eb557611eb5611ba1565b60010192915050565b600060208284031215611ed057600080fd5b815161182c81611970565b6020808252602d908201527f4552433732313a2063616c6c6572206973206e6f7420746f6b656e206f776e6560408201526c1c881bdc88185c1c1c9bdd9959609a1b606082015260800190565b60208082526025908201527f4552433732313a207472616e736665722066726f6d20696e636f72726563742060408201526437bbb732b960d91b606082015260800190565b8181038181111561036a5761036a611ba1565b8082018082111561036a5761036a611ba1565b60208082526032908201527f4552433732313a207472616e7366657220746f206e6f6e20455243373231526560408201527131b2b4bb32b91034b6b83632b6b2b73a32b960711b606082015260800190565b6001600160a01b038581168252841660208201526040810183905260806060820181905260009061201890830184611857565b9695505050505050565b60006020828403121561203457600080fd5b815161182c816117f956fe537765617220616e206f61746820746f206272696e67207468656d20626f74682077697468696e207468656972206c6f76657273206c69676874a26469706673582212204fa89a3542d12f2b2774158505e2d11ed08ece07f73924aab60e2852b176d78664736f6c63430008110033646174613a6170706c69636174696f6e2f6a736f6e3b757466382c7b226e616d65223a22222c2022637265617465645f6279223a22536d6f6b65737461636b73202620536d617274636f6e7472617274222c2022696d616765223a22646174613a696d6167652f7376672b786d6c3b757466382c",
    "linkReferences": {}
  },
  "methodIdentifiers": {
    "OPERATOR_FILTER_REGISTRY()": "41f43434",
    "approve(address,uint256)": "095ea7b3",
    "balanceOf(address)": "70a08231",
    "burn(uint256)": "42966c68",
    "foundLove()": "09340c23",
    "getApproved(uint256)": "081812fc",
    "isApprovedForAll(address,address)": "e985e9c5",
    "mint(address)": "6a627842",
    "name()": "06fdde03",
    "ownerOf(uint256)": "6352211e",
    "royaltyInfo(uint256,uint256)": "2a55205a",
    "safeTransferFrom(address,address,uint256)": "42842e0e",
    "safeTransferFrom(address,address,uint256,bytes)": "b88d4fde",
    "setApprovalForAll(address,bool)": "a22cb465",
    "setRoyalties(address,uint256)": "8c7ea24b",
    "setURI(uint256,bool,string[])": "f0b54495",
    "supportsInterface(bytes4)": "01ffc9a7",
    "symbol()": "95d89b41",
    "toggleAdmin(address)": "d3b86141",
    "tokenId()": "17d70f7c",
    "tokenURI(uint256)": "c87b56dd",
    "transferFrom(address,address,uint256)": "23b872dd"
  },
  "id": 32
}