{
  "abi": [
    {
      "inputs": [],
      "stateMutability": "nonpayable",
      "type": "constructor"
    },
    {
      "inputs": [],
      "name": "BidFailed",
      "type": "error"
    },
    {
      "inputs": [],
      "name": "InsufficientFunds",
      "type": "error"
    },
    {
      "inputs": [],
      "name": "InvalidAddress",
      "type": "error"
    },
    {
      "inputs": [],
      "name": "InvalidAuctionState",
      "type": "error"
    },
    {
      "inputs": [],
      "name": "InvalidBid",
      "type": "error"
    },
    {
      "inputs": [],
      "name": "PaymentFailed",
      "type": "error"
    },
    {
      "inputs": [],
      "name": "Unauthorized",
      "type": "error"
    },
    {
      "anonymous": false,
      "inputs": [
        {
          "indexed": false,
          "internalType": "address",
          "name": "_highestBidder",
          "type": "address"
        },
        {
          "indexed": false,
          "internalType": "uint256",
          "name": "refundAmount",
          "type": "uint256"
        }
      ],
      "name": "AuctionCancelled",
      "type": "event"
    },
    {
      "anonymous": false,
      "inputs": [
        {
          "indexed": false,
          "internalType": "address",
          "name": "winner",
          "type": "address"
        }
      ],
      "name": "AuctionEnded",
      "type": "event"
    },
    {
      "anonymous": false,
      "inputs": [
        {
          "indexed": false,
          "internalType": "address",
          "name": "bidder",
          "type": "address"
        },
        {
          "indexed": false,
          "internalType": "uint256",
          "name": "amount",
          "type": "uint256"
        }
      ],
      "name": "BidPlaced",
      "type": "event"
    },
    {
      "anonymous": false,
      "inputs": [
        {
          "indexed": false,
          "internalType": "address",
          "name": "bidder",
          "type": "address"
        },
        {
          "indexed": false,
          "internalType": "uint256",
          "name": "amount",
          "type": "uint256"
        }
      ],
      "name": "BidReturned",
      "type": "event"
    },
    {
      "inputs": [],
      "name": "auctionBeneficiary",
      "outputs": [
        {
          "internalType": "address",
          "name": "",
          "type": "address"
        }
      ],
      "stateMutability": "view",
      "type": "function"
    },
    {
      "inputs": [],
      "name": "cancelAuction",
      "outputs": [],
      "stateMutability": "nonpayable",
      "type": "function"
    },
    {
      "inputs": [],
      "name": "contractToMint",
      "outputs": [
        {
          "internalType": "address",
          "name": "",
          "type": "address"
        }
      ],
      "stateMutability": "view",
      "type": "function"
    },
    {
      "inputs": [],
      "name": "currentTopBid",
      "outputs": [
        {
          "internalType": "uint256",
          "name": "",
          "type": "uint256"
        }
      ],
      "stateMutability": "view",
      "type": "function"
    },
    {
      "inputs": [],
      "name": "highestBidder",
      "outputs": [
        {
          "internalType": "address",
          "name": "",
          "type": "address"
        }
      ],
      "stateMutability": "view",
      "type": "function"
    },
    {
      "inputs": [],
      "name": "isLive",
      "outputs": [
        {
          "internalType": "bool",
          "name": "",
          "type": "bool"
        }
      ],
      "stateMutability": "view",
      "type": "function"
    },
    {
      "inputs": [],
      "name": "minBid",
      "outputs": [
        {
          "internalType": "uint256",
          "name": "",
          "type": "uint256"
        }
      ],
      "stateMutability": "view",
      "type": "function"
    },
    {
      "inputs": [
        {
          "internalType": "uint256",
          "name": "_amount",
          "type": "uint256"
        }
      ],
      "name": "placeBid",
      "outputs": [],
      "stateMutability": "payable",
      "type": "function"
    },
    {
      "inputs": [],
      "name": "reservePrice",
      "outputs": [
        {
          "internalType": "uint256",
          "name": "",
          "type": "uint256"
        }
      ],
      "stateMutability": "view",
      "type": "function"
    },
    {
      "inputs": [
        {
          "internalType": "address",
          "name": "_contractToMint",
          "type": "address"
        },
        {
          "internalType": "uint256",
          "name": "_startingPrice",
          "type": "uint256"
        },
        {
          "internalType": "uint256",
          "name": "_reservePrice",
          "type": "uint256"
        },
        {
          "internalType": "uint256",
          "name": "_minBid",
          "type": "uint256"
        },
        {
          "internalType": "address",
          "name": "_auctionBeneficiary",
          "type": "address"
        }
      ],
      "name": "setUpAuction",
      "outputs": [],
      "stateMutability": "nonpayable",
      "type": "function"
    },
    {
      "inputs": [],
      "name": "settleAuction",
      "outputs": [],
      "stateMutability": "nonpayable",
      "type": "function"
    },
    {
      "inputs": [],
      "name": "startAuction",
      "outputs": [],
      "stateMutability": "nonpayable",
      "type": "function"
    },
    {
      "inputs": [],
      "name": "startingPrice",
      "outputs": [
        {
          "internalType": "uint256",
          "name": "",
          "type": "uint256"
        }
      ],
      "stateMutability": "view",
      "type": "function"
    },
    {
      "inputs": [
        {
          "internalType": "address",
          "name": "newAdmin",
          "type": "address"
        }
      ],
      "name": "toggleAdmin",
      "outputs": [],
      "stateMutability": "nonpayable",
      "type": "function"
    },
    {
      "inputs": [
        {
          "internalType": "address",
          "name": "_recipient",
          "type": "address"
        },
        {
          "internalType": "uint256",
          "name": "_amount",
          "type": "uint256"
        }
      ],
      "name": "withdrawContractFunds",
      "outputs": [],
      "stateMutability": "nonpayable",
      "type": "function"
    },
    {
      "stateMutability": "payable",
      "type": "receive"
    }
  ],
  "bytecode": {
    "object": "0x608060405234801561001057600080fd5b50336000908152600760205260409020805460ff19166001179055610b1d8061003a6000396000f3fe6080604052600436106100ec5760003560e01c806391f901571161008a578063d3b8614111610059578063d3b861411461025e578063d6fbf2021461027e578063db2e1eed14610294578063fdd68ef8146102aa57600080fd5b806391f90157146101e55780639979ef4514610205578063a4d0a17e14610218578063b8f7a6651461022d57600080fd5b80635aa8e74a116100c65780635aa8e74a146101635780636b64c7691461019b5780638995b71a146101b05780638fa8b790146101d057600080fd5b80631c18a457146100f85780632e1888b81461011a5780633e109a191461013a57600080fd5b366100f357005b600080fd5b34801561010457600080fd5b506101186101133660046109ff565b6102c0565b005b34801561012657600080fd5b50610118610135366004610a4f565b610363565b34801561014657600080fd5b5061015060025481565b6040519081526020015b60405180910390f35b34801561016f57600080fd5b50600454610183906001600160a01b031681565b6040516001600160a01b03909116815260200161015a565b3480156101a757600080fd5b506101186103f1565b3480156101bc57600080fd5b50600654610183906001600160a01b031681565b3480156101dc57600080fd5b506101186104b2565b3480156101f157600080fd5b50600554610183906001600160a01b031681565b610118610213366004610a79565b61056d565b34801561022457600080fd5b50610118610732565b34801561023957600080fd5b5060065461024e90600160a01b900460ff1681565b604051901515815260200161015a565b34801561026a57600080fd5b50610118610279366004610a92565b6108c4565b34801561028a57600080fd5b5061015060005481565b3480156102a057600080fd5b5061015060015481565b3480156102b657600080fd5b5061015060035481565b3360009081526007602052604090205460ff166102ef576040516282b42960e81b815260040160405180910390fd5b6001600160a01b0385166103165760405163e6c4247b60e01b815260040160405180910390fd5b600480546001600160a01b039687166001600160a01b0319918216179091556000948555600193909355600291909155600392909255600580548216905560068054929093169116179055565b3360009081526007602052604090205460ff16610392576040516282b42960e81b815260040160405180910390fd5b80158061039e57504781115b156103a65750475b6040516000906001600160a01b038416904780156108fc029184818181858888f193505050509050806103ec576040516307a4ced160e51b815260040160405180910390fd5b505050565b3360009081526007602052604090205460ff16610420576040516282b42960e81b815260040160405180910390fd5b600654600160a01b900460ff161561044b57604051635544086d60e01b815260040160405180910390fd5b6004546001600160a01b03166104745760405163e6c4247b60e01b815260040160405180910390fd5b6006546001600160a01b031661049d5760405163e6c4247b60e01b815260040160405180910390fd5b6006805460ff60a01b1916600160a01b179055565b3360009081526007602052604090205460ff166104e1576040516282b42960e81b815260040160405180910390fd5b600654600160a01b900460ff1661050b57604051635544086d60e01b815260040160405180910390fd5b61051361091c565b6006805460ff60a01b19169055600554600354604080516001600160a01b03909316835260208301919091527f018b64b6242d32aa550e95d78985b938d71af5b3f10827b0683f55da1639304891015b60405180910390a1565b60025461057e6003546000546109c9565b6105889190610aad565b8110156105a85760405163c6388ef760e01b815260040160405180910390fd5b803410156105c95760405163356680b760e01b815260040160405180910390fd5b600654600160a01b900460ff166105f357604051635544086d60e01b815260040160405180910390fd5b600480546040516370a0823160e01b815233928101929092526000916001600160a01b03909116906370a0823190602401602060405180830381865afa158015610641573d6000803e3d6000fd5b505050506040513d601f19601f820116820180604052508101906106659190610ace565b11156106845760405163c6388ef760e01b815260040160405180910390fd5b604051600090309083156108fc0290849084818181858888f193505050509050806106c25760405163f2dc4c7960e01b815260040160405180910390fd5b6005546001600160a01b0316156106db576106db61091c565b600580546001600160a01b03191633908117909155600383905560408051918252602082018490527f3fabff0a9c3ecd6814702e247fa9733e5d0aa69e3a38590f92cb18f623a2254d910160405180910390a15050565b3360009081526007602052604090205460ff16610761576040516282b42960e81b815260040160405180910390fd5b600654600160a01b900460ff1661078b57604051635544086d60e01b815260040160405180910390fd5b6006546001600160a01b03166107b45760405163e6c4247b60e01b815260040160405180910390fd5b600154600354106108ba576006805460ff60a01b1981169091556040516000916001600160a01b0316904780156108fc029184818181858888f19350505050905080610813576040516307a4ced160e51b815260040160405180910390fd5b600480546005546040516335313c2160e11b81526001600160a01b03918216938101939093521690636a62784290602401600060405180830381600087803b15801561085e57600080fd5b505af1158015610872573d6000803e3d6000fd5b50506005546040516001600160a01b0390911681527f662949f3eed0ba9168ccbbab84908b33b7966e1e59c2913a90b4faac442e8e939250602001905060405180910390a150565b6108c26104b2565b565b3360009081526007602052604090205460ff166108f3576040516282b42960e81b815260040160405180910390fd5b6001600160a01b03166000908152600760205260409020805460ff19811660ff90911615179055565b6005546001600160a01b03166109455760405163e6c4247b60e01b815260040160405180910390fd5b6005546003546040516001600160a01b039092169181156108fc0291906000818181858888f19350505050158015610981573d6000803e3d6000fd5b50600554600354604080516001600160a01b03909316835260208301919091527f75a0cba827b0d4e7ad9c64bb1011c21a622c376c3cb72ffbe500b6d0c3cc25969101610563565b60008183116109d857816109da565b825b90505b92915050565b80356001600160a01b03811681146109fa57600080fd5b919050565b600080600080600060a08688031215610a1757600080fd5b610a20866109e3565b9450602086013593506040860135925060608601359150610a43608087016109e3565b90509295509295909350565b60008060408385031215610a6257600080fd5b610a6b836109e3565b946020939093013593505050565b600060208284031215610a8b57600080fd5b5035919050565b600060208284031215610aa457600080fd5b6109da826109e3565b808201808211156109dd57634e487b7160e01b600052601160045260246000fd5b600060208284031215610ae057600080fd5b505191905056fea2646970667358221220808e9fac59240a116a42b5d9db60a4c7b1631328f58f77fd16371c09563b5f1264736f6c63430008110033",
    "linkReferences": {}
  },
  "methodIdentifiers": {
    "auctionBeneficiary()": "8995b71a",
    "cancelAuction()": "8fa8b790",
    "contractToMint()": "5aa8e74a",
    "currentTopBid()": "fdd68ef8",
    "highestBidder()": "91f90157",
    "isLive()": "b8f7a665",
    "minBid()": "3e109a19",
    "placeBid(uint256)": "9979ef45",
    "reservePrice()": "db2e1eed",
    "setUpAuction(address,uint256,uint256,uint256,address)": "1c18a457",
    "settleAuction()": "a4d0a17e",
    "startAuction()": "6b64c769",
    "startingPrice()": "d6fbf202",
    "toggleAdmin(address)": "d3b86141",
    "withdrawContractFunds(address,uint256)": "2e1888b8"
  },
  "id": 33
}